{
  "_format": "hh-sol-artifact-1",
  "contractName": "Fellowship",
  "sourceName": "contracts/Fellowship.sol",
  "abi": [
    {
      "inputs": [
        {
          "internalType": "address",
          "name": "_tellor",
          "type": "address"
        },
        {
          "internalType": "address[3]",
          "name": "_initialWalkers",
          "type": "address[3]"
        }
      ],
      "stateMutability": "nonpayable",
      "type": "constructor"
    },
    {
      "anonymous": false,
      "inputs": [
        {
          "indexed": false,
          "internalType": "address",
          "name": "walker",
          "type": "address"
        }
      ],
      "name": "NewWalker",
      "type": "event"
    },
    {
      "anonymous": false,
      "inputs": [
        {
          "indexed": false,
          "internalType": "address",
          "name": "walker",
          "type": "address"
        },
        {
          "indexed": false,
          "internalType": "bytes32",
          "name": "input",
          "type": "bytes32"
        },
        {
          "indexed": false,
          "internalType": "bytes",
          "name": "output",
          "type": "bytes"
        }
      ],
      "name": "NewWalkerInformation",
      "type": "event"
    },
    {
      "anonymous": false,
      "inputs": [
        {
          "indexed": false,
          "internalType": "address",
          "name": "walker",
          "type": "address"
        }
      ],
      "name": "WalkerBanished",
      "type": "event"
    },
    {
      "inputs": [
        {
          "internalType": "address",
          "name": "_oldWalker",
          "type": "address"
        }
      ],
      "name": "banishWalker",
      "outputs": [],
      "stateMutability": "nonpayable",
      "type": "function"
    },
    {
      "inputs": [],
      "name": "calculatereward",
      "outputs": [],
      "stateMutability": "nonpayable",
      "type": "function"
    },
    {
      "inputs": [
        {
          "internalType": "uint256",
          "name": "_amount",
          "type": "uint256"
        }
      ],
      "name": "depositPayment",
      "outputs": [],
      "stateMutability": "nonpayable",
      "type": "function"
    },
    {
      "inputs": [
        {
          "internalType": "uint256",
          "name": "_amount",
          "type": "uint256"
        }
      ],
      "name": "depositStake",
      "outputs": [],
      "stateMutability": "nonpayable",
      "type": "function"
    },
    {
      "inputs": [
        {
          "internalType": "uint256",
          "name": "",
          "type": "uint256"
        }
      ],
      "name": "fellowship",
      "outputs": [
        {
          "internalType": "address",
          "name": "",
          "type": "address"
        }
      ],
      "stateMutability": "view",
      "type": "function"
    },
    {
      "inputs": [],
      "name": "fellowshipSize",
      "outputs": [
        {
          "internalType": "uint256",
          "name": "",
          "type": "uint256"
        }
      ],
      "stateMutability": "view",
      "type": "function"
    },
    {
      "inputs": [
        {
          "internalType": "address",
          "name": "_walker",
          "type": "address"
        }
      ],
      "name": "getWalkerDetails",
      "outputs": [
        {
          "internalType": "uint256",
          "name": "",
          "type": "uint256"
        },
        {
          "internalType": "uint256",
          "name": "",
          "type": "uint256"
        },
        {
          "internalType": "enum Fellowship.Status",
          "name": "",
          "type": "uint8"
        },
        {
          "internalType": "string",
          "name": "",
          "type": "string"
        }
      ],
      "stateMutability": "view",
      "type": "function"
    },
    {
      "inputs": [
        {
          "internalType": "address",
          "name": "_walker",
          "type": "address"
        },
        {
          "internalType": "bytes32",
          "name": "_input",
          "type": "bytes32"
        }
      ],
      "name": "getWalkerInformation",
      "outputs": [
        {
          "internalType": "bytes",
          "name": "_output",
          "type": "bytes"
        }
      ],
      "stateMutability": "view",
      "type": "function"
    },
    {
      "inputs": [
        {
          "internalType": "address",
          "name": "_a",
          "type": "address"
        }
      ],
      "name": "isWalker",
      "outputs": [
        {
          "internalType": "bool",
          "name": "_i",
          "type": "bool"
        }
      ],
      "stateMutability": "view",
      "type": "function"
    },
    {
      "inputs": [],
      "name": "lastPayDate",
      "outputs": [
        {
          "internalType": "uint256",
          "name": "",
          "type": "uint256"
        }
      ],
      "stateMutability": "view",
      "type": "function"
    },
    {
      "inputs": [
        {
          "internalType": "address",
          "name": "_newRivendale",
          "type": "address"
        }
      ],
      "name": "newRivendale",
      "outputs": [],
      "stateMutability": "nonpayable",
      "type": "function"
    },
    {
      "inputs": [
        {
          "internalType": "address",
          "name": "_walker",
          "type": "address"
        },
        {
          "internalType": "string",
          "name": "_name",
          "type": "string"
        }
      ],
      "name": "newWalker",
      "outputs": [],
      "stateMutability": "nonpayable",
      "type": "function"
    },
    {
      "inputs": [
        {
          "internalType": "address",
          "name": "",
          "type": "address"
        }
      ],
      "name": "payments",
      "outputs": [
        {
          "internalType": "uint256",
          "name": "",
          "type": "uint256"
        }
      ],
      "stateMutability": "view",
      "type": "function"
    },
    {
      "inputs": [],
      "name": "recieveReward",
      "outputs": [],
      "stateMutability": "nonpayable",
      "type": "function"
    },
    {
      "inputs": [],
      "name": "requestStakingWithdraw",
      "outputs": [],
      "stateMutability": "nonpayable",
      "type": "function"
    },
    {
      "inputs": [],
      "name": "reward",
      "outputs": [
        {
          "internalType": "uint256",
          "name": "",
          "type": "uint256"
        }
      ],
      "stateMutability": "view",
      "type": "function"
    },
    {
      "inputs": [],
      "name": "rewardPool",
      "outputs": [
        {
          "internalType": "uint256",
          "name": "",
          "type": "uint256"
        }
      ],
      "stateMutability": "view",
      "type": "function"
    },
    {
      "inputs": [],
      "name": "rivendale",
      "outputs": [
        {
          "internalType": "address",
          "name": "",
          "type": "address"
        }
      ],
      "stateMutability": "view",
      "type": "function"
    },
    {
      "inputs": [
        {
          "internalType": "uint256",
          "name": "_amount",
          "type": "uint256"
        }
      ],
      "name": "setFellowshipSize",
      "outputs": [],
      "stateMutability": "nonpayable",
      "type": "function"
    },
    {
      "inputs": [
        {
          "internalType": "uint256",
          "name": "_amount",
          "type": "uint256"
        }
      ],
      "name": "setStakeAmount",
      "outputs": [],
      "stateMutability": "nonpayable",
      "type": "function"
    },
    {
      "inputs": [
        {
          "internalType": "bytes32",
          "name": "_input",
          "type": "bytes32"
        },
        {
          "internalType": "bytes",
          "name": "_output",
          "type": "bytes"
        }
      ],
      "name": "setWalkerInformation",
      "outputs": [],
      "stateMutability": "nonpayable",
      "type": "function"
    },
    {
      "inputs": [
        {
          "internalType": "address",
          "name": "_walker",
          "type": "address"
        },
        {
          "internalType": "uint256",
          "name": "_amount",
          "type": "uint256"
        },
        {
          "internalType": "bool",
          "name": "_banish",
          "type": "bool"
        }
      ],
      "name": "slashWalker",
      "outputs": [],
      "stateMutability": "nonpayable",
      "type": "function"
    },
    {
      "inputs": [],
      "name": "stakeAmount",
      "outputs": [
        {
          "internalType": "uint256",
          "name": "",
          "type": "uint256"
        }
      ],
      "stateMutability": "view",
      "type": "function"
    },
    {
      "inputs": [],
      "name": "tellor",
      "outputs": [
        {
          "internalType": "address",
          "name": "",
          "type": "address"
        }
      ],
      "stateMutability": "view",
      "type": "function"
    },
    {
      "inputs": [
        {
          "internalType": "address",
          "name": "",
          "type": "address"
        }
      ],
      "name": "walkers",
      "outputs": [
        {
          "internalType": "enum Fellowship.Status",
          "name": "status",
          "type": "uint8"
        },
        {
          "internalType": "uint256",
          "name": "date",
          "type": "uint256"
        },
        {
          "internalType": "uint256",
          "name": "fellowshipIndex",
          "type": "uint256"
        },
        {
          "internalType": "uint256",
          "name": "balance",
          "type": "uint256"
        },
        {
          "internalType": "uint256",
          "name": "rewardBalance",
          "type": "uint256"
        },
        {
          "internalType": "string",
          "name": "name",
          "type": "string"
        }
      ],
      "stateMutability": "view",
      "type": "function"
    },
    {
      "inputs": [],
      "name": "withdrawStake",
      "outputs": [],
      "stateMutability": "nonpayable",
      "type": "function"
    }
  ],
  "bytecode": "0x60806040523480156200001157600080fd5b50604051620039bf380380620039bf8339818101604052810190620000379190620005ce565b81600660006101000a81548173ffffffffffffffffffffffffffffffffffffffff021916908373ffffffffffffffffffffffffffffffffffffffff16021790555060036004819055506200010681600060038110620000bf577f4e487b7100000000000000000000000000000000000000000000000000000000600052603260045260246000fd5b60200201516040518060400160405280600781526020017f417261676f726e000000000000000000000000000000000000000000000000008152506200022960201b60201c565b6200018c8160016003811062000145577f4e487b7100000000000000000000000000000000000000000000000000000000600052603260045260246000fd5b60200201516040518060400160405280600781526020017f4c65676f6c6173000000000000000000000000000000000000000000000000008152506200022960201b60201c565b6200021281600260038110620001cb577f4e487b7100000000000000000000000000000000000000000000000000000000600052603260045260246000fd5b60200201516040518060400160405280600581526020017f47696d6c690000000000000000000000000000000000000000000000000000008152506200022960201b60201c565b678ac7230489e80000600381905550505062000865565b600454600a805490501062000275576040517f08c379a00000000000000000000000000000000000000000000000000000000081526004016200026c906200067f565b60405180910390fd5b600a829080600181540180825580915050600190039060005260206000200160009091909190916101000a81548173ffffffffffffffffffffffffffffffffffffffff021916908373ffffffffffffffffffffffffffffffffffffffff1602179055506040518060c00160405280600360048111156200031e577f4e487b7100000000000000000000000000000000000000000000000000000000600052602160045260246000fd5b81526020014281526020016001600a805490506200033d91906200070f565b8152602001600081526020016000815260200182815250600860008473ffffffffffffffffffffffffffffffffffffffff1673ffffffffffffffffffffffffffffffffffffffff16815260200190815260200160002060008201518160000160006101000a81548160ff02191690836004811115620003e5577f4e487b7100000000000000000000000000000000000000000000000000000000600052602160045260246000fd5b02179055506020820151816001015560408201518160020155606082015181600301556080820151816004015560a08201518160050190805190602001906200043092919062000471565b509050507fead7e53082360d92e83a064e3ece44b1e729404ce32d71befd18587c6c7772778260405162000465919062000662565b60405180910390a15050565b8280546200047f9062000788565b90600052602060002090601f016020900481019282620004a35760008555620004ef565b82601f10620004be57805160ff1916838001178555620004ef565b82800160010185558215620004ef579182015b82811115620004ee578251825591602001919060010190620004d1565b5b509050620004fe919062000502565b5090565b5b808211156200051d57600081600090555060010162000503565b5090565b6000620005386200053284620006d5565b620006a1565b905080828560208602820111156200054f57600080fd5b60005b858110156200058357816200056888826200058d565b84526020840193506020830192505060018101905062000552565b5050509392505050565b6000815190506200059e816200084b565b92915050565b600082601f830112620005b657600080fd5b6003620005c584828562000521565b91505092915050565b60008060808385031215620005e257600080fd5b6000620005f2858286016200058d565b92505060206200060585828601620005a4565b9150509250929050565b6200061a816200074a565b82525050565b60006200062f601a83620006fe565b91507f46656c6c6f777368697020697320616c72656164792046756c6c0000000000006000830152602082019050919050565b60006020820190506200067960008301846200060f565b92915050565b600060208201905081810360008301526200069a8162000620565b9050919050565b6000604051905081810181811067ffffffffffffffff82111715620006cb57620006ca6200081c565b5b8060405250919050565b600067ffffffffffffffff821115620006f357620006f26200081c565b5b602082029050919050565b600082825260208201905092915050565b60006200071c826200077e565b915062000729836200077e565b9250828210156200073f576200073e620007be565b5b828203905092915050565b600062000757826200075e565b9050919050565b600073ffffffffffffffffffffffffffffffffffffffff82169050919050565b6000819050919050565b60006002820490506001821680620007a157607f821691505b60208210811415620007b857620007b7620007ed565b5b50919050565b7f4e487b7100000000000000000000000000000000000000000000000000000000600052601160045260246000fd5b7f4e487b7100000000000000000000000000000000000000000000000000000000600052602260045260246000fd5b7f4e487b7100000000000000000000000000000000000000000000000000000000600052604160045260246000fd5b62000856816200074a565b81146200086257600080fd5b50565b61314a80620008756000396000f3fe608060405234801561001057600080fd5b506004361061018e5760003560e01c806360c7dc47116100de578063bc49ee1d11610097578063cb82cc8f11610071578063cb82cc8f1461043d578063e2982c2114610459578063e2a9cb6014610489578063f807c468146104a75761018e565b8063bc49ee1d1461040d578063bed9d86114610417578063c7e061bb146104215761018e565b806360c7dc471461033657806366666aa9146103545780636b749c4714610372578063751d03341461038e57806379a4ab51146103be578063abf4f44a146103da5761018e565b8063228cb7331161014b5780633bc3f5de116101255780633bc3f5de146102b05780633d9a7fdb146102ce57806343808c50146102ea5780634df260d7146103065761018e565b8063228cb7331461026c57806328449c3a1461028a5780633006474f146102945761018e565b80630152be741461019357806311bd8100146101b15780631959ad5b146101cd5780631bb6e2cd146101eb5780631cc29e191461021b578063217db0a414610237575b600080fd5b61019b6104b1565b6040516101a89190612c2f565b60405180910390f35b6101cb60048036038101906101c6919061263f565b6104b7565b005b6101d56105ae565b6040516101e29190612a11565b60405180910390f35b6102056004803603810190610200919061275f565b6105d4565b6040516102129190612a11565b60405180910390f35b610235600480360381019061023091906125da565b610613565b005b610251600480360381019061024c91906125da565b610740565b60405161026396959493929190612b07565b60405180910390f35b610274610811565b6040516102819190612c2f565b60405180910390f35b610292610817565b005b6102ae60048036038101906102a9919061275f565b6109f4565b005b6102b8610ae7565b6040516102c59190612c2f565b60405180910390f35b6102e860048036038101906102e391906125da565b610aed565b005b61030460048036038101906102ff919061275f565b610ddc565b005b610320600480360381019061031b91906125da565b610ecf565b60405161032d9190612aca565b60405180910390f35b61033e610fab565b60405161034b9190612c2f565b60405180910390f35b61035c610fb1565b6040516103699190612c2f565b60405180910390f35b61038c6004803603810190610387919061275f565b610fb7565b005b6103a860048036038101906103a39190612603565b611123565b6040516103b59190612ae5565b60405180910390f35b6103d860048036038101906103d3919061270b565b611206565b005b6103f460048036038101906103ef91906125da565b6112aa565b6040516104049493929190612c4a565b60405180910390f35b610415611464565b005b61041f611574565b005b61043b60048036038101906104369190612693565b6118de565b005b6104576004803603810190610452919061275f565b611b13565b005b610473600480360381019061046e91906125da565b611f04565b6040516104809190612c2f565b60405180910390f35b610491611f1c565b60405161049e9190612a11565b60405180910390f35b6104af611f42565b005b60045481565b600560009054906101000a900473ffffffffffffffffffffffffffffffffffffffff1673ffffffffffffffffffffffffffffffffffffffff163373ffffffffffffffffffffffffffffffffffffffff1614806105615750600073ffffffffffffffffffffffffffffffffffffffff16600560009054906101000a900473ffffffffffffffffffffffffffffffffffffffff1673ffffffffffffffffffffffffffffffffffffffff16145b6105a0576040517f08c379a000000000000000000000000000000000000000000000000000000000815260040161059790612bcf565b60405180910390fd5b6105aa828261213b565b5050565b600660009054906101000a900473ffffffffffffffffffffffffffffffffffffffff1681565b600a81815481106105e457600080fd5b906000526020600020016000915054906101000a900473ffffffffffffffffffffffffffffffffffffffff1681565b600560009054906101000a900473ffffffffffffffffffffffffffffffffffffffff1673ffffffffffffffffffffffffffffffffffffffff163373ffffffffffffffffffffffffffffffffffffffff1614806106bd5750600073ffffffffffffffffffffffffffffffffffffffff16600560009054906101000a900473ffffffffffffffffffffffffffffffffffffffff1673ffffffffffffffffffffffffffffffffffffffff16145b6106fc576040517f08c379a00000000000000000000000000000000000000000000000000000000081526004016106f390612bcf565b60405180910390fd5b80600560006101000a81548173ffffffffffffffffffffffffffffffffffffffff021916908373ffffffffffffffffffffffffffffffffffffffff16021790555050565b60086020528060005260406000206000915090508060000160009054906101000a900460ff169080600101549080600201549080600301549080600401549080600501805461078e90612f2d565b80601f01602080910402602001604051908101604052809291908181526020018280546107ba90612f2d565b80156108075780601f106107dc57610100808354040283529160200191610807565b820191906000526020600020905b8154815290600101906020018083116107ea57829003601f168201915b5050505050905086565b60025481565b60006004811115610851577f4e487b7100000000000000000000000000000000000000000000000000000000600052602160045260246000fd5b600860003373ffffffffffffffffffffffffffffffffffffffff1673ffffffffffffffffffffffffffffffffffffffff16815260200190815260200160002060000160009054906101000a900460ff1660048111156108d9577f4e487b7100000000000000000000000000000000000000000000000000000000600052602160045260246000fd5b141561091a576040517f08c379a000000000000000000000000000000000000000000000000000000000815260040161091190612c0f565b60405180910390fd5b6002600860003373ffffffffffffffffffffffffffffffffffffffff1673ffffffffffffffffffffffffffffffffffffffff16815260200190815260200160002060000160006101000a81548160ff021916908360048111156109a6577f4e487b7100000000000000000000000000000000000000000000000000000000600052602160045260246000fd5b021790555042600860003373ffffffffffffffffffffffffffffffffffffffff1673ffffffffffffffffffffffffffffffffffffffff16815260200190815260200160002060010181905550565b600560009054906101000a900473ffffffffffffffffffffffffffffffffffffffff1673ffffffffffffffffffffffffffffffffffffffff163373ffffffffffffffffffffffffffffffffffffffff161480610a9e5750600073ffffffffffffffffffffffffffffffffffffffff16600560009054906101000a900473ffffffffffffffffffffffffffffffffffffffff1673ffffffffffffffffffffffffffffffffffffffff16145b610add576040517f08c379a0000000000000000000000000000000000000000000000000000000008152600401610ad490612bcf565b60405180910390fd5b8060048190555050565b60005481565b3073ffffffffffffffffffffffffffffffffffffffff163373ffffffffffffffffffffffffffffffffffffffff161480610b745750600560009054906101000a900473ffffffffffffffffffffffffffffffffffffffff1673ffffffffffffffffffffffffffffffffffffffff163373ffffffffffffffffffffffffffffffffffffffff16145b610bb3576040517f08c379a0000000000000000000000000000000000000000000000000000000008152600401610baa90612b6f565b60405180910390fd5b600a6001600a80549050610bc79190612e40565b81548110610bfe577f4e487b7100000000000000000000000000000000000000000000000000000000600052603260045260246000fd5b9060005260206000200160009054906101000a900473ffffffffffffffffffffffffffffffffffffffff16600a600860008473ffffffffffffffffffffffffffffffffffffffff1673ffffffffffffffffffffffffffffffffffffffff1681526020019081526020016000206002015481548110610ca5577f4e487b7100000000000000000000000000000000000000000000000000000000600052603260045260246000fd5b9060005260206000200160006101000a81548173ffffffffffffffffffffffffffffffffffffffff021916908373ffffffffffffffffffffffffffffffffffffffff160217905550600a805480610d25577f4e487b7100000000000000000000000000000000000000000000000000000000600052603160045260246000fd5b6001900381819060005260206000200160006101000a81549073ffffffffffffffffffffffffffffffffffffffff021916905590556000600860008373ffffffffffffffffffffffffffffffffffffffff1673ffffffffffffffffffffffffffffffffffffffff168152602001908152602001600020600201819055507fac76dcc3aa3f5c914cd11efd9783db7b9f5522ad811eca79bbe2d719bb74788a81604051610dd19190612a11565b60405180910390a150565b600560009054906101000a900473ffffffffffffffffffffffffffffffffffffffff1673ffffffffffffffffffffffffffffffffffffffff163373ffffffffffffffffffffffffffffffffffffffff161480610e865750600073ffffffffffffffffffffffffffffffffffffffff16600560009054906101000a900473ffffffffffffffffffffffffffffffffffffffff1673ffffffffffffffffffffffffffffffffffffffff16145b610ec5576040517f08c379a0000000000000000000000000000000000000000000000000000000008152600401610ebc90612bcf565b60405180910390fd5b8060038190555050565b6000806004811115610f0a577f4e487b7100000000000000000000000000000000000000000000000000000000600052602160045260246000fd5b600860008473ffffffffffffffffffffffffffffffffffffffff1673ffffffffffffffffffffffffffffffffffffffff16815260200190815260200160002060000160009054906101000a900460ff166004811115610f92577f4e487b7100000000000000000000000000000000000000000000000000000000600052602160045260246000fd5b1415610fa15760019050610fa6565b600090505b919050565b60035481565b60015481565b600660009054906101000a900473ffffffffffffffffffffffffffffffffffffffff1673ffffffffffffffffffffffffffffffffffffffff166323b872dd3330846040518463ffffffff1660e01b815260040161101693929190612a2c565b602060405180830381600087803b15801561103057600080fd5b505af1158015611044573d6000803e3d6000fd5b505050506040513d601f19601f8201168201806040525081019061106891906126e2565b5080600960003373ffffffffffffffffffffffffffffffffffffffff1673ffffffffffffffffffffffffffffffffffffffff16815260200190815260200160002060008282546110b89190612d5f565b9250508190555080600160008282546110d19190612d5f565b9250508190555060045462278d006006600054426110ef9190612e40565b6001546110fc9190612de6565b6111069190612db5565b6111109190612de6565b61111a9190612db5565b60028190555050565b6060600760008473ffffffffffffffffffffffffffffffffffffffff1673ffffffffffffffffffffffffffffffffffffffff1681526020019081526020016000206000838152602001908152602001600020805461118090612f2d565b80601f01602080910402602001604051908101604052809291908181526020018280546111ac90612f2d565b80156111f95780601f106111ce576101008083540402835291602001916111f9565b820191906000526020600020905b8154815290600101906020018083116111dc57829003601f168201915b5050505050905092915050565b80600760003373ffffffffffffffffffffffffffffffffffffffff1673ffffffffffffffffffffffffffffffffffffffff1681526020019081526020016000206000848152602001908152602001600020908051906020019061126a929190612378565b507f3c4a87d301ea6075e9b1efeee0b9d746feffe2294183c22a12e845df3e3a8edf33838360405161129e93929190612a63565b60405180910390a15050565b60008060006060600860008673ffffffffffffffffffffffffffffffffffffffff1673ffffffffffffffffffffffffffffffffffffffff16815260200190815260200160002060010154600860008773ffffffffffffffffffffffffffffffffffffffff1673ffffffffffffffffffffffffffffffffffffffff16815260200190815260200160002060020154600860008873ffffffffffffffffffffffffffffffffffffffff1673ffffffffffffffffffffffffffffffffffffffff16815260200190815260200160002060000160009054906101000a900460ff16600860008973ffffffffffffffffffffffffffffffffffffffff1673ffffffffffffffffffffffffffffffffffffffff1681526020019081526020016000206005018080546113d590612f2d565b80601f016020809104026020016040519081016040528092919081815260200182805461140190612f2d565b801561144e5780601f106114235761010080835404028352916020019161144e565b820191906000526020600020905b81548152906001019060200180831161143157829003601f168201915b5050505050905093509350935093509193509193565b60005b600a805490508110156115465760025460086000600a84815481106114b5577f4e487b7100000000000000000000000000000000000000000000000000000000600052603260045260246000fd5b9060005260206000200160009054906101000a900473ffffffffffffffffffffffffffffffffffffffff1673ffffffffffffffffffffffffffffffffffffffff1673ffffffffffffffffffffffffffffffffffffffff168152602001908152602001600020600401600082825461152c9190612d5f565b92505081905550808061153e90612f5f565b915050611467565b50600a8054905060025461155a9190612de6565b6001600082825461156b9190612e40565b92505081905550565b600260048111156115ae577f4e487b7100000000000000000000000000000000000000000000000000000000600052602160045260246000fd5b600860003373ffffffffffffffffffffffffffffffffffffffff1673ffffffffffffffffffffffffffffffffffffffff16815260200190815260200160002060000160009054906101000a900460ff166004811115611636577f4e487b7100000000000000000000000000000000000000000000000000000000600052602160045260246000fd5b14611676576040517f08c379a000000000000000000000000000000000000000000000000000000000815260040161166d90612b8f565b60405180910390fd5b62127500600860003373ffffffffffffffffffffffffffffffffffffffff1673ffffffffffffffffffffffffffffffffffffffff16815260200190815260200160002060010154426116c89190612e40565b11611708576040517f08c379a00000000000000000000000000000000000000000000000000000000081526004016116ff90612bef565b60405180910390fd5b600660009054906101000a900473ffffffffffffffffffffffffffffffffffffffff1673ffffffffffffffffffffffffffffffffffffffff1663a9059cbb33600860003373ffffffffffffffffffffffffffffffffffffffff1673ffffffffffffffffffffffffffffffffffffffff168152602001908152602001600020600301546040518363ffffffff1660e01b81526004016117a7929190612aa1565b602060405180830381600087803b1580156117c157600080fd5b505af11580156117d5573d6000803e3d6000fd5b505050506040513d601f19601f820116820180604052508101906117f991906126e2565b506004600860003373ffffffffffffffffffffffffffffffffffffffff1673ffffffffffffffffffffffffffffffffffffffff16815260200190815260200160002060000160006101000a81548160ff02191690836004811115611886577f4e487b7100000000000000000000000000000000000000000000000000000000600052602160045260246000fd5b02179055506000600860003373ffffffffffffffffffffffffffffffffffffffff1673ffffffffffffffffffffffffffffffffffffffff168152602001908152602001600020600301819055506118dc33610aed565b565b600560009054906101000a900473ffffffffffffffffffffffffffffffffffffffff1673ffffffffffffffffffffffffffffffffffffffff163373ffffffffffffffffffffffffffffffffffffffff1614806119885750600073ffffffffffffffffffffffffffffffffffffffff16600560009054906101000a900473ffffffffffffffffffffffffffffffffffffffff1673ffffffffffffffffffffffffffffffffffffffff16145b6119c7576040517f08c379a00000000000000000000000000000000000000000000000000000000081526004016119be90612bcf565b60405180910390fd5b81600860008573ffffffffffffffffffffffffffffffffffffffff1673ffffffffffffffffffffffffffffffffffffffff1681526020019081526020016000206003016000828254611a199190612e40565b92505081905550600354600860008573ffffffffffffffffffffffffffffffffffffffff1673ffffffffffffffffffffffffffffffffffffffff168152602001908152602001600020600301541015611afe576001600860008573ffffffffffffffffffffffffffffffffffffffff1673ffffffffffffffffffffffffffffffffffffffff16815260200190815260200160002060000160006101000a81548160ff02191690836004811115611af8577f4e487b7100000000000000000000000000000000000000000000000000000000600052602160045260246000fd5b02179055505b8015611b0e57611b0d83610aed565b5b505050565b600660009054906101000a900473ffffffffffffffffffffffffffffffffffffffff1673ffffffffffffffffffffffffffffffffffffffff166323b872dd3330846040518463ffffffff1660e01b8152600401611b7293929190612a2c565b602060405180830381600087803b158015611b8c57600080fd5b505af1158015611ba0573d6000803e3d6000fd5b505050506040513d601f19601f82011682018060405250810190611bc491906126e2565b5080600860003373ffffffffffffffffffffffffffffffffffffffff1673ffffffffffffffffffffffffffffffffffffffff1681526020019081526020016000206003016000828254611c179190612d5f565b9250508190555060016004811115611c58577f4e487b7100000000000000000000000000000000000000000000000000000000600052602160045260246000fd5b600860003373ffffffffffffffffffffffffffffffffffffffff1673ffffffffffffffffffffffffffffffffffffffff16815260200190815260200160002060000160009054906101000a900460ff166004811115611ce0577f4e487b7100000000000000000000000000000000000000000000000000000000600052602160045260246000fd5b1415611d21576040517f08c379a0000000000000000000000000000000000000000000000000000000008152600401611d1890612c0f565b60405180910390fd5b60026004811115611d5b577f4e487b7100000000000000000000000000000000000000000000000000000000600052602160045260246000fd5b600860003373ffffffffffffffffffffffffffffffffffffffff1673ffffffffffffffffffffffffffffffffffffffff16815260200190815260200160002060000160009054906101000a900460ff166004811115611de3577f4e487b7100000000000000000000000000000000000000000000000000000000600052602160045260246000fd5b1415611e24576040517f08c379a0000000000000000000000000000000000000000000000000000000008152600401611e1b90612c0f565b60405180910390fd5b600354600860003373ffffffffffffffffffffffffffffffffffffffff1673ffffffffffffffffffffffffffffffffffffffff1681526020019081526020016000206003015410611f01576000600860003373ffffffffffffffffffffffffffffffffffffffff1673ffffffffffffffffffffffffffffffffffffffff16815260200190815260200160002060000160006101000a81548160ff02191690836004811115611efb577f4e487b7100000000000000000000000000000000000000000000000000000000600052602160045260246000fd5b02179055505b50565b60096020528060005260406000206000915090505481565b600560009054906101000a900473ffffffffffffffffffffffffffffffffffffffff1681565b60006004811115611f7c577f4e487b7100000000000000000000000000000000000000000000000000000000600052602160045260246000fd5b600860003373ffffffffffffffffffffffffffffffffffffffff1673ffffffffffffffffffffffffffffffffffffffff16815260200190815260200160002060000160009054906101000a900460ff166004811115612004577f4e487b7100000000000000000000000000000000000000000000000000000000600052602160045260246000fd5b1415612045576040517f08c379a000000000000000000000000000000000000000000000000000000000815260040161203c90612c0f565b60405180910390fd5b600660009054906101000a900473ffffffffffffffffffffffffffffffffffffffff1673ffffffffffffffffffffffffffffffffffffffff166323b872dd3330600860003373ffffffffffffffffffffffffffffffffffffffff1673ffffffffffffffffffffffffffffffffffffffff168152602001908152602001600020600401546040518463ffffffff1660e01b81526004016120e693929190612a2c565b602060405180830381600087803b15801561210057600080fd5b505af1158015612114573d6000803e3d6000fd5b505050506040513d601f19601f8201168201806040525081019061213891906126e2565b50565b600454600a8054905010612184576040517f08c379a000000000000000000000000000000000000000000000000000000000815260040161217b90612baf565b60405180910390fd5b600a829080600181540180825580915050600190039060005260206000200160009091909190916101000a81548173ffffffffffffffffffffffffffffffffffffffff021916908373ffffffffffffffffffffffffffffffffffffffff1602179055506040518060c001604052806003600481111561222c577f4e487b7100000000000000000000000000000000000000000000000000000000600052602160045260246000fd5b81526020014281526020016001600a805490506122499190612e40565b8152602001600081526020016000815260200182815250600860008473ffffffffffffffffffffffffffffffffffffffff1673ffffffffffffffffffffffffffffffffffffffff16815260200190815260200160002060008201518160000160006101000a81548160ff021916908360048111156122f0577f4e487b7100000000000000000000000000000000000000000000000000000000600052602160045260246000fd5b02179055506020820151816001015560408201518160020155606082015181600301556080820151816004015560a08201518160050190805190602001906123399291906123fe565b509050507fead7e53082360d92e83a064e3ece44b1e729404ce32d71befd18587c6c7772778260405161236c9190612a11565b60405180910390a15050565b82805461238490612f2d565b90600052602060002090601f0160209004810192826123a657600085556123ed565b82601f106123bf57805160ff19168380011785556123ed565b828001600101855582156123ed579182015b828111156123ec5782518255916020019190600101906123d1565b5b5090506123fa9190612484565b5090565b82805461240a90612f2d565b90600052602060002090601f01602090048101928261242c5760008555612473565b82601f1061244557805160ff1916838001178555612473565b82800160010185558215612473579182015b82811115612472578251825591602001919060010190612457565b5b5090506124809190612484565b5090565b5b8082111561249d576000816000905550600101612485565b5090565b60006124b46124af84612cc7565b612c96565b9050828152602081018484840111156124cc57600080fd5b6124d7848285612eeb565b509392505050565b60006124f26124ed84612cf7565b612c96565b90508281526020810184848401111561250a57600080fd5b612515848285612eeb565b509392505050565b60008135905061252c816130b8565b92915050565b600081359050612541816130cf565b92915050565b600081519050612556816130cf565b92915050565b60008135905061256b816130e6565b92915050565b600082601f83011261258257600080fd5b81356125928482602086016124a1565b91505092915050565b600082601f8301126125ac57600080fd5b81356125bc8482602086016124df565b91505092915050565b6000813590506125d4816130fd565b92915050565b6000602082840312156125ec57600080fd5b60006125fa8482850161251d565b91505092915050565b6000806040838503121561261657600080fd5b60006126248582860161251d565b92505060206126358582860161255c565b9150509250929050565b6000806040838503121561265257600080fd5b60006126608582860161251d565b925050602083013567ffffffffffffffff81111561267d57600080fd5b6126898582860161259b565b9150509250929050565b6000806000606084860312156126a857600080fd5b60006126b68682870161251d565b93505060206126c7868287016125c5565b92505060406126d886828701612532565b9150509250925092565b6000602082840312156126f457600080fd5b600061270284828501612547565b91505092915050565b6000806040838503121561271e57600080fd5b600061272c8582860161255c565b925050602083013567ffffffffffffffff81111561274957600080fd5b61275585828601612571565b9150509250929050565b60006020828403121561277157600080fd5b600061277f848285016125c5565b91505092915050565b61279181612e74565b82525050565b6127a081612e86565b82525050565b6127af81612e92565b82525050565b60006127c082612d27565b6127ca8185612d3d565b93506127da818560208601612efa565b6127e381613093565b840191505092915050565b6127f781612ed9565b82525050565b600061280882612d32565b6128128185612d4e565b9350612822818560208601612efa565b61282b81613093565b840191505092915050565b6000612843601983612d4e565b91507f57616c6b65722063616e6e6f742062652062616e6973686564000000000000006000830152602082019050919050565b6000612883601783612d4e565b91507f77616c6b6572206861732077726f6e67207374617475730000000000000000006000830152602082019050919050565b60006128c3601a83612d4e565b91507f46656c6c6f777368697020697320616c72656164792046756c6c0000000000006000830152602082019050919050565b6000612903602683612d4e565b91507f4f6e6c7920726976656e64616c652063616e2063616c6c20746869732066756e60008301527f6374696f6e2e00000000000000000000000000000000000000000000000000006020830152604082019050919050565b6000612969602483612d4e565b91507f686173206e6f74206265656e206c6f6e6720656e6f75676820746f207769746860008301527f64726177000000000000000000000000000000000000000000000000000000006020830152604082019050919050565b60006129cf601783612d4e565b91507f57616c6b6572206861732077726f6e67207374617475730000000000000000006000830152602082019050919050565b612a0b81612ecf565b82525050565b6000602082019050612a266000830184612788565b92915050565b6000606082019050612a416000830186612788565b612a4e6020830185612788565b612a5b6040830184612a02565b949350505050565b6000606082019050612a786000830186612788565b612a8560208301856127a6565b8181036040830152612a9781846127b5565b9050949350505050565b6000604082019050612ab66000830185612788565b612ac36020830184612a02565b9392505050565b6000602082019050612adf6000830184612797565b92915050565b60006020820190508181036000830152612aff81846127b5565b905092915050565b600060c082019050612b1c60008301896127ee565b612b296020830188612a02565b612b366040830187612a02565b612b436060830186612a02565b612b506080830185612a02565b81810360a0830152612b6281846127fd565b9050979650505050505050565b60006020820190508181036000830152612b8881612836565b9050919050565b60006020820190508181036000830152612ba881612876565b9050919050565b60006020820190508181036000830152612bc8816128b6565b9050919050565b60006020820190508181036000830152612be8816128f6565b9050919050565b60006020820190508181036000830152612c088161295c565b9050919050565b60006020820190508181036000830152612c28816129c2565b9050919050565b6000602082019050612c446000830184612a02565b92915050565b6000608082019050612c5f6000830187612a02565b612c6c6020830186612a02565b612c7960408301856127ee565b8181036060830152612c8b81846127fd565b905095945050505050565b6000604051905081810181811067ffffffffffffffff82111715612cbd57612cbc613064565b5b8060405250919050565b600067ffffffffffffffff821115612ce257612ce1613064565b5b601f19601f8301169050602081019050919050565b600067ffffffffffffffff821115612d1257612d11613064565b5b601f19601f8301169050602081019050919050565b600081519050919050565b600081519050919050565b600082825260208201905092915050565b600082825260208201905092915050565b6000612d6a82612ecf565b9150612d7583612ecf565b9250827fffffffffffffffffffffffffffffffffffffffffffffffffffffffffffffffff03821115612daa57612da9612fa8565b5b828201905092915050565b6000612dc082612ecf565b9150612dcb83612ecf565b925082612ddb57612dda612fd7565b5b828204905092915050565b6000612df182612ecf565b9150612dfc83612ecf565b9250817fffffffffffffffffffffffffffffffffffffffffffffffffffffffffffffffff0483118215151615612e3557612e34612fa8565b5b828202905092915050565b6000612e4b82612ecf565b9150612e5683612ecf565b925082821015612e6957612e68612fa8565b5b828203905092915050565b6000612e7f82612eaf565b9050919050565b60008115159050919050565b6000819050919050565b6000819050612eaa826130a4565b919050565b600073ffffffffffffffffffffffffffffffffffffffff82169050919050565b6000819050919050565b6000612ee482612e9c565b9050919050565b82818337600083830152505050565b60005b83811015612f18578082015181840152602081019050612efd565b83811115612f27576000848401525b50505050565b60006002820490506001821680612f4557607f821691505b60208210811415612f5957612f58613035565b5b50919050565b6000612f6a82612ecf565b91507fffffffffffffffffffffffffffffffffffffffffffffffffffffffffffffffff821415612f9d57612f9c612fa8565b5b600182019050919050565b7f4e487b7100000000000000000000000000000000000000000000000000000000600052601160045260246000fd5b7f4e487b7100000000000000000000000000000000000000000000000000000000600052601260045260246000fd5b7f4e487b7100000000000000000000000000000000000000000000000000000000600052602160045260246000fd5b7f4e487b7100000000000000000000000000000000000000000000000000000000600052602260045260246000fd5b7f4e487b7100000000000000000000000000000000000000000000000000000000600052604160045260246000fd5b6000601f19601f8301169050919050565b600581106130b5576130b4613006565b5b50565b6130c181612e74565b81146130cc57600080fd5b50565b6130d881612e86565b81146130e357600080fd5b50565b6130ef81612e92565b81146130fa57600080fd5b50565b61310681612ecf565b811461311157600080fd5b5056fea264697066735822122082863481c507db7d3b13189854e5670ccb02858a0b8e901df741d5da1a1f186c64736f6c63430008000033",
  "linkReferences": {},
  "deployedLinkReferences": {}
}