{
  "_format": "hh-sol-artifact-1",
  "contractName": "Fellowship",
  "sourceName": "contracts/Fellowship.sol",
  "abi": [
    {
      "inputs": [
        {
          "internalType": "address",
          "name": "_tellor",
          "type": "address"
        },
        {
          "internalType": "address[3]",
          "name": "_initialWalkers",
          "type": "address[3]"
        }
      ],
      "stateMutability": "nonpayable",
      "type": "constructor"
    },
    {
      "anonymous": false,
      "inputs": [
        {
          "indexed": false,
          "internalType": "address",
          "name": "walker",
          "type": "address"
        }
      ],
      "name": "NewWalker",
      "type": "event"
    },
    {
      "anonymous": false,
      "inputs": [
        {
          "indexed": false,
          "internalType": "address",
          "name": "walker",
          "type": "address"
        },
        {
          "indexed": false,
          "internalType": "bytes32",
          "name": "input",
          "type": "bytes32"
        },
        {
          "indexed": false,
          "internalType": "bytes",
          "name": "output",
          "type": "bytes"
        }
      ],
      "name": "NewWalkerInformation",
      "type": "event"
    },
    {
      "anonymous": false,
      "inputs": [
        {
          "indexed": false,
          "internalType": "address",
          "name": "payee",
          "type": "address"
        },
        {
          "indexed": false,
          "internalType": "uint256",
          "name": "amount",
          "type": "uint256"
        }
      ],
      "name": "PaymentDeposited",
      "type": "event"
    },
    {
      "anonymous": false,
      "inputs": [
        {
          "indexed": false,
          "internalType": "uint256",
          "name": "_rewardPerWalker",
          "type": "uint256"
        }
      ],
      "name": "RewardsPaid",
      "type": "event"
    },
    {
      "anonymous": false,
      "inputs": [
        {
          "indexed": false,
          "internalType": "address",
          "name": "walker",
          "type": "address"
        }
      ],
      "name": "StakeWithdrawalRequestStarted",
      "type": "event"
    },
    {
      "anonymous": false,
      "inputs": [
        {
          "indexed": false,
          "internalType": "address",
          "name": "walker",
          "type": "address"
        }
      ],
      "name": "StakeWithdrawn",
      "type": "event"
    },
    {
      "anonymous": false,
      "inputs": [
        {
          "indexed": false,
          "internalType": "address",
          "name": "walker",
          "type": "address"
        }
      ],
      "name": "WalkerBanished",
      "type": "event"
    },
    {
      "inputs": [
        {
          "internalType": "address",
          "name": "_oldWalker",
          "type": "address"
        }
      ],
      "name": "banishWalker",
      "outputs": [],
      "stateMutability": "nonpayable",
      "type": "function"
    },
    {
      "inputs": [],
      "name": "checkReward",
      "outputs": [
        {
          "internalType": "uint256",
          "name": "",
          "type": "uint256"
        }
      ],
      "stateMutability": "view",
      "type": "function"
    },
    {
      "inputs": [
        {
          "internalType": "uint256",
          "name": "_amount",
          "type": "uint256"
        }
      ],
      "name": "depositPayment",
      "outputs": [],
      "stateMutability": "nonpayable",
      "type": "function"
    },
    {
      "inputs": [
        {
          "internalType": "uint256",
          "name": "_amount",
          "type": "uint256"
        }
      ],
      "name": "depositStake",
      "outputs": [],
      "stateMutability": "nonpayable",
      "type": "function"
    },
    {
      "inputs": [
        {
          "internalType": "uint256",
          "name": "",
          "type": "uint256"
        }
      ],
      "name": "fellowship",
      "outputs": [
        {
          "internalType": "address",
          "name": "",
          "type": "address"
        }
      ],
      "stateMutability": "view",
      "type": "function"
    },
    {
      "inputs": [],
      "name": "getFellowshipSize",
      "outputs": [
        {
          "internalType": "uint256",
          "name": "",
          "type": "uint256"
        }
      ],
      "stateMutability": "view",
      "type": "function"
    },
    {
      "inputs": [
        {
          "internalType": "address",
          "name": "_walker",
          "type": "address"
        }
      ],
      "name": "getWalkerDetails",
      "outputs": [
        {
          "internalType": "uint256",
          "name": "",
          "type": "uint256"
        },
        {
          "internalType": "uint256",
          "name": "",
          "type": "uint256"
        },
        {
          "internalType": "enum Fellowship.Status",
          "name": "",
          "type": "uint8"
        },
        {
          "internalType": "uint256",
          "name": "",
          "type": "uint256"
        },
        {
          "internalType": "uint256",
          "name": "",
          "type": "uint256"
        },
        {
          "internalType": "string",
          "name": "",
          "type": "string"
        }
      ],
      "stateMutability": "view",
      "type": "function"
    },
    {
      "inputs": [
        {
          "internalType": "address",
          "name": "_walker",
          "type": "address"
        },
        {
          "internalType": "bytes32",
          "name": "_input",
          "type": "bytes32"
        }
      ],
      "name": "getWalkerInformation",
      "outputs": [
        {
          "internalType": "bytes",
          "name": "_output",
          "type": "bytes"
        }
      ],
      "stateMutability": "view",
      "type": "function"
    },
    {
      "inputs": [
        {
          "internalType": "address",
          "name": "_a",
          "type": "address"
        }
      ],
      "name": "isWalker",
      "outputs": [
        {
          "internalType": "bool",
          "name": "_i",
          "type": "bool"
        }
      ],
      "stateMutability": "view",
      "type": "function"
    },
    {
      "inputs": [],
      "name": "lastPayDate",
      "outputs": [
        {
          "internalType": "uint256",
          "name": "",
          "type": "uint256"
        }
      ],
      "stateMutability": "view",
      "type": "function"
    },
    {
      "inputs": [
        {
          "internalType": "address",
          "name": "_newRivendale",
          "type": "address"
        }
      ],
      "name": "newRivendale",
      "outputs": [],
      "stateMutability": "nonpayable",
      "type": "function"
    },
    {
      "inputs": [
        {
          "internalType": "address",
          "name": "_walker",
          "type": "address"
        },
        {
          "internalType": "string",
          "name": "_name",
          "type": "string"
        }
      ],
      "name": "newWalker",
      "outputs": [],
      "stateMutability": "nonpayable",
      "type": "function"
    },
    {
      "inputs": [],
      "name": "payReward",
      "outputs": [],
      "stateMutability": "nonpayable",
      "type": "function"
    },
    {
      "inputs": [
        {
          "internalType": "address",
          "name": "",
          "type": "address"
        }
      ],
      "name": "payments",
      "outputs": [
        {
          "internalType": "uint256",
          "name": "",
          "type": "uint256"
        }
      ],
      "stateMutability": "view",
      "type": "function"
    },
    {
      "inputs": [],
      "name": "recieveReward",
      "outputs": [],
      "stateMutability": "nonpayable",
      "type": "function"
    },
    {
      "inputs": [],
      "name": "requestStakingWithdraw",
      "outputs": [],
      "stateMutability": "nonpayable",
      "type": "function"
    },
    {
      "inputs": [],
      "name": "rewardPool",
      "outputs": [
        {
          "internalType": "uint256",
          "name": "",
          "type": "uint256"
        }
      ],
      "stateMutability": "view",
      "type": "function"
    },
    {
      "inputs": [],
      "name": "rivendale",
      "outputs": [
        {
          "internalType": "address",
          "name": "",
          "type": "address"
        }
      ],
      "stateMutability": "view",
      "type": "function"
    },
    {
      "inputs": [
        {
          "internalType": "uint256",
          "name": "_amount",
          "type": "uint256"
        }
      ],
      "name": "setStakeAmount",
      "outputs": [],
      "stateMutability": "nonpayable",
      "type": "function"
    },
    {
      "inputs": [
        {
          "internalType": "bytes32",
          "name": "_input",
          "type": "bytes32"
        },
        {
          "internalType": "bytes",
          "name": "_output",
          "type": "bytes"
        }
      ],
      "name": "setWalkerInformation",
      "outputs": [],
      "stateMutability": "nonpayable",
      "type": "function"
    },
    {
      "inputs": [
        {
          "internalType": "address",
          "name": "_walker",
          "type": "address"
        },
        {
          "internalType": "uint256",
          "name": "_amount",
          "type": "uint256"
        },
        {
          "internalType": "bool",
          "name": "_banish",
          "type": "bool"
        }
      ],
      "name": "slashWalker",
      "outputs": [],
      "stateMutability": "nonpayable",
      "type": "function"
    },
    {
      "inputs": [],
      "name": "stakeAmount",
      "outputs": [
        {
          "internalType": "uint256",
          "name": "",
          "type": "uint256"
        }
      ],
      "stateMutability": "view",
      "type": "function"
    },
    {
      "inputs": [],
      "name": "tellor",
      "outputs": [
        {
          "internalType": "address",
          "name": "",
          "type": "address"
        }
      ],
      "stateMutability": "view",
      "type": "function"
    },
    {
      "inputs": [
        {
          "internalType": "address",
          "name": "",
          "type": "address"
        }
      ],
      "name": "walkers",
      "outputs": [
        {
          "internalType": "enum Fellowship.Status",
          "name": "status",
          "type": "uint8"
        },
        {
          "internalType": "uint256",
          "name": "date",
          "type": "uint256"
        },
        {
          "internalType": "uint256",
          "name": "fellowshipIndex",
          "type": "uint256"
        },
        {
          "internalType": "uint256",
          "name": "balance",
          "type": "uint256"
        },
        {
          "internalType": "uint256",
          "name": "rewardBalance",
          "type": "uint256"
        },
        {
          "internalType": "string",
          "name": "name",
          "type": "string"
        }
      ],
      "stateMutability": "view",
      "type": "function"
    },
    {
      "inputs": [],
      "name": "withdrawStake",
      "outputs": [],
      "stateMutability": "nonpayable",
      "type": "function"
    }
  ],
  "bytecode": "0x60806040523480156200001157600080fd5b5060405162003c8438038062003c84833981810160405281019062000037919062000579565b81600460006101000a81548173ffffffffffffffffffffffffffffffffffffffff021916908373ffffffffffffffffffffffffffffffffffffffff160217905550620000fe81600060038110620000b7577f4e487b7100000000000000000000000000000000000000000000000000000000600052603260045260246000fd5b60200201516040518060400160405280600781526020017f417261676f726e000000000000000000000000000000000000000000000000008152506200022160201b60201c565b62000184816001600381106200013d577f4e487b7100000000000000000000000000000000000000000000000000000000600052603260045260246000fd5b60200201516040518060400160405280600781526020017f4c65676f6c6173000000000000000000000000000000000000000000000000008152506200022160201b60201c565b6200020a81600260038110620001c3577f4e487b7100000000000000000000000000000000000000000000000000000000600052603260045260246000fd5b60200201516040518060400160405280600581526020017f47696d6c690000000000000000000000000000000000000000000000000000008152506200022160201b60201c565b678ac7230489e8000060028190555050506200079b565b6008829080600181540180825580915050600190039060005260206000200160009091909190916101000a81548173ffffffffffffffffffffffffffffffffffffffff021916908373ffffffffffffffffffffffffffffffffffffffff1602179055506040518060c00160405280600380811115620002c9577f4e487b7100000000000000000000000000000000000000000000000000000000600052602160045260246000fd5b81526020014281526020016001600880549050620002e8919062000645565b8152602001600081526020016000815260200182815250600660008473ffffffffffffffffffffffffffffffffffffffff1673ffffffffffffffffffffffffffffffffffffffff16815260200190815260200160002060008201518160000160006101000a81548160ff0219169083600381111562000390577f4e487b7100000000000000000000000000000000000000000000000000000000600052602160045260246000fd5b02179055506020820151816001015560408201518160020155606082015181600301556080820151816004015560a0820151816005019080519060200190620003db9291906200041c565b509050507fead7e53082360d92e83a064e3ece44b1e729404ce32d71befd18587c6c77727782604051620004109190620005cb565b60405180910390a15050565b8280546200042a90620006be565b90600052602060002090601f0160209004810192826200044e57600085556200049a565b82601f106200046957805160ff19168380011785556200049a565b828001600101855582156200049a579182015b82811115620004995782518255916020019190600101906200047c565b5b509050620004a99190620004ad565b5090565b5b80821115620004c8576000816000905550600101620004ae565b5090565b6000620004e3620004dd846200061c565b620005e8565b90508082856020860282011115620004fa57600080fd5b60005b858110156200052e578162000513888262000538565b845260208401935060208301925050600181019050620004fd565b5050509392505050565b600081519050620005498162000781565b92915050565b600082601f8301126200056157600080fd5b600362000570848285620004cc565b91505092915050565b600080608083850312156200058d57600080fd5b60006200059d8582860162000538565b9250506020620005b0858286016200054f565b9150509250929050565b620005c58162000680565b82525050565b6000602082019050620005e26000830184620005ba565b92915050565b6000604051905081810181811067ffffffffffffffff8211171562000612576200061162000752565b5b8060405250919050565b600067ffffffffffffffff8211156200063a576200063962000752565b5b602082029050919050565b60006200065282620006b4565b91506200065f83620006b4565b925082821015620006755762000674620006f4565b5b828203905092915050565b60006200068d8262000694565b9050919050565b600073ffffffffffffffffffffffffffffffffffffffff82169050919050565b6000819050919050565b60006002820490506001821680620006d757607f821691505b60208210811415620006ee57620006ed62000723565b5b50919050565b7f4e487b7100000000000000000000000000000000000000000000000000000000600052601160045260246000fd5b7f4e487b7100000000000000000000000000000000000000000000000000000000600052602260045260246000fd5b7f4e487b7100000000000000000000000000000000000000000000000000000000600052604160045260246000fd5b6200078c8162000680565b81146200079857600080fd5b50565b6134d980620007ab6000396000f3fe608060405234801561001057600080fd5b50600436106101735760003560e01c80636b749c47116100de578063bed9d86111610097578063cb82cc8f11610071578063cb82cc8f14610408578063e2982c2114610424578063e2a9cb6014610454578063f807c4681461047257610173565b8063bed9d861146103c4578063c4b24a46146103ce578063c7e061bb146103ec57610173565b80636b749c47146102ff5780636c7575ae1461031b578063751d0334146103395780637842a3a41461036957806379a4ab5114610373578063abf4f44a1461038f57610173565b80633bc3f5de116101305780633bc3f5de1461023d5780633d9a7fdb1461025b57806343808c50146102775780634df260d71461029357806360c7dc47146102c357806366666aa9146102e157610173565b806311bd8100146101785780631959ad5b146101945780631bb6e2cd146101b25780631cc29e19146101e2578063217db0a4146101fe57806328449c3a14610233575b600080fd5b610192600480360381019061018d9190612a12565b61047c565b005b61019c61059f565b6040516101a99190612da4565b60405180910390f35b6101cc60048036038101906101c79190612b32565b6105c5565b6040516101d99190612da4565b60405180910390f35b6101fc60048036038101906101f791906129ad565b610604565b005b610218600480360381019061021391906129ad565b610731565b60405161022a96959493929190612e9a565b60405180910390f35b61023b610802565b005b610245610a16565b6040516102529190612fa2565b60405180910390f35b610275600480360381019061027091906129ad565b610a1c565b005b610291600480360381019061028c9190612b32565b610aef565b005b6102ad60048036038101906102a891906129ad565b610d53565b6040516102ba9190612e5d565b60405180910390f35b6102cb610e2f565b6040516102d89190612fa2565b60405180910390f35b6102e9610e35565b6040516102f69190612fa2565b60405180910390f35b61031960048036038101906103149190612b32565b610e3b565b005b610323610fb8565b6040516103309190612fa2565b60405180910390f35b610353600480360381019061034e91906129d6565b610fc5565b6040516103609190612e78565b60405180910390f35b6103716110a8565b005b61038d60048036038101906103889190612ade565b611253565b005b6103a960048036038101906103a491906129ad565b6112f7565b6040516103bb96959493929190612fbd565b60405180910390f35b6103cc611540565b005b6103d6611850565b6040516103e39190612fa2565b60405180910390f35b61040660048036038101906104019190612a66565b6118c7565b005b610422600480360381019061041d9190612b32565b611aa8565b005b61043e600480360381019061043991906129ad565b611e99565b60405161044b9190612fa2565b60405180910390f35b61045c611eb1565b6040516104699190612da4565b60405180910390f35b61047a611ed7565b005b600360009054906101000a900473ffffffffffffffffffffffffffffffffffffffff1673ffffffffffffffffffffffffffffffffffffffff163373ffffffffffffffffffffffffffffffffffffffff161461050c576040517f08c379a000000000000000000000000000000000000000000000000000000000815260040161050390612f22565b60405180910390fd5b6000600660008473ffffffffffffffffffffffffffffffffffffffff1673ffffffffffffffffffffffffffffffffffffffff1681526020019081526020016000206001015414610591576040517f08c379a000000000000000000000000000000000000000000000000000000000815260040161058890612f42565b60405180910390fd5b61059b8282612115565b5050565b600460009054906101000a900473ffffffffffffffffffffffffffffffffffffffff1681565b600881815481106105d557600080fd5b906000526020600020016000915054906101000a900473ffffffffffffffffffffffffffffffffffffffff1681565b600360009054906101000a900473ffffffffffffffffffffffffffffffffffffffff1673ffffffffffffffffffffffffffffffffffffffff163373ffffffffffffffffffffffffffffffffffffffff1614806106ae5750600073ffffffffffffffffffffffffffffffffffffffff16600360009054906101000a900473ffffffffffffffffffffffffffffffffffffffff1673ffffffffffffffffffffffffffffffffffffffff16145b6106ed576040517f08c379a00000000000000000000000000000000000000000000000000000000081526004016106e490612f22565b60405180910390fd5b80600360006101000a81548173ffffffffffffffffffffffffffffffffffffffff021916908373ffffffffffffffffffffffffffffffffffffffff16021790555050565b60066020528060005260406000206000915090508060000160009054906101000a900460ff169080600101549080600201549080600301549080600401549080600501805461077f906132bc565b80601f01602080910402602001604051908101604052809291908181526020018280546107ab906132bc565b80156107f85780601f106107cd576101008083540402835291602001916107f8565b820191906000526020600020905b8154815290600101906020018083116107db57829003601f168201915b5050505050905086565b6001600381111561083c577f4e487b7100000000000000000000000000000000000000000000000000000000600052602160045260246000fd5b600660003373ffffffffffffffffffffffffffffffffffffffff1673ffffffffffffffffffffffffffffffffffffffff16815260200190815260200160002060000160009054906101000a900460ff1660038111156108c4577f4e487b7100000000000000000000000000000000000000000000000000000000600052602160045260246000fd5b1415610905576040517f08c379a00000000000000000000000000000000000000000000000000000000081526004016108fc90612f82565b60405180910390fd5b6002600660003373ffffffffffffffffffffffffffffffffffffffff1673ffffffffffffffffffffffffffffffffffffffff16815260200190815260200160002060000160006101000a81548160ff02191690836003811115610991577f4e487b7100000000000000000000000000000000000000000000000000000000600052602160045260246000fd5b021790555042600660003373ffffffffffffffffffffffffffffffffffffffff1673ffffffffffffffffffffffffffffffffffffffff168152602001908152602001600020600101819055507fb2e7a03df6688eb07f16c7d4b5416e395e6cd65e5deea1dbbaefd239ace537d033604051610a0c9190612da4565b60405180910390a1565b60005481565b600360009054906101000a900473ffffffffffffffffffffffffffffffffffffffff1673ffffffffffffffffffffffffffffffffffffffff163373ffffffffffffffffffffffffffffffffffffffff1614610aac576040517f08c379a0000000000000000000000000000000000000000000000000000000008152600401610aa390612f22565b60405180910390fd5b610ab581612308565b7fac76dcc3aa3f5c914cd11efd9783db7b9f5522ad811eca79bbe2d719bb74788a81604051610ae49190612da4565b60405180910390a150565b600360009054906101000a900473ffffffffffffffffffffffffffffffffffffffff1673ffffffffffffffffffffffffffffffffffffffff163373ffffffffffffffffffffffffffffffffffffffff1614610b7f576040517f08c379a0000000000000000000000000000000000000000000000000000000008152600401610b7690612f22565b60405180910390fd5b8060028190555060005b600880549050811015610d4f576002546006600060088481548110610bd7577f4e487b7100000000000000000000000000000000000000000000000000000000600052603260045260246000fd5b9060005260206000200160009054906101000a900473ffffffffffffffffffffffffffffffffffffffff1673ffffffffffffffffffffffffffffffffffffffff1673ffffffffffffffffffffffffffffffffffffffff168152602001908152602001600020600301541015610d3c5760036006600060088481548110610c86577f4e487b7100000000000000000000000000000000000000000000000000000000600052603260045260246000fd5b9060005260206000200160009054906101000a900473ffffffffffffffffffffffffffffffffffffffff1673ffffffffffffffffffffffffffffffffffffffff1673ffffffffffffffffffffffffffffffffffffffff16815260200190815260200160002060000160006101000a81548160ff02191690836003811115610d36577f4e487b7100000000000000000000000000000000000000000000000000000000600052602160045260246000fd5b02179055505b8080610d47906132ee565b915050610b89565b5050565b6000806003811115610d8e577f4e487b7100000000000000000000000000000000000000000000000000000000600052602160045260246000fd5b600660008473ffffffffffffffffffffffffffffffffffffffff1673ffffffffffffffffffffffffffffffffffffffff16815260200190815260200160002060000160009054906101000a900460ff166003811115610e16577f4e487b7100000000000000000000000000000000000000000000000000000000600052602160045260246000fd5b1415610e255760019050610e2a565b600090505b919050565b60025481565b60015481565b60006001541115610e5357610e4e6110a8565b610e5b565b426000819055505b600460009054906101000a900473ffffffffffffffffffffffffffffffffffffffff1673ffffffffffffffffffffffffffffffffffffffff166323b872dd3330846040518463ffffffff1660e01b8152600401610eba93929190612dbf565b602060405180830381600087803b158015610ed457600080fd5b505af1158015610ee8573d6000803e3d6000fd5b505050506040513d601f19601f82011682018060405250810190610f0c9190612ab5565b5080600760003373ffffffffffffffffffffffffffffffffffffffff1673ffffffffffffffffffffffffffffffffffffffff1681526020019081526020016000206000828254610f5c91906130ee565b925050819055508060016000828254610f7591906130ee565b925050819055507fd348a8f42fae8db1d0030271b37ed6d94a5e292ff36db57b244ffe13f494dd453382604051610fad929190612e34565b60405180910390a150565b6000600880549050905090565b6060600560008473ffffffffffffffffffffffffffffffffffffffff1673ffffffffffffffffffffffffffffffffffffffff16815260200190815260200160002060008381526020019081526020016000208054611022906132bc565b80601f016020809104026020016040519081016040528092919081815260200182805461104e906132bc565b801561109b5780601f106110705761010080835404028352916020019161109b565b820191906000526020600020905b81548152906001019060200180831161107e57829003601f168201915b5050505050905092915050565b60008054426110b791906131cf565b905062ed4e008111156110cb5762ed4e0090505b600060088054905062278d006006846001546110e79190613175565b6110f19190613144565b6110fb9190613144565b6111059190613144565b905060005b6008805490508110156111e757816006600060088481548110611156577f4e487b7100000000000000000000000000000000000000000000000000000000600052603260045260246000fd5b9060005260206000200160009054906101000a900473ffffffffffffffffffffffffffffffffffffffff1673ffffffffffffffffffffffffffffffffffffffff1673ffffffffffffffffffffffffffffffffffffffff16815260200190815260200160002060040160008282546111cd91906130ee565b9250508190555080806111df906132ee565b91505061110a565b50600880549050816111f99190613175565b6001600082825461120a91906131cf565b92505081905550426000819055507fb0c65a5b323022d926c456e1564d86f0bda40160a781c820f571d7635b348801816040516112479190612fa2565b60405180910390a15050565b80600560003373ffffffffffffffffffffffffffffffffffffffff1673ffffffffffffffffffffffffffffffffffffffff168152602001908152602001600020600084815260200190815260200160002090805190602001906112b792919061274b565b507f3c4a87d301ea6075e9b1efeee0b9d746feffe2294183c22a12e845df3e3a8edf3383836040516112eb93929190612df6565b60405180910390a15050565b60008060008060006060600660008873ffffffffffffffffffffffffffffffffffffffff1673ffffffffffffffffffffffffffffffffffffffff16815260200190815260200160002060010154600660008973ffffffffffffffffffffffffffffffffffffffff1673ffffffffffffffffffffffffffffffffffffffff16815260200190815260200160002060020154600660008a73ffffffffffffffffffffffffffffffffffffffff1673ffffffffffffffffffffffffffffffffffffffff16815260200190815260200160002060000160009054906101000a900460ff16600660008b73ffffffffffffffffffffffffffffffffffffffff1673ffffffffffffffffffffffffffffffffffffffff16815260200190815260200160002060030154600660008c73ffffffffffffffffffffffffffffffffffffffff1673ffffffffffffffffffffffffffffffffffffffff16815260200190815260200160002060040154600660008d73ffffffffffffffffffffffffffffffffffffffff1673ffffffffffffffffffffffffffffffffffffffff1681526020019081526020016000206005018080546114ab906132bc565b80601f01602080910402602001604051908101604052809291908181526020018280546114d7906132bc565b80156115245780601f106114f957610100808354040283529160200191611524565b820191906000526020600020905b81548152906001019060200180831161150757829003601f168201915b5050505050905095509550955095509550955091939550919395565b6002600381111561157a577f4e487b7100000000000000000000000000000000000000000000000000000000600052602160045260246000fd5b600660003373ffffffffffffffffffffffffffffffffffffffff1673ffffffffffffffffffffffffffffffffffffffff16815260200190815260200160002060000160009054906101000a900460ff166003811115611602577f4e487b7100000000000000000000000000000000000000000000000000000000600052602160045260246000fd5b14611642576040517f08c379a000000000000000000000000000000000000000000000000000000000815260040161163990612f02565b60405180910390fd5b62127500600660003373ffffffffffffffffffffffffffffffffffffffff1673ffffffffffffffffffffffffffffffffffffffff168152602001908152602001600020600101544261169491906131cf565b116116d4576040517f08c379a00000000000000000000000000000000000000000000000000000000081526004016116cb90612f62565b60405180910390fd5b600460009054906101000a900473ffffffffffffffffffffffffffffffffffffffff1673ffffffffffffffffffffffffffffffffffffffff1663a9059cbb33600660003373ffffffffffffffffffffffffffffffffffffffff1673ffffffffffffffffffffffffffffffffffffffff168152602001908152602001600020600301546040518363ffffffff1660e01b8152600401611773929190612e34565b602060405180830381600087803b15801561178d57600080fd5b505af11580156117a1573d6000803e3d6000fd5b505050506040513d601f19601f820116820180604052508101906117c59190612ab5565b506000600660003373ffffffffffffffffffffffffffffffffffffffff1673ffffffffffffffffffffffffffffffffffffffff1681526020019081526020016000206003018190555061181733612308565b7f4a7934670bd8304e7da22378be1368f7c4fef17c5aee81804beda8638fe428ec336040516118469190612da4565b60405180910390a1565b6000806000544261186191906131cf565b905061186e600054612689565b61187781612689565b62ed4e008111156118895762ed4e0090505b60088054905062278d006006836001546118a39190613175565b6118ad9190613144565b6118b79190613144565b6118c19190613144565b91505090565b600360009054906101000a900473ffffffffffffffffffffffffffffffffffffffff1673ffffffffffffffffffffffffffffffffffffffff163373ffffffffffffffffffffffffffffffffffffffff1614611957576040517f08c379a000000000000000000000000000000000000000000000000000000000815260040161194e90612f22565b60405180910390fd5b81600660008573ffffffffffffffffffffffffffffffffffffffff1673ffffffffffffffffffffffffffffffffffffffff16815260200190815260200160002060030160008282546119a991906131cf565b9250508190555080156119c4576119bf83612308565b611aa3565b600254600660008573ffffffffffffffffffffffffffffffffffffffff1673ffffffffffffffffffffffffffffffffffffffff168152602001908152602001600020600301541015611aa2576003600660008573ffffffffffffffffffffffffffffffffffffffff1673ffffffffffffffffffffffffffffffffffffffff16815260200190815260200160002060000160006101000a81548160ff02191690836003811115611a9c577f4e487b7100000000000000000000000000000000000000000000000000000000600052602160045260246000fd5b02179055505b5b505050565b600460009054906101000a900473ffffffffffffffffffffffffffffffffffffffff1673ffffffffffffffffffffffffffffffffffffffff166323b872dd3330846040518463ffffffff1660e01b8152600401611b0793929190612dbf565b602060405180830381600087803b158015611b2157600080fd5b505af1158015611b35573d6000803e3d6000fd5b505050506040513d601f19601f82011682018060405250810190611b599190612ab5565b5080600660003373ffffffffffffffffffffffffffffffffffffffff1673ffffffffffffffffffffffffffffffffffffffff1681526020019081526020016000206003016000828254611bac91906130ee565b9250508190555060016003811115611bed577f4e487b7100000000000000000000000000000000000000000000000000000000600052602160045260246000fd5b600660003373ffffffffffffffffffffffffffffffffffffffff1673ffffffffffffffffffffffffffffffffffffffff16815260200190815260200160002060000160009054906101000a900460ff166003811115611c75577f4e487b7100000000000000000000000000000000000000000000000000000000600052602160045260246000fd5b1415611cb6576040517f08c379a0000000000000000000000000000000000000000000000000000000008152600401611cad90612f82565b60405180910390fd5b60026003811115611cf0577f4e487b7100000000000000000000000000000000000000000000000000000000600052602160045260246000fd5b600660003373ffffffffffffffffffffffffffffffffffffffff1673ffffffffffffffffffffffffffffffffffffffff16815260200190815260200160002060000160009054906101000a900460ff166003811115611d78577f4e487b7100000000000000000000000000000000000000000000000000000000600052602160045260246000fd5b1415611db9576040517f08c379a0000000000000000000000000000000000000000000000000000000008152600401611db090612f82565b60405180910390fd5b600254600660003373ffffffffffffffffffffffffffffffffffffffff1673ffffffffffffffffffffffffffffffffffffffff1681526020019081526020016000206003015410611e96576000600660003373ffffffffffffffffffffffffffffffffffffffff1673ffffffffffffffffffffffffffffffffffffffff16815260200190815260200160002060000160006101000a81548160ff02191690836003811115611e90577f4e487b7100000000000000000000000000000000000000000000000000000000600052602160045260246000fd5b02179055505b50565b60076020528060005260406000206000915090505481565b600360009054906101000a900473ffffffffffffffffffffffffffffffffffffffff1681565b60006003811115611f11577f4e487b7100000000000000000000000000000000000000000000000000000000600052602160045260246000fd5b600660003373ffffffffffffffffffffffffffffffffffffffff1673ffffffffffffffffffffffffffffffffffffffff16815260200190815260200160002060000160009054906101000a900460ff166003811115611f99577f4e487b7100000000000000000000000000000000000000000000000000000000600052602160045260246000fd5b14611fd9576040517f08c379a0000000000000000000000000000000000000000000000000000000008152600401611fd090612f82565b60405180910390fd5b600460009054906101000a900473ffffffffffffffffffffffffffffffffffffffff1673ffffffffffffffffffffffffffffffffffffffff1663a9059cbb33600660003373ffffffffffffffffffffffffffffffffffffffff1673ffffffffffffffffffffffffffffffffffffffff168152602001908152602001600020600401546040518363ffffffff1660e01b8152600401612078929190612e34565b602060405180830381600087803b15801561209257600080fd5b505af11580156120a6573d6000803e3d6000fd5b505050506040513d601f19601f820116820180604052508101906120ca9190612ab5565b506000600660003373ffffffffffffffffffffffffffffffffffffffff1673ffffffffffffffffffffffffffffffffffffffff16815260200190815260200160002060040181905550565b6008829080600181540180825580915050600190039060005260206000200160009091909190916101000a81548173ffffffffffffffffffffffffffffffffffffffff021916908373ffffffffffffffffffffffffffffffffffffffff1602179055506040518060c001604052806003808111156121bc577f4e487b7100000000000000000000000000000000000000000000000000000000600052602160045260246000fd5b815260200142815260200160016008805490506121d991906131cf565b8152602001600081526020016000815260200182815250600660008473ffffffffffffffffffffffffffffffffffffffff1673ffffffffffffffffffffffffffffffffffffffff16815260200190815260200160002060008201518160000160006101000a81548160ff02191690836003811115612280577f4e487b7100000000000000000000000000000000000000000000000000000000600052602160045260246000fd5b02179055506020820151816001015560408201518160020155606082015181600301556080820151816004015560a08201518160050190805190602001906122c99291906127d1565b509050507fead7e53082360d92e83a064e3ece44b1e729404ce32d71befd18587c6c777277826040516122fc9190612da4565b60405180910390a15050565b6008600160088054905061231c91906131cf565b81548110612353577f4e487b7100000000000000000000000000000000000000000000000000000000600052603260045260246000fd5b9060005260206000200160009054906101000a900473ffffffffffffffffffffffffffffffffffffffff166008600660008473ffffffffffffffffffffffffffffffffffffffff1673ffffffffffffffffffffffffffffffffffffffff16815260200190815260200160002060020154815481106123fa577f4e487b7100000000000000000000000000000000000000000000000000000000600052603260045260246000fd5b9060005260206000200160006101000a81548173ffffffffffffffffffffffffffffffffffffffff021916908373ffffffffffffffffffffffffffffffffffffffff160217905550600660008273ffffffffffffffffffffffffffffffffffffffff1673ffffffffffffffffffffffffffffffffffffffff16815260200190815260200160002060020154600660006008600160088054905061249d91906131cf565b815481106124d4577f4e487b7100000000000000000000000000000000000000000000000000000000600052603260045260246000fd5b9060005260206000200160009054906101000a900473ffffffffffffffffffffffffffffffffffffffff1673ffffffffffffffffffffffffffffffffffffffff1673ffffffffffffffffffffffffffffffffffffffff168152602001908152602001600020600201819055506008805480612578577f4e487b7100000000000000000000000000000000000000000000000000000000600052603160045260246000fd5b6001900381819060005260206000200160006101000a81549073ffffffffffffffffffffffffffffffffffffffff021916905590556000600660008373ffffffffffffffffffffffffffffffffffffffff1673ffffffffffffffffffffffffffffffffffffffff168152602001908152602001600020600201819055506001600660008373ffffffffffffffffffffffffffffffffffffffff1673ffffffffffffffffffffffffffffffffffffffff16815260200190815260200160002060000160006101000a81548160ff02191690836003811115612681577f4e487b7100000000000000000000000000000000000000000000000000000000600052602160045260246000fd5b021790555050565b61271f8160405160240161269d9190612fa2565b6040516020818303038152906040527ff5b1bba9000000000000000000000000000000000000000000000000000000007bffffffffffffffffffffffffffffffffffffffffffffffffffffffff19166020820180517bffffffffffffffffffffffffffffffffffffffffffffffffffffffff8381831617835250505050612722565b50565b60008151905060006a636f6e736f6c652e6c6f679050602083016000808483855afa5050505050565b828054612757906132bc565b90600052602060002090601f01602090048101928261277957600085556127c0565b82601f1061279257805160ff19168380011785556127c0565b828001600101855582156127c0579182015b828111156127bf5782518255916020019190600101906127a4565b5b5090506127cd9190612857565b5090565b8280546127dd906132bc565b90600052602060002090601f0160209004810192826127ff5760008555612846565b82601f1061281857805160ff1916838001178555612846565b82800160010185558215612846579182015b8281111561284557825182559160200191906001019061282a565b5b5090506128539190612857565b5090565b5b80821115612870576000816000905550600101612858565b5090565b600061288761288284613056565b613025565b90508281526020810184848401111561289f57600080fd5b6128aa84828561327a565b509392505050565b60006128c56128c084613086565b613025565b9050828152602081018484840111156128dd57600080fd5b6128e884828561327a565b509392505050565b6000813590506128ff81613447565b92915050565b6000813590506129148161345e565b92915050565b6000815190506129298161345e565b92915050565b60008135905061293e81613475565b92915050565b600082601f83011261295557600080fd5b8135612965848260208601612874565b91505092915050565b600082601f83011261297f57600080fd5b813561298f8482602086016128b2565b91505092915050565b6000813590506129a78161348c565b92915050565b6000602082840312156129bf57600080fd5b60006129cd848285016128f0565b91505092915050565b600080604083850312156129e957600080fd5b60006129f7858286016128f0565b9250506020612a088582860161292f565b9150509250929050565b60008060408385031215612a2557600080fd5b6000612a33858286016128f0565b925050602083013567ffffffffffffffff811115612a5057600080fd5b612a5c8582860161296e565b9150509250929050565b600080600060608486031215612a7b57600080fd5b6000612a89868287016128f0565b9350506020612a9a86828701612998565b9250506040612aab86828701612905565b9150509250925092565b600060208284031215612ac757600080fd5b6000612ad58482850161291a565b91505092915050565b60008060408385031215612af157600080fd5b6000612aff8582860161292f565b925050602083013567ffffffffffffffff811115612b1c57600080fd5b612b2885828601612944565b9150509250929050565b600060208284031215612b4457600080fd5b6000612b5284828501612998565b91505092915050565b612b6481613203565b82525050565b612b7381613215565b82525050565b612b8281613221565b82525050565b6000612b93826130b6565b612b9d81856130cc565b9350612bad818560208601613289565b612bb681613422565b840191505092915050565b612bca81613268565b82525050565b6000612bdb826130c1565b612be581856130dd565b9350612bf5818560208601613289565b612bfe81613422565b840191505092915050565b6000612c166017836130dd565b91507f77616c6b6572206861732077726f6e67207374617475730000000000000000006000830152602082019050919050565b6000612c566026836130dd565b91507f4f6e6c7920726976656e64616c652063616e2063616c6c20746869732066756e60008301527f6374696f6e2e00000000000000000000000000000000000000000000000000006020830152604082019050919050565b6000612cbc601a836130dd565b91507f63616e6e6f7420616c726561647920626520612077616c6b65720000000000006000830152602082019050919050565b6000612cfc6024836130dd565b91507f686173206e6f74206265656e206c6f6e6720656e6f75676820746f207769746860008301527f64726177000000000000000000000000000000000000000000000000000000006020830152604082019050919050565b6000612d626017836130dd565b91507f57616c6b6572206861732077726f6e67207374617475730000000000000000006000830152602082019050919050565b612d9e8161325e565b82525050565b6000602082019050612db96000830184612b5b565b92915050565b6000606082019050612dd46000830186612b5b565b612de16020830185612b5b565b612dee6040830184612d95565b949350505050565b6000606082019050612e0b6000830186612b5b565b612e186020830185612b79565b8181036040830152612e2a8184612b88565b9050949350505050565b6000604082019050612e496000830185612b5b565b612e566020830184612d95565b9392505050565b6000602082019050612e726000830184612b6a565b92915050565b60006020820190508181036000830152612e928184612b88565b905092915050565b600060c082019050612eaf6000830189612bc1565b612ebc6020830188612d95565b612ec96040830187612d95565b612ed66060830186612d95565b612ee36080830185612d95565b81810360a0830152612ef58184612bd0565b9050979650505050505050565b60006020820190508181036000830152612f1b81612c09565b9050919050565b60006020820190508181036000830152612f3b81612c49565b9050919050565b60006020820190508181036000830152612f5b81612caf565b9050919050565b60006020820190508181036000830152612f7b81612cef565b9050919050565b60006020820190508181036000830152612f9b81612d55565b9050919050565b6000602082019050612fb76000830184612d95565b92915050565b600060c082019050612fd26000830189612d95565b612fdf6020830188612d95565b612fec6040830187612bc1565b612ff96060830186612d95565b6130066080830185612d95565b81810360a08301526130188184612bd0565b9050979650505050505050565b6000604051905081810181811067ffffffffffffffff8211171561304c5761304b6133f3565b5b8060405250919050565b600067ffffffffffffffff821115613071576130706133f3565b5b601f19601f8301169050602081019050919050565b600067ffffffffffffffff8211156130a1576130a06133f3565b5b601f19601f8301169050602081019050919050565b600081519050919050565b600081519050919050565b600082825260208201905092915050565b600082825260208201905092915050565b60006130f98261325e565b91506131048361325e565b9250827fffffffffffffffffffffffffffffffffffffffffffffffffffffffffffffffff0382111561313957613138613337565b5b828201905092915050565b600061314f8261325e565b915061315a8361325e565b92508261316a57613169613366565b5b828204905092915050565b60006131808261325e565b915061318b8361325e565b9250817fffffffffffffffffffffffffffffffffffffffffffffffffffffffffffffffff04831182151516156131c4576131c3613337565b5b828202905092915050565b60006131da8261325e565b91506131e58361325e565b9250828210156131f8576131f7613337565b5b828203905092915050565b600061320e8261323e565b9050919050565b60008115159050919050565b6000819050919050565b600081905061323982613433565b919050565b600073ffffffffffffffffffffffffffffffffffffffff82169050919050565b6000819050919050565b60006132738261322b565b9050919050565b82818337600083830152505050565b60005b838110156132a757808201518184015260208101905061328c565b838111156132b6576000848401525b50505050565b600060028204905060018216806132d457607f821691505b602082108114156132e8576132e76133c4565b5b50919050565b60006132f98261325e565b91507fffffffffffffffffffffffffffffffffffffffffffffffffffffffffffffffff82141561332c5761332b613337565b5b600182019050919050565b7f4e487b7100000000000000000000000000000000000000000000000000000000600052601160045260246000fd5b7f4e487b7100000000000000000000000000000000000000000000000000000000600052601260045260246000fd5b7f4e487b7100000000000000000000000000000000000000000000000000000000600052602160045260246000fd5b7f4e487b7100000000000000000000000000000000000000000000000000000000600052602260045260246000fd5b7f4e487b7100000000000000000000000000000000000000000000000000000000600052604160045260246000fd5b6000601f19601f8301169050919050565b6004811061344457613443613395565b5b50565b61345081613203565b811461345b57600080fd5b50565b61346781613215565b811461347257600080fd5b50565b61347e81613221565b811461348957600080fd5b50565b6134958161325e565b81146134a057600080fd5b5056fea2646970667358221220190fe09d61ac16aea2bd6eab16b28db7ca00a4062788693adba9047283a81eca64736f6c63430008000033",
  "linkReferences": {},
  "deployedLinkReferences": {}
}