{
  "_format": "hh-sol-artifact-1",
  "contractName": "Fellowship",
  "sourceName": "contracts/Fellowship.sol",
  "abi": [
    {
      "inputs": [
        {
          "internalType": "address",
          "name": "_tellor",
          "type": "address"
        },
        {
          "internalType": "address[3]",
          "name": "_initialWalkers",
          "type": "address[3]"
        }
      ],
      "stateMutability": "nonpayable",
      "type": "constructor"
    },
    {
      "anonymous": false,
      "inputs": [
        {
          "indexed": false,
          "internalType": "address",
          "name": "walker",
          "type": "address"
        }
      ],
      "name": "NewWalker",
      "type": "event"
    },
    {
      "anonymous": false,
      "inputs": [
        {
          "indexed": false,
          "internalType": "address",
          "name": "walker",
          "type": "address"
        },
        {
          "indexed": false,
          "internalType": "bytes32",
          "name": "input",
          "type": "bytes32"
        },
        {
          "indexed": false,
          "internalType": "bytes",
          "name": "output",
          "type": "bytes"
        }
      ],
      "name": "NewWalkerInformation",
      "type": "event"
    },
    {
      "anonymous": false,
      "inputs": [
        {
          "indexed": false,
          "internalType": "address",
          "name": "payee",
          "type": "address"
        },
        {
          "indexed": false,
          "internalType": "uint256",
          "name": "amount",
          "type": "uint256"
        }
      ],
      "name": "PaymentDeposited",
      "type": "event"
    },
    {
      "anonymous": false,
      "inputs": [
        {
          "indexed": false,
          "internalType": "uint256",
          "name": "rewardPerWalker",
          "type": "uint256"
        }
      ],
      "name": "RewardsPaid",
      "type": "event"
    },
    {
      "anonymous": false,
      "inputs": [
        {
          "indexed": false,
          "internalType": "address",
          "name": "walker",
          "type": "address"
        }
      ],
      "name": "StakeWithdrawalRequestStarted",
      "type": "event"
    },
    {
      "anonymous": false,
      "inputs": [
        {
          "indexed": false,
          "internalType": "address",
          "name": "walker",
          "type": "address"
        }
      ],
      "name": "StakeWithdrawn",
      "type": "event"
    },
    {
      "anonymous": false,
      "inputs": [
        {
          "indexed": false,
          "internalType": "address",
          "name": "walker",
          "type": "address"
        }
      ],
      "name": "WalkerBanished",
      "type": "event"
    },
    {
      "inputs": [
        {
          "internalType": "address",
          "name": "_oldWalker",
          "type": "address"
        }
      ],
      "name": "banishWalker",
      "outputs": [],
      "stateMutability": "nonpayable",
      "type": "function"
    },
    {
      "inputs": [],
      "name": "checkReward",
      "outputs": [
        {
          "internalType": "uint256",
          "name": "",
          "type": "uint256"
        }
      ],
      "stateMutability": "view",
      "type": "function"
    },
    {
      "inputs": [
        {
          "internalType": "uint256",
          "name": "_amount",
          "type": "uint256"
        }
      ],
      "name": "depositPayment",
      "outputs": [],
      "stateMutability": "nonpayable",
      "type": "function"
    },
    {
      "inputs": [
        {
          "internalType": "uint256",
          "name": "_amount",
          "type": "uint256"
        }
      ],
      "name": "depositStake",
      "outputs": [],
      "stateMutability": "nonpayable",
      "type": "function"
    },
    {
      "inputs": [
        {
          "internalType": "uint256",
          "name": "",
          "type": "uint256"
        }
      ],
      "name": "fellowship",
      "outputs": [
        {
          "internalType": "address",
          "name": "",
          "type": "address"
        }
      ],
      "stateMutability": "view",
      "type": "function"
    },
    {
      "inputs": [],
      "name": "getFellowshipSize",
      "outputs": [
        {
          "internalType": "uint256",
          "name": "",
          "type": "uint256"
        }
      ],
      "stateMutability": "view",
      "type": "function"
    },
    {
      "inputs": [
        {
          "internalType": "address",
          "name": "_walker",
          "type": "address"
        }
      ],
      "name": "getWalkerDetails",
      "outputs": [
        {
          "internalType": "uint256",
          "name": "",
          "type": "uint256"
        },
        {
          "internalType": "uint256",
          "name": "",
          "type": "uint256"
        },
        {
          "internalType": "enum Fellowship.Status",
          "name": "",
          "type": "uint8"
        },
        {
          "internalType": "uint256",
          "name": "",
          "type": "uint256"
        },
        {
          "internalType": "uint256",
          "name": "",
          "type": "uint256"
        },
        {
          "internalType": "string",
          "name": "",
          "type": "string"
        }
      ],
      "stateMutability": "view",
      "type": "function"
    },
    {
      "inputs": [
        {
          "internalType": "address",
          "name": "_walker",
          "type": "address"
        },
        {
          "internalType": "bytes32",
          "name": "_input",
          "type": "bytes32"
        }
      ],
      "name": "getWalkerInformation",
      "outputs": [
        {
          "internalType": "bytes",
          "name": "",
          "type": "bytes"
        }
      ],
      "stateMutability": "view",
      "type": "function"
    },
    {
      "inputs": [
        {
          "internalType": "address",
          "name": "_party",
          "type": "address"
        }
      ],
      "name": "isWalker",
      "outputs": [
        {
          "internalType": "bool",
          "name": "",
          "type": "bool"
        }
      ],
      "stateMutability": "view",
      "type": "function"
    },
    {
      "inputs": [],
      "name": "lastPayDate",
      "outputs": [
        {
          "internalType": "uint256",
          "name": "",
          "type": "uint256"
        }
      ],
      "stateMutability": "view",
      "type": "function"
    },
    {
      "inputs": [
        {
          "internalType": "address",
          "name": "_newRivendale",
          "type": "address"
        }
      ],
      "name": "newRivendale",
      "outputs": [],
      "stateMutability": "nonpayable",
      "type": "function"
    },
    {
      "inputs": [
        {
          "internalType": "address",
          "name": "_walker",
          "type": "address"
        },
        {
          "internalType": "string",
          "name": "_name",
          "type": "string"
        }
      ],
      "name": "newWalker",
      "outputs": [],
      "stateMutability": "nonpayable",
      "type": "function"
    },
    {
      "inputs": [],
      "name": "payReward",
      "outputs": [],
      "stateMutability": "nonpayable",
      "type": "function"
    },
    {
      "inputs": [
        {
          "internalType": "address",
          "name": "",
          "type": "address"
        }
      ],
      "name": "payments",
      "outputs": [
        {
          "internalType": "uint256",
          "name": "",
          "type": "uint256"
        }
      ],
      "stateMutability": "view",
      "type": "function"
    },
    {
      "inputs": [],
      "name": "recieveReward",
      "outputs": [],
      "stateMutability": "nonpayable",
      "type": "function"
    },
    {
      "inputs": [],
      "name": "requestStakingWithdraw",
      "outputs": [],
      "stateMutability": "nonpayable",
      "type": "function"
    },
    {
      "inputs": [],
      "name": "rewardPool",
      "outputs": [
        {
          "internalType": "uint256",
          "name": "",
          "type": "uint256"
        }
      ],
      "stateMutability": "view",
      "type": "function"
    },
    {
      "inputs": [],
      "name": "rivendale",
      "outputs": [
        {
          "internalType": "address",
          "name": "",
          "type": "address"
        }
      ],
      "stateMutability": "view",
      "type": "function"
    },
    {
      "inputs": [
        {
          "internalType": "uint256",
          "name": "_amount",
          "type": "uint256"
        }
      ],
      "name": "setStakeAmount",
      "outputs": [],
      "stateMutability": "nonpayable",
      "type": "function"
    },
    {
      "inputs": [
        {
          "internalType": "bytes32",
          "name": "_input",
          "type": "bytes32"
        },
        {
          "internalType": "bytes",
          "name": "_output",
          "type": "bytes"
        }
      ],
      "name": "setWalkerInformation",
      "outputs": [],
      "stateMutability": "nonpayable",
      "type": "function"
    },
    {
      "inputs": [
        {
          "internalType": "address",
          "name": "_walker",
          "type": "address"
        },
        {
          "internalType": "uint256",
          "name": "_amount",
          "type": "uint256"
        },
        {
          "internalType": "bool",
          "name": "_banish",
          "type": "bool"
        }
      ],
      "name": "slashWalker",
      "outputs": [],
      "stateMutability": "nonpayable",
      "type": "function"
    },
    {
      "inputs": [],
      "name": "stakeAmount",
      "outputs": [
        {
          "internalType": "uint256",
          "name": "",
          "type": "uint256"
        }
      ],
      "stateMutability": "view",
      "type": "function"
    },
    {
      "inputs": [],
      "name": "tellor",
      "outputs": [
        {
          "internalType": "address",
          "name": "",
          "type": "address"
        }
      ],
      "stateMutability": "view",
      "type": "function"
    },
    {
      "inputs": [
        {
          "internalType": "address",
          "name": "",
          "type": "address"
        }
      ],
      "name": "walkers",
      "outputs": [
        {
          "internalType": "enum Fellowship.Status",
          "name": "status",
          "type": "uint8"
        },
        {
          "internalType": "uint256",
          "name": "date",
          "type": "uint256"
        },
        {
          "internalType": "uint256",
          "name": "fellowshipIndex",
          "type": "uint256"
        },
        {
          "internalType": "uint256",
          "name": "balance",
          "type": "uint256"
        },
        {
          "internalType": "uint256",
          "name": "rewardBalance",
          "type": "uint256"
        },
        {
          "internalType": "string",
          "name": "name",
          "type": "string"
        }
      ],
      "stateMutability": "view",
      "type": "function"
    },
    {
      "inputs": [],
      "name": "withdrawStake",
      "outputs": [],
      "stateMutability": "nonpayable",
      "type": "function"
    }
  ],
  "bytecode": "0x60806040523480156200001157600080fd5b506040516200445838038062004458833981810160405281019062000037919062000601565b81600460006101000a81548173ffffffffffffffffffffffffffffffffffffffff021916908373ffffffffffffffffffffffffffffffffffffffff160217905550620000fe81600060038110620000b7577f4e487b7100000000000000000000000000000000000000000000000000000000600052603260045260246000fd5b60200201516040518060400160405280600781526020017f417261676f726e000000000000000000000000000000000000000000000000008152506200022160201b60201c565b62000184816001600381106200013d577f4e487b7100000000000000000000000000000000000000000000000000000000600052603260045260246000fd5b60200201516040518060400160405280600781526020017f4c65676f6c6173000000000000000000000000000000000000000000000000008152506200022160201b60201c565b6200020a81600260038110620001c3577f4e487b7100000000000000000000000000000000000000000000000000000000600052603260045260246000fd5b60200201516040518060400160405280600581526020017f47696d6c690000000000000000000000000000000000000000000000000000008152506200022160201b60201c565b678ac7230489e80000600281905550505062000898565b6000600660008473ffffffffffffffffffffffffffffffffffffffff1673ffffffffffffffffffffffffffffffffffffffff1681526020019081526020016000206001015414620002a9576040517f08c379a0000000000000000000000000000000000000000000000000000000008152600401620002a090620006b2565b60405180910390fd5b6008829080600181540180825580915050600190039060005260206000200160009091909190916101000a81548173ffffffffffffffffffffffffffffffffffffffff021916908373ffffffffffffffffffffffffffffffffffffffff1602179055506040518060c0016040528060038081111562000351577f4e487b7100000000000000000000000000000000000000000000000000000000600052602160045260246000fd5b8152602001428152602001600160088054905062000370919062000742565b8152602001600081526020016000815260200182815250600660008473ffffffffffffffffffffffffffffffffffffffff1673ffffffffffffffffffffffffffffffffffffffff16815260200190815260200160002060008201518160000160006101000a81548160ff0219169083600381111562000418577f4e487b7100000000000000000000000000000000000000000000000000000000600052602160045260246000fd5b02179055506020820151816001015560408201518160020155606082015181600301556080820151816004015560a082015181600501908051906020019062000463929190620004a4565b509050507fead7e53082360d92e83a064e3ece44b1e729404ce32d71befd18587c6c7772778260405162000498919062000695565b60405180910390a15050565b828054620004b290620007bb565b90600052602060002090601f016020900481019282620004d6576000855562000522565b82601f10620004f157805160ff191683800117855562000522565b8280016001018555821562000522579182015b828111156200052157825182559160200191906001019062000504565b5b50905062000531919062000535565b5090565b5b808211156200055057600081600090555060010162000536565b5090565b60006200056b620005658462000708565b620006d4565b905080828560208602820111156200058257600080fd5b60005b85811015620005b657816200059b8882620005c0565b84526020840193506020830192505060018101905062000585565b5050509392505050565b600081519050620005d1816200087e565b92915050565b600082601f830112620005e957600080fd5b6003620005f884828562000554565b91505092915050565b600080608083850312156200061557600080fd5b60006200062585828601620005c0565b92505060206200063885828601620005d7565b9150509250929050565b6200064d816200077d565b82525050565b600062000662601a8362000731565b91507f63616e6e6f7420616c726561647920626520612077616c6b65720000000000006000830152602082019050919050565b6000602082019050620006ac600083018462000642565b92915050565b60006020820190508181036000830152620006cd8162000653565b9050919050565b6000604051905081810181811067ffffffffffffffff82111715620006fe57620006fd6200084f565b5b8060405250919050565b600067ffffffffffffffff8211156200072657620007256200084f565b5b602082029050919050565b600082825260208201905092915050565b60006200074f82620007b1565b91506200075c83620007b1565b925082821015620007725762000771620007f1565b5b828203905092915050565b60006200078a8262000791565b9050919050565b600073ffffffffffffffffffffffffffffffffffffffff82169050919050565b6000819050919050565b60006002820490506001821680620007d457607f821691505b60208210811415620007eb57620007ea62000820565b5b50919050565b7f4e487b7100000000000000000000000000000000000000000000000000000000600052601160045260246000fd5b7f4e487b7100000000000000000000000000000000000000000000000000000000600052602260045260246000fd5b7f4e487b7100000000000000000000000000000000000000000000000000000000600052604160045260246000fd5b62000889816200077d565b81146200089557600080fd5b50565b613bb080620008a86000396000f3fe608060405234801561001057600080fd5b50600436106101735760003560e01c80636b749c47116100de578063bed9d86111610097578063cb82cc8f11610071578063cb82cc8f14610408578063e2982c2114610424578063e2a9cb6014610454578063f807c4681461047257610173565b8063bed9d861146103c4578063c4b24a46146103ce578063c7e061bb146103ec57610173565b80636b749c47146102ff5780636c7575ae1461031b578063751d0334146103395780637842a3a41461036957806379a4ab5114610373578063abf4f44a1461038f57610173565b80633bc3f5de116101305780633bc3f5de1461023d5780633d9a7fdb1461025b57806343808c50146102775780634df260d71461029357806360c7dc47146102c357806366666aa9146102e157610173565b806311bd8100146101785780631959ad5b146101945780631bb6e2cd146101b25780631cc29e19146101e2578063217db0a4146101fe57806328449c3a14610233575b600080fd5b610192600480360381019061018d9190613003565b61047c565b005b61019c61051a565b6040516101a9919061343b565b60405180910390f35b6101cc60048036038101906101c79190613123565b610540565b6040516101d9919061343b565b60405180910390f35b6101fc60048036038101906101f79190612f9e565b61057f565b005b61021860048036038101906102139190612f9e565b6106ac565b60405161022a96959493929190613531565b60405180910390f35b61023b61077d565b005b610245610991565b6040516102529190613679565b60405180910390f35b61027560048036038101906102709190612f9e565b610997565b005b610291600480360381019061028c9190613123565b610b6d565b005b6102ad60048036038101906102a89190612f9e565b610dd1565b6040516102ba91906134f4565b60405180910390f35b6102cb610eae565b6040516102d89190613679565b60405180910390f35b6102e9610eb4565b6040516102f69190613679565b60405180910390f35b61031960048036038101906103149190613123565b610eba565b005b610323611037565b6040516103309190613679565b60405180910390f35b610353600480360381019061034e9190612fc7565b611044565b604051610360919061350f565b60405180910390f35b610371611127565b005b61038d600480360381019061038891906130cf565b6113f9565b005b6103a960048036038101906103a49190612f9e565b61153d565b6040516103bb96959493929190613694565b60405180910390f35b6103cc611786565b005b6103d6611a96565b6040516103e39190613679565b60405180910390f35b61040660048036038101906104019190613057565b611af9565b005b610422600480360381019061041d9190613123565b611ef9565b005b61043e60048036038101906104399190612f9e565b6122ea565b60405161044b9190613679565b60405180910390f35b61045c612302565b604051610469919061343b565b60405180910390f35b61047a612328565b005b600360009054906101000a900473ffffffffffffffffffffffffffffffffffffffff1673ffffffffffffffffffffffffffffffffffffffff163373ffffffffffffffffffffffffffffffffffffffff161461050c576040517f08c379a0000000000000000000000000000000000000000000000000000000008152600401610503906135f9565b60405180910390fd5b6105168282612566565b5050565b600460009054906101000a900473ffffffffffffffffffffffffffffffffffffffff1681565b6008818154811061055057600080fd5b906000526020600020016000915054906101000a900473ffffffffffffffffffffffffffffffffffffffff1681565b600360009054906101000a900473ffffffffffffffffffffffffffffffffffffffff1673ffffffffffffffffffffffffffffffffffffffff163373ffffffffffffffffffffffffffffffffffffffff1614806106295750600073ffffffffffffffffffffffffffffffffffffffff16600360009054906101000a900473ffffffffffffffffffffffffffffffffffffffff1673ffffffffffffffffffffffffffffffffffffffff16145b610668576040517f08c379a000000000000000000000000000000000000000000000000000000000815260040161065f906135f9565b60405180910390fd5b80600360006101000a81548173ffffffffffffffffffffffffffffffffffffffff021916908373ffffffffffffffffffffffffffffffffffffffff16021790555050565b60066020528060005260406000206000915090508060000160009054906101000a900460ff16908060010154908060020154908060030154908060040154908060050180546106fa90613993565b80601f016020809104026020016040519081016040528092919081815260200182805461072690613993565b80156107735780601f1061074857610100808354040283529160200191610773565b820191906000526020600020905b81548152906001019060200180831161075657829003601f168201915b5050505050905086565b600060038111156107b7577f4e487b7100000000000000000000000000000000000000000000000000000000600052602160045260246000fd5b600660003373ffffffffffffffffffffffffffffffffffffffff1673ffffffffffffffffffffffffffffffffffffffff16815260200190815260200160002060000160009054906101000a900460ff16600381111561083f577f4e487b7100000000000000000000000000000000000000000000000000000000600052602160045260246000fd5b1415610880576040517f08c379a000000000000000000000000000000000000000000000000000000000815260040161087790613659565b60405180910390fd5b6002600660003373ffffffffffffffffffffffffffffffffffffffff1673ffffffffffffffffffffffffffffffffffffffff16815260200190815260200160002060000160006101000a81548160ff0219169083600381111561090c577f4e487b7100000000000000000000000000000000000000000000000000000000600052602160045260246000fd5b021790555042600660003373ffffffffffffffffffffffffffffffffffffffff1673ffffffffffffffffffffffffffffffffffffffff168152602001908152602001600020600101819055507fb2e7a03df6688eb07f16c7d4b5416e395e6cd65e5deea1dbbaefd239ace537d033604051610987919061343b565b60405180910390a1565b60005481565b600360009054906101000a900473ffffffffffffffffffffffffffffffffffffffff1673ffffffffffffffffffffffffffffffffffffffff163373ffffffffffffffffffffffffffffffffffffffff1614610a27576040517f08c379a0000000000000000000000000000000000000000000000000000000008152600401610a1e906135f9565b60405180910390fd5b60006003811115610a61577f4e487b7100000000000000000000000000000000000000000000000000000000600052602160045260246000fd5b600660008373ffffffffffffffffffffffffffffffffffffffff1673ffffffffffffffffffffffffffffffffffffffff16815260200190815260200160002060000160009054906101000a900460ff166003811115610ae9577f4e487b7100000000000000000000000000000000000000000000000000000000600052602160045260246000fd5b1415610b2a576040517f08c379a0000000000000000000000000000000000000000000000000000000008152600401610b21906135d9565b60405180910390fd5b610b33816127de565b7fac76dcc3aa3f5c914cd11efd9783db7b9f5522ad811eca79bbe2d719bb74788a81604051610b62919061343b565b60405180910390a150565b600360009054906101000a900473ffffffffffffffffffffffffffffffffffffffff1673ffffffffffffffffffffffffffffffffffffffff163373ffffffffffffffffffffffffffffffffffffffff1614610bfd576040517f08c379a0000000000000000000000000000000000000000000000000000000008152600401610bf4906135f9565b60405180910390fd5b8060028190555060005b600880549050811015610dcd576002546006600060088481548110610c55577f4e487b7100000000000000000000000000000000000000000000000000000000600052603260045260246000fd5b9060005260206000200160009054906101000a900473ffffffffffffffffffffffffffffffffffffffff1673ffffffffffffffffffffffffffffffffffffffff1673ffffffffffffffffffffffffffffffffffffffff168152602001908152602001600020600301541015610dba5760036006600060088481548110610d04577f4e487b7100000000000000000000000000000000000000000000000000000000600052603260045260246000fd5b9060005260206000200160009054906101000a900473ffffffffffffffffffffffffffffffffffffffff1673ffffffffffffffffffffffffffffffffffffffff1673ffffffffffffffffffffffffffffffffffffffff16815260200190815260200160002060000160006101000a81548160ff02191690836003811115610db4577f4e487b7100000000000000000000000000000000000000000000000000000000600052602160045260246000fd5b02179055505b8080610dc5906139c5565b915050610c07565b5050565b600060016003811115610e0d577f4e487b7100000000000000000000000000000000000000000000000000000000600052602160045260246000fd5b600660008473ffffffffffffffffffffffffffffffffffffffff1673ffffffffffffffffffffffffffffffffffffffff16815260200190815260200160002060000160009054906101000a900460ff166003811115610e95577f4e487b7100000000000000000000000000000000000000000000000000000000600052602160045260246000fd5b1415610ea45760019050610ea9565b600090505b919050565b60025481565b60015481565b60006001541115610ed257610ecd611127565b610eda565b426000819055505b600460009054906101000a900473ffffffffffffffffffffffffffffffffffffffff1673ffffffffffffffffffffffffffffffffffffffff166323b872dd3330846040518463ffffffff1660e01b8152600401610f3993929190613456565b602060405180830381600087803b158015610f5357600080fd5b505af1158015610f67573d6000803e3d6000fd5b505050506040513d601f19601f82011682018060405250810190610f8b91906130a6565b5080600760003373ffffffffffffffffffffffffffffffffffffffff1673ffffffffffffffffffffffffffffffffffffffff1681526020019081526020016000206000828254610fdb91906137c5565b925050819055508060016000828254610ff491906137c5565b925050819055507fd348a8f42fae8db1d0030271b37ed6d94a5e292ff36db57b244ffe13f494dd45338260405161102c9291906134cb565b60405180910390a150565b6000600880549050905090565b6060600560008473ffffffffffffffffffffffffffffffffffffffff1673ffffffffffffffffffffffffffffffffffffffff168152602001908152602001600020600083815260200190815260200160002080546110a190613993565b80601f01602080910402602001604051908101604052809291908181526020018280546110cd90613993565b801561111a5780601f106110ef5761010080835404028352916020019161111a565b820191906000526020600020905b8154815290600101906020018083116110fd57829003601f168201915b5050505050905092915050565b600080544261113691906138a6565b905062ed4e0081111561114a5762ed4e0090505b600060088054905062278d00600684600154611166919061384c565b611170919061381b565b61117a919061381b565b611184919061381b565b905060008111156113f55760005b6008805490508110156113b557600160038111156111d9577f4e487b7100000000000000000000000000000000000000000000000000000000600052602160045260246000fd5b6006600060088481548110611217577f4e487b7100000000000000000000000000000000000000000000000000000000600052603260045260246000fd5b9060005260206000200160009054906101000a900473ffffffffffffffffffffffffffffffffffffffff1673ffffffffffffffffffffffffffffffffffffffff1673ffffffffffffffffffffffffffffffffffffffff16815260200190815260200160002060000160009054906101000a900460ff1660038111156112c5577f4e487b7100000000000000000000000000000000000000000000000000000000600052602160045260246000fd5b14156113a25781600660006008848154811061130a577f4e487b7100000000000000000000000000000000000000000000000000000000600052603260045260246000fd5b9060005260206000200160009054906101000a900473ffffffffffffffffffffffffffffffffffffffff1673ffffffffffffffffffffffffffffffffffffffff1673ffffffffffffffffffffffffffffffffffffffff168152602001908152602001600020600401600082825461138191906137c5565b92505081905550816001600082825461139a91906138a6565b925050819055505b80806113ad906139c5565b915050611192565b50426000819055507fb0c65a5b323022d926c456e1564d86f0bda40160a781c820f571d7635b348801816040516113ec9190613679565b60405180910390a15b5050565b61140233610dd1565b8061145a5750600360009054906101000a900473ffffffffffffffffffffffffffffffffffffffff1673ffffffffffffffffffffffffffffffffffffffff163373ffffffffffffffffffffffffffffffffffffffff16145b611499576040517f08c379a0000000000000000000000000000000000000000000000000000000008152600401611490906135b9565b60405180910390fd5b80600560003373ffffffffffffffffffffffffffffffffffffffff1673ffffffffffffffffffffffffffffffffffffffff168152602001908152602001600020600084815260200190815260200160002090805190602001906114fd929190612d3c565b507f3c4a87d301ea6075e9b1efeee0b9d746feffe2294183c22a12e845df3e3a8edf3383836040516115319392919061348d565b60405180910390a15050565b60008060008060006060600660008873ffffffffffffffffffffffffffffffffffffffff1673ffffffffffffffffffffffffffffffffffffffff16815260200190815260200160002060010154600660008973ffffffffffffffffffffffffffffffffffffffff1673ffffffffffffffffffffffffffffffffffffffff16815260200190815260200160002060020154600660008a73ffffffffffffffffffffffffffffffffffffffff1673ffffffffffffffffffffffffffffffffffffffff16815260200190815260200160002060000160009054906101000a900460ff16600660008b73ffffffffffffffffffffffffffffffffffffffff1673ffffffffffffffffffffffffffffffffffffffff16815260200190815260200160002060030154600660008c73ffffffffffffffffffffffffffffffffffffffff1673ffffffffffffffffffffffffffffffffffffffff16815260200190815260200160002060040154600660008d73ffffffffffffffffffffffffffffffffffffffff1673ffffffffffffffffffffffffffffffffffffffff1681526020019081526020016000206005018080546116f190613993565b80601f016020809104026020016040519081016040528092919081815260200182805461171d90613993565b801561176a5780601f1061173f5761010080835404028352916020019161176a565b820191906000526020600020905b81548152906001019060200180831161174d57829003601f168201915b5050505050905095509550955095509550955091939550919395565b600260038111156117c0577f4e487b7100000000000000000000000000000000000000000000000000000000600052602160045260246000fd5b600660003373ffffffffffffffffffffffffffffffffffffffff1673ffffffffffffffffffffffffffffffffffffffff16815260200190815260200160002060000160009054906101000a900460ff166003811115611848577f4e487b7100000000000000000000000000000000000000000000000000000000600052602160045260246000fd5b14611888576040517f08c379a000000000000000000000000000000000000000000000000000000000815260040161187f90613599565b60405180910390fd5b62127500600660003373ffffffffffffffffffffffffffffffffffffffff1673ffffffffffffffffffffffffffffffffffffffff16815260200190815260200160002060010154426118da91906138a6565b1161191a576040517f08c379a000000000000000000000000000000000000000000000000000000000815260040161191190613639565b60405180910390fd5b600460009054906101000a900473ffffffffffffffffffffffffffffffffffffffff1673ffffffffffffffffffffffffffffffffffffffff1663a9059cbb33600660003373ffffffffffffffffffffffffffffffffffffffff1673ffffffffffffffffffffffffffffffffffffffff168152602001908152602001600020600301546040518363ffffffff1660e01b81526004016119b99291906134cb565b602060405180830381600087803b1580156119d357600080fd5b505af11580156119e7573d6000803e3d6000fd5b505050506040513d601f19601f82011682018060405250810190611a0b91906130a6565b506000600660003373ffffffffffffffffffffffffffffffffffffffff1673ffffffffffffffffffffffffffffffffffffffff16815260200190815260200160002060030181905550611a5d336127de565b7f4a7934670bd8304e7da22378be1368f7c4fef17c5aee81804beda8638fe428ec33604051611a8c919061343b565b60405180910390a1565b60008060005442611aa791906138a6565b905062ed4e00811115611abb5762ed4e0090505b60088054905062278d00600683600154611ad5919061384c565b611adf919061381b565b611ae9919061381b565b611af3919061381b565b91505090565b600360009054906101000a900473ffffffffffffffffffffffffffffffffffffffff1673ffffffffffffffffffffffffffffffffffffffff163373ffffffffffffffffffffffffffffffffffffffff1614611b89576040517f08c379a0000000000000000000000000000000000000000000000000000000008152600401611b80906135f9565b60405180910390fd5b81600660008573ffffffffffffffffffffffffffffffffffffffff1673ffffffffffffffffffffffffffffffffffffffff1681526020019081526020016000206003015410611c495781600660008573ffffffffffffffffffffffffffffffffffffffff1673ffffffffffffffffffffffffffffffffffffffff1681526020019081526020016000206003016000828254611c2491906138a6565b925050819055508160016000828254611c3d91906137c5565b92505081905550611d39565b6000600660008573ffffffffffffffffffffffffffffffffffffffff1673ffffffffffffffffffffffffffffffffffffffff168152602001908152602001600020600301541115611d3857600660008473ffffffffffffffffffffffffffffffffffffffff1673ffffffffffffffffffffffffffffffffffffffff1681526020019081526020016000206003015460016000828254611ce891906137c5565b925050819055506000600660008573ffffffffffffffffffffffffffffffffffffffff1673ffffffffffffffffffffffffffffffffffffffff168152602001908152602001600020600301819055505b5b8015611e155760006003811115611d79577f4e487b7100000000000000000000000000000000000000000000000000000000600052602160045260246000fd5b600660008573ffffffffffffffffffffffffffffffffffffffff1673ffffffffffffffffffffffffffffffffffffffff16815260200190815260200160002060000160009054906101000a900460ff166003811115611e01577f4e487b7100000000000000000000000000000000000000000000000000000000600052602160045260246000fd5b14611e1057611e0f836127de565b5b611ef4565b600254600660008573ffffffffffffffffffffffffffffffffffffffff1673ffffffffffffffffffffffffffffffffffffffff168152602001908152602001600020600301541015611ef3576003600660008573ffffffffffffffffffffffffffffffffffffffff1673ffffffffffffffffffffffffffffffffffffffff16815260200190815260200160002060000160006101000a81548160ff02191690836003811115611eed577f4e487b7100000000000000000000000000000000000000000000000000000000600052602160045260246000fd5b02179055505b5b505050565b600460009054906101000a900473ffffffffffffffffffffffffffffffffffffffff1673ffffffffffffffffffffffffffffffffffffffff166323b872dd3330846040518463ffffffff1660e01b8152600401611f5893929190613456565b602060405180830381600087803b158015611f7257600080fd5b505af1158015611f86573d6000803e3d6000fd5b505050506040513d601f19601f82011682018060405250810190611faa91906130a6565b5080600660003373ffffffffffffffffffffffffffffffffffffffff1673ffffffffffffffffffffffffffffffffffffffff1681526020019081526020016000206003016000828254611ffd91906137c5565b925050819055506000600381111561203e577f4e487b7100000000000000000000000000000000000000000000000000000000600052602160045260246000fd5b600660003373ffffffffffffffffffffffffffffffffffffffff1673ffffffffffffffffffffffffffffffffffffffff16815260200190815260200160002060000160009054906101000a900460ff1660038111156120c6577f4e487b7100000000000000000000000000000000000000000000000000000000600052602160045260246000fd5b1415612107576040517f08c379a00000000000000000000000000000000000000000000000000000000081526004016120fe90613659565b60405180910390fd5b60026003811115612141577f4e487b7100000000000000000000000000000000000000000000000000000000600052602160045260246000fd5b600660003373ffffffffffffffffffffffffffffffffffffffff1673ffffffffffffffffffffffffffffffffffffffff16815260200190815260200160002060000160009054906101000a900460ff1660038111156121c9577f4e487b7100000000000000000000000000000000000000000000000000000000600052602160045260246000fd5b141561220a576040517f08c379a000000000000000000000000000000000000000000000000000000000815260040161220190613659565b60405180910390fd5b600254600660003373ffffffffffffffffffffffffffffffffffffffff1673ffffffffffffffffffffffffffffffffffffffff16815260200190815260200160002060030154106122e7576001600660003373ffffffffffffffffffffffffffffffffffffffff1673ffffffffffffffffffffffffffffffffffffffff16815260200190815260200160002060000160006101000a81548160ff021916908360038111156122e1577f4e487b7100000000000000000000000000000000000000000000000000000000600052602160045260246000fd5b02179055505b50565b60076020528060005260406000206000915090505481565b600360009054906101000a900473ffffffffffffffffffffffffffffffffffffffff1681565b60016003811115612362577f4e487b7100000000000000000000000000000000000000000000000000000000600052602160045260246000fd5b600660003373ffffffffffffffffffffffffffffffffffffffff1673ffffffffffffffffffffffffffffffffffffffff16815260200190815260200160002060000160009054906101000a900460ff1660038111156123ea577f4e487b7100000000000000000000000000000000000000000000000000000000600052602160045260246000fd5b1461242a576040517f08c379a000000000000000000000000000000000000000000000000000000000815260040161242190613659565b60405180910390fd5b600460009054906101000a900473ffffffffffffffffffffffffffffffffffffffff1673ffffffffffffffffffffffffffffffffffffffff1663a9059cbb33600660003373ffffffffffffffffffffffffffffffffffffffff1673ffffffffffffffffffffffffffffffffffffffff168152602001908152602001600020600401546040518363ffffffff1660e01b81526004016124c99291906134cb565b602060405180830381600087803b1580156124e357600080fd5b505af11580156124f7573d6000803e3d6000fd5b505050506040513d601f19601f8201168201806040525081019061251b91906130a6565b506000600660003373ffffffffffffffffffffffffffffffffffffffff1673ffffffffffffffffffffffffffffffffffffffff16815260200190815260200160002060040181905550565b6000600660008473ffffffffffffffffffffffffffffffffffffffff1673ffffffffffffffffffffffffffffffffffffffff16815260200190815260200160002060010154146125eb576040517f08c379a00000000000000000000000000000000000000000000000000000000081526004016125e290613619565b60405180910390fd5b6008829080600181540180825580915050600190039060005260206000200160009091909190916101000a81548173ffffffffffffffffffffffffffffffffffffffff021916908373ffffffffffffffffffffffffffffffffffffffff1602179055506040518060c00160405280600380811115612692577f4e487b7100000000000000000000000000000000000000000000000000000000600052602160045260246000fd5b815260200142815260200160016008805490506126af91906138a6565b8152602001600081526020016000815260200182815250600660008473ffffffffffffffffffffffffffffffffffffffff1673ffffffffffffffffffffffffffffffffffffffff16815260200190815260200160002060008201518160000160006101000a81548160ff02191690836003811115612756577f4e487b7100000000000000000000000000000000000000000000000000000000600052602160045260246000fd5b02179055506020820151816001015560408201518160020155606082015181600301556080820151816004015560a082015181600501908051906020019061279f929190612dc2565b509050507fead7e53082360d92e83a064e3ece44b1e729404ce32d71befd18587c6c777277826040516127d2919061343b565b60405180910390a15050565b600860016008805490506127f291906138a6565b81548110612829577f4e487b7100000000000000000000000000000000000000000000000000000000600052603260045260246000fd5b9060005260206000200160009054906101000a900473ffffffffffffffffffffffffffffffffffffffff166008600660008473ffffffffffffffffffffffffffffffffffffffff1673ffffffffffffffffffffffffffffffffffffffff16815260200190815260200160002060020154815481106128d0577f4e487b7100000000000000000000000000000000000000000000000000000000600052603260045260246000fd5b9060005260206000200160006101000a81548173ffffffffffffffffffffffffffffffffffffffff021916908373ffffffffffffffffffffffffffffffffffffffff160217905550600660008273ffffffffffffffffffffffffffffffffffffffff1673ffffffffffffffffffffffffffffffffffffffff16815260200190815260200160002060020154600660006008600160088054905061297391906138a6565b815481106129aa577f4e487b7100000000000000000000000000000000000000000000000000000000600052603260045260246000fd5b9060005260206000200160009054906101000a900473ffffffffffffffffffffffffffffffffffffffff1673ffffffffffffffffffffffffffffffffffffffff1673ffffffffffffffffffffffffffffffffffffffff168152602001908152602001600020600201819055506008805480612a4e577f4e487b7100000000000000000000000000000000000000000000000000000000600052603160045260246000fd5b6001900381819060005260206000200160006101000a81549073ffffffffffffffffffffffffffffffffffffffff021916905590556000600660008373ffffffffffffffffffffffffffffffffffffffff1673ffffffffffffffffffffffffffffffffffffffff168152602001908152602001600020600201819055506000600660008373ffffffffffffffffffffffffffffffffffffffff1673ffffffffffffffffffffffffffffffffffffffff16815260200190815260200160002060000160006101000a81548160ff02191690836003811115612b57577f4e487b7100000000000000000000000000000000000000000000000000000000600052602160045260246000fd5b0217905550600460009054906101000a900473ffffffffffffffffffffffffffffffffffffffff1673ffffffffffffffffffffffffffffffffffffffff1663a9059cbb82600660008573ffffffffffffffffffffffffffffffffffffffff1673ffffffffffffffffffffffffffffffffffffffff168152602001908152602001600020600301546040518363ffffffff1660e01b8152600401612bfb9291906134cb565b602060405180830381600087803b158015612c1557600080fd5b505af1158015612c29573d6000803e3d6000fd5b505050506040513d601f19601f82011682018060405250810190612c4d91906130a6565b506000600660008373ffffffffffffffffffffffffffffffffffffffff1673ffffffffffffffffffffffffffffffffffffffff16815260200190815260200160002060030181905550600660008273ffffffffffffffffffffffffffffffffffffffff1673ffffffffffffffffffffffffffffffffffffffff1681526020019081526020016000206004015460016000828254612cea91906137c5565b925050819055506000600660008373ffffffffffffffffffffffffffffffffffffffff1673ffffffffffffffffffffffffffffffffffffffff1681526020019081526020016000206004018190555050565b828054612d4890613993565b90600052602060002090601f016020900481019282612d6a5760008555612db1565b82601f10612d8357805160ff1916838001178555612db1565b82800160010185558215612db1579182015b82811115612db0578251825591602001919060010190612d95565b5b509050612dbe9190612e48565b5090565b828054612dce90613993565b90600052602060002090601f016020900481019282612df05760008555612e37565b82601f10612e0957805160ff1916838001178555612e37565b82800160010185558215612e37579182015b82811115612e36578251825591602001919060010190612e1b565b5b509050612e449190612e48565b5090565b5b80821115612e61576000816000905550600101612e49565b5090565b6000612e78612e738461372d565b6136fc565b905082815260208101848484011115612e9057600080fd5b612e9b848285613951565b509392505050565b6000612eb6612eb18461375d565b6136fc565b905082815260208101848484011115612ece57600080fd5b612ed9848285613951565b509392505050565b600081359050612ef081613b1e565b92915050565b600081359050612f0581613b35565b92915050565b600081519050612f1a81613b35565b92915050565b600081359050612f2f81613b4c565b92915050565b600082601f830112612f4657600080fd5b8135612f56848260208601612e65565b91505092915050565b600082601f830112612f7057600080fd5b8135612f80848260208601612ea3565b91505092915050565b600081359050612f9881613b63565b92915050565b600060208284031215612fb057600080fd5b6000612fbe84828501612ee1565b91505092915050565b60008060408385031215612fda57600080fd5b6000612fe885828601612ee1565b9250506020612ff985828601612f20565b9150509250929050565b6000806040838503121561301657600080fd5b600061302485828601612ee1565b925050602083013567ffffffffffffffff81111561304157600080fd5b61304d85828601612f5f565b9150509250929050565b60008060006060848603121561306c57600080fd5b600061307a86828701612ee1565b935050602061308b86828701612f89565b925050604061309c86828701612ef6565b9150509250925092565b6000602082840312156130b857600080fd5b60006130c684828501612f0b565b91505092915050565b600080604083850312156130e257600080fd5b60006130f085828601612f20565b925050602083013567ffffffffffffffff81111561310d57600080fd5b61311985828601612f35565b9150509250929050565b60006020828403121561313557600080fd5b600061314384828501612f89565b91505092915050565b613155816138da565b82525050565b613164816138ec565b82525050565b613173816138f8565b82525050565b60006131848261378d565b61318e81856137a3565b935061319e818560208601613960565b6131a781613af9565b840191505092915050565b6131bb8161393f565b82525050565b60006131cc82613798565b6131d681856137b4565b93506131e6818560208601613960565b6131ef81613af9565b840191505092915050565b60006132076017836137b4565b91507f77616c6b6572206861732077726f6e67207374617475730000000000000000006000830152602082019050919050565b6000613247602b836137b4565b91507f6d75737420626520612076616c69642077616c6b657220746f2075736520746860008301527f69732066756e6374696f6e0000000000000000000000000000000000000000006020830152604082019050919050565b60006132ad601a836137b4565b91507f77616c6b657220697320616c72656164792062616e69736865640000000000006000830152602082019050919050565b60006132ed6026836137b4565b91507f4f6e6c7920726976656e64616c652063616e2063616c6c20746869732066756e60008301527f6374696f6e2e00000000000000000000000000000000000000000000000000006020830152604082019050919050565b6000613353601a836137b4565b91507f63616e6e6f7420616c726561647920626520612077616c6b65720000000000006000830152602082019050919050565b60006133936024836137b4565b91507f686173206e6f74206265656e206c6f6e6720656e6f75676820746f207769746860008301527f64726177000000000000000000000000000000000000000000000000000000006020830152604082019050919050565b60006133f96017836137b4565b91507f57616c6b6572206861732077726f6e67207374617475730000000000000000006000830152602082019050919050565b61343581613935565b82525050565b6000602082019050613450600083018461314c565b92915050565b600060608201905061346b600083018661314c565b613478602083018561314c565b613485604083018461342c565b949350505050565b60006060820190506134a2600083018661314c565b6134af602083018561316a565b81810360408301526134c18184613179565b9050949350505050565b60006040820190506134e0600083018561314c565b6134ed602083018461342c565b9392505050565b6000602082019050613509600083018461315b565b92915050565b600060208201905081810360008301526135298184613179565b905092915050565b600060c08201905061354660008301896131b2565b613553602083018861342c565b613560604083018761342c565b61356d606083018661342c565b61357a608083018561342c565b81810360a083015261358c81846131c1565b9050979650505050505050565b600060208201905081810360008301526135b2816131fa565b9050919050565b600060208201905081810360008301526135d28161323a565b9050919050565b600060208201905081810360008301526135f2816132a0565b9050919050565b60006020820190508181036000830152613612816132e0565b9050919050565b6000602082019050818103600083015261363281613346565b9050919050565b6000602082019050818103600083015261365281613386565b9050919050565b60006020820190508181036000830152613672816133ec565b9050919050565b600060208201905061368e600083018461342c565b92915050565b600060c0820190506136a9600083018961342c565b6136b6602083018861342c565b6136c360408301876131b2565b6136d0606083018661342c565b6136dd608083018561342c565b81810360a08301526136ef81846131c1565b9050979650505050505050565b6000604051905081810181811067ffffffffffffffff8211171561372357613722613aca565b5b8060405250919050565b600067ffffffffffffffff82111561374857613747613aca565b5b601f19601f8301169050602081019050919050565b600067ffffffffffffffff82111561377857613777613aca565b5b601f19601f8301169050602081019050919050565b600081519050919050565b600081519050919050565b600082825260208201905092915050565b600082825260208201905092915050565b60006137d082613935565b91506137db83613935565b9250827fffffffffffffffffffffffffffffffffffffffffffffffffffffffffffffffff038211156138105761380f613a0e565b5b828201905092915050565b600061382682613935565b915061383183613935565b92508261384157613840613a3d565b5b828204905092915050565b600061385782613935565b915061386283613935565b9250817fffffffffffffffffffffffffffffffffffffffffffffffffffffffffffffffff048311821515161561389b5761389a613a0e565b5b828202905092915050565b60006138b182613935565b91506138bc83613935565b9250828210156138cf576138ce613a0e565b5b828203905092915050565b60006138e582613915565b9050919050565b60008115159050919050565b6000819050919050565b600081905061391082613b0a565b919050565b600073ffffffffffffffffffffffffffffffffffffffff82169050919050565b6000819050919050565b600061394a82613902565b9050919050565b82818337600083830152505050565b60005b8381101561397e578082015181840152602081019050613963565b8381111561398d576000848401525b50505050565b600060028204905060018216806139ab57607f821691505b602082108114156139bf576139be613a9b565b5b50919050565b60006139d082613935565b91507fffffffffffffffffffffffffffffffffffffffffffffffffffffffffffffffff821415613a0357613a02613a0e565b5b600182019050919050565b7f4e487b7100000000000000000000000000000000000000000000000000000000600052601160045260246000fd5b7f4e487b7100000000000000000000000000000000000000000000000000000000600052601260045260246000fd5b7f4e487b7100000000000000000000000000000000000000000000000000000000600052602160045260246000fd5b7f4e487b7100000000000000000000000000000000000000000000000000000000600052602260045260246000fd5b7f4e487b7100000000000000000000000000000000000000000000000000000000600052604160045260246000fd5b6000601f19601f8301169050919050565b60048110613b1b57613b1a613a6c565b5b50565b613b27816138da565b8114613b3257600080fd5b50565b613b3e816138ec565b8114613b4957600080fd5b50565b613b55816138f8565b8114613b6057600080fd5b50565b613b6c81613935565b8114613b7757600080fd5b5056fea26469706673582212209ae1f6b927177cf3bbf8afd9aeeb9849991e565bc8ad83cf74194e2eedbbfae064736f6c63430008000033",
  "linkReferences": {},
  "deployedLinkReferences": {}
}