{
  "_format": "hh-sol-artifact-1",
  "contractName": "Fellowship",
  "sourceName": "contracts/Fellowship.sol",
  "abi": [
    {
      "inputs": [
        {
          "internalType": "address",
          "name": "_tellor",
          "type": "address"
        }
      ],
      "stateMutability": "nonpayable",
      "type": "constructor"
    },
    {
      "anonymous": false,
      "inputs": [
        {
          "indexed": false,
          "internalType": "address",
          "name": "walker",
          "type": "address"
        }
      ],
      "name": "NewWalker",
      "type": "event"
    },
    {
      "anonymous": false,
      "inputs": [
        {
          "indexed": false,
          "internalType": "address",
          "name": "walker",
          "type": "address"
        },
        {
          "indexed": false,
          "internalType": "bytes32",
          "name": "input",
          "type": "bytes32"
        },
        {
          "indexed": false,
          "internalType": "bytes",
          "name": "output",
          "type": "bytes"
        }
      ],
      "name": "NewWalkerInformation",
      "type": "event"
    },
    {
      "anonymous": false,
      "inputs": [
        {
          "indexed": false,
          "internalType": "address",
          "name": "walker",
          "type": "address"
        }
      ],
      "name": "WalkerBanished",
      "type": "event"
    },
    {
      "inputs": [
        {
          "internalType": "address",
          "name": "_oldWalker",
          "type": "address"
        }
      ],
      "name": "banishWalker",
      "outputs": [],
      "stateMutability": "nonpayable",
      "type": "function"
    },
    {
      "inputs": [],
      "name": "calculatereward",
      "outputs": [],
      "stateMutability": "nonpayable",
      "type": "function"
    },
    {
      "inputs": [
        {
          "internalType": "uint256",
          "name": "_amount",
          "type": "uint256"
        }
      ],
      "name": "depositPayment",
      "outputs": [],
      "stateMutability": "nonpayable",
      "type": "function"
    },
    {
      "inputs": [
        {
          "internalType": "uint256",
          "name": "_amount",
          "type": "uint256"
        }
      ],
      "name": "depositStake",
      "outputs": [],
      "stateMutability": "nonpayable",
      "type": "function"
    },
    {
      "inputs": [
        {
          "internalType": "uint256",
          "name": "",
          "type": "uint256"
        }
      ],
      "name": "fellowship",
      "outputs": [
        {
          "internalType": "address",
          "name": "",
          "type": "address"
        }
      ],
      "stateMutability": "view",
      "type": "function"
    },
    {
      "inputs": [],
      "name": "fellowshipSize",
      "outputs": [
        {
          "internalType": "uint256",
          "name": "",
          "type": "uint256"
        }
      ],
      "stateMutability": "view",
      "type": "function"
    },
    {
      "inputs": [
        {
          "internalType": "address",
          "name": "_walker",
          "type": "address"
        }
      ],
      "name": "getWalkerDetails",
      "outputs": [
        {
          "internalType": "uint256",
          "name": "",
          "type": "uint256"
        },
        {
          "internalType": "uint256",
          "name": "",
          "type": "uint256"
        },
        {
          "internalType": "enum Fellowship.Status",
          "name": "",
          "type": "uint8"
        },
        {
          "internalType": "string",
          "name": "",
          "type": "string"
        }
      ],
      "stateMutability": "view",
      "type": "function"
    },
    {
      "inputs": [
        {
          "internalType": "address",
          "name": "_walker",
          "type": "address"
        },
        {
          "internalType": "bytes32",
          "name": "_input",
          "type": "bytes32"
        }
      ],
      "name": "getWalkerInformation",
      "outputs": [
        {
          "internalType": "bytes",
          "name": "_output",
          "type": "bytes"
        }
      ],
      "stateMutability": "view",
      "type": "function"
    },
    {
      "inputs": [
        {
          "internalType": "address",
          "name": "_a",
          "type": "address"
        }
      ],
      "name": "isWalker",
      "outputs": [
        {
          "internalType": "bool",
          "name": "_i",
          "type": "bool"
        }
      ],
      "stateMutability": "view",
      "type": "function"
    },
    {
      "inputs": [],
      "name": "lastPayDate",
      "outputs": [
        {
          "internalType": "uint256",
          "name": "",
          "type": "uint256"
        }
      ],
      "stateMutability": "view",
      "type": "function"
    },
    {
      "inputs": [
        {
          "internalType": "address",
          "name": "_newRivendale",
          "type": "address"
        }
      ],
      "name": "newRivendale",
      "outputs": [],
      "stateMutability": "nonpayable",
      "type": "function"
    },
    {
      "inputs": [
        {
          "internalType": "address",
          "name": "_newWalker",
          "type": "address"
        },
        {
          "internalType": "string",
          "name": "_name",
          "type": "string"
        }
      ],
      "name": "newWalker",
      "outputs": [],
      "stateMutability": "nonpayable",
      "type": "function"
    },
    {
      "inputs": [
        {
          "internalType": "address",
          "name": "",
          "type": "address"
        }
      ],
      "name": "payments",
      "outputs": [
        {
          "internalType": "uint256",
          "name": "",
          "type": "uint256"
        }
      ],
      "stateMutability": "view",
      "type": "function"
    },
    {
      "inputs": [],
      "name": "recieveReward",
      "outputs": [],
      "stateMutability": "nonpayable",
      "type": "function"
    },
    {
      "inputs": [],
      "name": "requestStakingWithdraw",
      "outputs": [],
      "stateMutability": "nonpayable",
      "type": "function"
    },
    {
      "inputs": [],
      "name": "reward",
      "outputs": [
        {
          "internalType": "uint256",
          "name": "",
          "type": "uint256"
        }
      ],
      "stateMutability": "view",
      "type": "function"
    },
    {
      "inputs": [],
      "name": "rewardPool",
      "outputs": [
        {
          "internalType": "uint256",
          "name": "",
          "type": "uint256"
        }
      ],
      "stateMutability": "view",
      "type": "function"
    },
    {
      "inputs": [],
      "name": "rivendale",
      "outputs": [
        {
          "internalType": "address",
          "name": "",
          "type": "address"
        }
      ],
      "stateMutability": "view",
      "type": "function"
    },
    {
      "inputs": [
        {
          "internalType": "uint256",
          "name": "_amount",
          "type": "uint256"
        }
      ],
      "name": "setFellowshipSize",
      "outputs": [],
      "stateMutability": "nonpayable",
      "type": "function"
    },
    {
      "inputs": [
        {
          "internalType": "uint256",
          "name": "_amount",
          "type": "uint256"
        }
      ],
      "name": "setStakeAmount",
      "outputs": [],
      "stateMutability": "nonpayable",
      "type": "function"
    },
    {
      "inputs": [
        {
          "internalType": "bytes32",
          "name": "_input",
          "type": "bytes32"
        },
        {
          "internalType": "bytes",
          "name": "_output",
          "type": "bytes"
        }
      ],
      "name": "setWalkerInformation",
      "outputs": [],
      "stateMutability": "nonpayable",
      "type": "function"
    },
    {
      "inputs": [
        {
          "internalType": "address",
          "name": "_walker",
          "type": "address"
        },
        {
          "internalType": "uint256",
          "name": "_amount",
          "type": "uint256"
        },
        {
          "internalType": "bool",
          "name": "_banish",
          "type": "bool"
        }
      ],
      "name": "slashWalker",
      "outputs": [],
      "stateMutability": "nonpayable",
      "type": "function"
    },
    {
      "inputs": [],
      "name": "stakeAmount",
      "outputs": [
        {
          "internalType": "uint256",
          "name": "",
          "type": "uint256"
        }
      ],
      "stateMutability": "view",
      "type": "function"
    },
    {
      "inputs": [],
      "name": "tellor",
      "outputs": [
        {
          "internalType": "address",
          "name": "",
          "type": "address"
        }
      ],
      "stateMutability": "view",
      "type": "function"
    },
    {
      "inputs": [
        {
          "internalType": "address",
          "name": "",
          "type": "address"
        }
      ],
      "name": "walkers",
      "outputs": [
        {
          "internalType": "enum Fellowship.Status",
          "name": "status",
          "type": "uint8"
        },
        {
          "internalType": "uint256",
          "name": "date",
          "type": "uint256"
        },
        {
          "internalType": "uint256",
          "name": "fellowshipIndex",
          "type": "uint256"
        },
        {
          "internalType": "uint256",
          "name": "balance",
          "type": "uint256"
        },
        {
          "internalType": "uint256",
          "name": "rewardBalance",
          "type": "uint256"
        },
        {
          "internalType": "string",
          "name": "name",
          "type": "string"
        }
      ],
      "stateMutability": "view",
      "type": "function"
    },
    {
      "inputs": [],
      "name": "withdrawStake",
      "outputs": [],
      "stateMutability": "nonpayable",
      "type": "function"
    }
  ],
  "bytecode": "0x60806040523480156200001157600080fd5b50604051620030c1380380620030c1833981810160405281019062000037919062000096565b80600660006101000a81548173ffffffffffffffffffffffffffffffffffffffff021916908373ffffffffffffffffffffffffffffffffffffffff1602179055505062000110565b6000815190506200009081620000f6565b92915050565b600060208284031215620000a957600080fd5b6000620000b9848285016200007f565b91505092915050565b6000620000cf82620000d6565b9050919050565b600073ffffffffffffffffffffffffffffffffffffffff82169050919050565b6200010181620000c2565b81146200010d57600080fd5b50565b612fa180620001206000396000f3fe608060405234801561001057600080fd5b506004361061018e5760003560e01c806360c7dc47116100de578063bc49ee1d11610097578063cb82cc8f11610071578063cb82cc8f1461043d578063e2982c2114610459578063e2a9cb6014610489578063f807c468146104a75761018e565b8063bc49ee1d1461040d578063bed9d86114610417578063c7e061bb146104215761018e565b806360c7dc471461033657806366666aa9146103545780636b749c4714610372578063751d03341461038e57806379a4ab51146103be578063abf4f44a146103da5761018e565b8063228cb7331161014b5780633bc3f5de116101255780633bc3f5de146102b05780633d9a7fdb146102ce57806343808c50146102ea5780634df260d7146103065761018e565b8063228cb7331461026c57806328449c3a1461028a5780633006474f146102945761018e565b80630152be741461019357806311bd8100146101b15780631959ad5b146101cd5780631bb6e2cd146101eb5780631cc29e191461021b578063217db0a414610237575b600080fd5b61019b6104b1565b6040516101a89190612a86565b60405180910390f35b6101cb60048036038101906101c69190612410565b6104b7565b005b6101d56107dd565b6040516101e29190612848565b60405180910390f35b61020560048036038101906102009190612530565b610803565b6040516102129190612848565b60405180910390f35b610235600480360381019061023091906123ab565b610842565b005b610251600480360381019061024c91906123ab565b61096f565b6040516102639695949392919061293e565b60405180910390f35b610274610a40565b6040516102819190612a86565b60405180910390f35b610292610a46565b005b6102ae60048036038101906102a99190612530565b610b68565b005b6102b8610c5b565b6040516102c59190612a86565b60405180910390f35b6102e860048036038101906102e391906123ab565b610c61565b005b61030460048036038101906102ff9190612530565b610f50565b005b610320600480360381019061031b91906123ab565b611043565b60405161032d9190612901565b60405180910390f35b61033e61111f565b60405161034b9190612a86565b60405180910390f35b61035c611125565b6040516103699190612a86565b60405180910390f35b61038c60048036038101906103879190612530565b61112b565b005b6103a860048036038101906103a391906123d4565b611297565b6040516103b5919061291c565b60405180910390f35b6103d860048036038101906103d391906124dc565b61137a565b005b6103f460048036038101906103ef91906123ab565b61141e565b6040516104049493929190612aa1565b60405180910390f35b6104156115d8565b005b61041f6116e8565b005b61043b60048036038101906104369190612464565b611a9a565b005b61045760048036038101906104529190612530565b611ccf565b005b610473600480360381019061046e91906123ab565b611fcd565b6040516104809190612a86565b60405180910390f35b610491611fe5565b60405161049e9190612848565b60405180910390f35b6104af61200b565b005b60045481565b600560009054906101000a900473ffffffffffffffffffffffffffffffffffffffff1673ffffffffffffffffffffffffffffffffffffffff163373ffffffffffffffffffffffffffffffffffffffff1614806105615750600073ffffffffffffffffffffffffffffffffffffffff16600560009054906101000a900473ffffffffffffffffffffffffffffffffffffffff1673ffffffffffffffffffffffffffffffffffffffff16145b6105a0576040517f08c379a000000000000000000000000000000000000000000000000000000000815260040161059790612a26565b60405180910390fd5b600454600a80549050106105e9576040517f08c379a00000000000000000000000000000000000000000000000000000000081526004016105e090612a06565b60405180910390fd5b600a829080600181540180825580915050600190039060005260206000200160009091909190916101000a81548173ffffffffffffffffffffffffffffffffffffffff021916908373ffffffffffffffffffffffffffffffffffffffff1602179055506040518060c0016040528060006003811115610691577f4e487b7100000000000000000000000000000000000000000000000000000000600052602160045260246000fd5b81526020014281526020016001600a805490506106ae9190612c97565b8152602001600081526020016000815260200182815250600860008473ffffffffffffffffffffffffffffffffffffffff1673ffffffffffffffffffffffffffffffffffffffff16815260200190815260200160002060008201518160000160006101000a81548160ff02191690836003811115610755577f4e487b7100000000000000000000000000000000000000000000000000000000600052602160045260246000fd5b02179055506020820151816001015560408201518160020155606082015181600301556080820151816004015560a082015181600501908051906020019061079e929190612149565b509050507fead7e53082360d92e83a064e3ece44b1e729404ce32d71befd18587c6c777277826040516107d19190612848565b60405180910390a15050565b600660009054906101000a900473ffffffffffffffffffffffffffffffffffffffff1681565b600a818154811061081357600080fd5b906000526020600020016000915054906101000a900473ffffffffffffffffffffffffffffffffffffffff1681565b600560009054906101000a900473ffffffffffffffffffffffffffffffffffffffff1673ffffffffffffffffffffffffffffffffffffffff163373ffffffffffffffffffffffffffffffffffffffff1614806108ec5750600073ffffffffffffffffffffffffffffffffffffffff16600560009054906101000a900473ffffffffffffffffffffffffffffffffffffffff1673ffffffffffffffffffffffffffffffffffffffff16145b61092b576040517f08c379a000000000000000000000000000000000000000000000000000000000815260040161092290612a26565b60405180910390fd5b80600560006101000a81548173ffffffffffffffffffffffffffffffffffffffff021916908373ffffffffffffffffffffffffffffffffffffffff16021790555050565b60086020528060005260406000206000915090508060000160009054906101000a900460ff16908060010154908060020154908060030154908060040154908060050180546109bd90612d84565b80601f01602080910402602001604051908101604052809291908181526020018280546109e990612d84565b8015610a365780601f10610a0b57610100808354040283529160200191610a36565b820191906000526020600020905b815481529060010190602001808311610a1957829003601f168201915b5050505050905086565b60025481565b610a4f33611043565b610a8e576040517f08c379a0000000000000000000000000000000000000000000000000000000008152600401610a85906129a6565b60405180910390fd5b6002600860003373ffffffffffffffffffffffffffffffffffffffff1673ffffffffffffffffffffffffffffffffffffffff16815260200190815260200160002060000160006101000a81548160ff02191690836003811115610b1a577f4e487b7100000000000000000000000000000000000000000000000000000000600052602160045260246000fd5b021790555042600860003373ffffffffffffffffffffffffffffffffffffffff1673ffffffffffffffffffffffffffffffffffffffff16815260200190815260200160002060010181905550565b600560009054906101000a900473ffffffffffffffffffffffffffffffffffffffff1673ffffffffffffffffffffffffffffffffffffffff163373ffffffffffffffffffffffffffffffffffffffff161480610c125750600073ffffffffffffffffffffffffffffffffffffffff16600560009054906101000a900473ffffffffffffffffffffffffffffffffffffffff1673ffffffffffffffffffffffffffffffffffffffff16145b610c51576040517f08c379a0000000000000000000000000000000000000000000000000000000008152600401610c4890612a26565b60405180910390fd5b8060048190555050565b60005481565b3073ffffffffffffffffffffffffffffffffffffffff163373ffffffffffffffffffffffffffffffffffffffff161480610ce85750600560009054906101000a900473ffffffffffffffffffffffffffffffffffffffff1673ffffffffffffffffffffffffffffffffffffffff163373ffffffffffffffffffffffffffffffffffffffff16145b610d27576040517f08c379a0000000000000000000000000000000000000000000000000000000008152600401610d1e906129c6565b60405180910390fd5b600a6001600a80549050610d3b9190612c97565b81548110610d72577f4e487b7100000000000000000000000000000000000000000000000000000000600052603260045260246000fd5b9060005260206000200160009054906101000a900473ffffffffffffffffffffffffffffffffffffffff16600a600860008473ffffffffffffffffffffffffffffffffffffffff1673ffffffffffffffffffffffffffffffffffffffff1681526020019081526020016000206002015481548110610e19577f4e487b7100000000000000000000000000000000000000000000000000000000600052603260045260246000fd5b9060005260206000200160006101000a81548173ffffffffffffffffffffffffffffffffffffffff021916908373ffffffffffffffffffffffffffffffffffffffff160217905550600a805480610e99577f4e487b7100000000000000000000000000000000000000000000000000000000600052603160045260246000fd5b6001900381819060005260206000200160006101000a81549073ffffffffffffffffffffffffffffffffffffffff021916905590556000600860008373ffffffffffffffffffffffffffffffffffffffff1673ffffffffffffffffffffffffffffffffffffffff168152602001908152602001600020600201819055507fac76dcc3aa3f5c914cd11efd9783db7b9f5522ad811eca79bbe2d719bb74788a81604051610f459190612848565b60405180910390a150565b600560009054906101000a900473ffffffffffffffffffffffffffffffffffffffff1673ffffffffffffffffffffffffffffffffffffffff163373ffffffffffffffffffffffffffffffffffffffff161480610ffa5750600073ffffffffffffffffffffffffffffffffffffffff16600560009054906101000a900473ffffffffffffffffffffffffffffffffffffffff1673ffffffffffffffffffffffffffffffffffffffff16145b611039576040517f08c379a000000000000000000000000000000000000000000000000000000000815260040161103090612a26565b60405180910390fd5b8060038190555050565b600080600381111561107e577f4e487b7100000000000000000000000000000000000000000000000000000000600052602160045260246000fd5b600860008473ffffffffffffffffffffffffffffffffffffffff1673ffffffffffffffffffffffffffffffffffffffff16815260200190815260200160002060000160009054906101000a900460ff166003811115611106577f4e487b7100000000000000000000000000000000000000000000000000000000600052602160045260246000fd5b1415611115576001905061111a565b600090505b919050565b60035481565b60015481565b600660009054906101000a900473ffffffffffffffffffffffffffffffffffffffff1673ffffffffffffffffffffffffffffffffffffffff166323b872dd3330846040518463ffffffff1660e01b815260040161118a93929190612863565b602060405180830381600087803b1580156111a457600080fd5b505af11580156111b8573d6000803e3d6000fd5b505050506040513d601f19601f820116820180604052508101906111dc91906124b3565b5080600960003373ffffffffffffffffffffffffffffffffffffffff1673ffffffffffffffffffffffffffffffffffffffff168152602001908152602001600020600082825461122c9190612bb6565b9250508190555080600160008282546112459190612bb6565b9250508190555060045462278d006006600054426112639190612c97565b6001546112709190612c3d565b61127a9190612c0c565b6112849190612c3d565b61128e9190612c0c565b60028190555050565b6060600760008473ffffffffffffffffffffffffffffffffffffffff1673ffffffffffffffffffffffffffffffffffffffff168152602001908152602001600020600083815260200190815260200160002080546112f490612d84565b80601f016020809104026020016040519081016040528092919081815260200182805461132090612d84565b801561136d5780601f106113425761010080835404028352916020019161136d565b820191906000526020600020905b81548152906001019060200180831161135057829003601f168201915b5050505050905092915050565b80600760003373ffffffffffffffffffffffffffffffffffffffff1673ffffffffffffffffffffffffffffffffffffffff168152602001908152602001600020600084815260200190815260200160002090805190602001906113de9291906121cf565b507f3c4a87d301ea6075e9b1efeee0b9d746feffe2294183c22a12e845df3e3a8edf3383836040516114129392919061289a565b60405180910390a15050565b60008060006060600860008673ffffffffffffffffffffffffffffffffffffffff1673ffffffffffffffffffffffffffffffffffffffff16815260200190815260200160002060010154600860008773ffffffffffffffffffffffffffffffffffffffff1673ffffffffffffffffffffffffffffffffffffffff16815260200190815260200160002060020154600860008873ffffffffffffffffffffffffffffffffffffffff1673ffffffffffffffffffffffffffffffffffffffff16815260200190815260200160002060000160009054906101000a900460ff16600860008973ffffffffffffffffffffffffffffffffffffffff1673ffffffffffffffffffffffffffffffffffffffff16815260200190815260200160002060050180805461154990612d84565b80601f016020809104026020016040519081016040528092919081815260200182805461157590612d84565b80156115c25780601f10611597576101008083540402835291602001916115c2565b820191906000526020600020905b8154815290600101906020018083116115a557829003601f168201915b5050505050905093509350935093509193509193565b60005b600a805490508110156116ba5760025460086000600a8481548110611629577f4e487b7100000000000000000000000000000000000000000000000000000000600052603260045260246000fd5b9060005260206000200160009054906101000a900473ffffffffffffffffffffffffffffffffffffffff1673ffffffffffffffffffffffffffffffffffffffff1673ffffffffffffffffffffffffffffffffffffffff16815260200190815260200160002060040160008282546116a09190612bb6565b9250508190555080806116b290612db6565b9150506115db565b50600a805490506002546116ce9190612c3d565b600160008282546116df9190612c97565b92505081905550565b6116f133611043565b611730576040517f08c379a0000000000000000000000000000000000000000000000000000000008152600401611727906129a6565b60405180910390fd5b6002600381111561176a577f4e487b7100000000000000000000000000000000000000000000000000000000600052602160045260246000fd5b600860003373ffffffffffffffffffffffffffffffffffffffff1673ffffffffffffffffffffffffffffffffffffffff16815260200190815260200160002060000160009054906101000a900460ff1660038111156117f2577f4e487b7100000000000000000000000000000000000000000000000000000000600052602160045260246000fd5b14611832576040517f08c379a0000000000000000000000000000000000000000000000000000000008152600401611829906129e6565b60405180910390fd5b62127500600860003373ffffffffffffffffffffffffffffffffffffffff1673ffffffffffffffffffffffffffffffffffffffff16815260200190815260200160002060010154426118849190612c97565b116118c4576040517f08c379a00000000000000000000000000000000000000000000000000000000081526004016118bb90612a46565b60405180910390fd5b600660009054906101000a900473ffffffffffffffffffffffffffffffffffffffff1673ffffffffffffffffffffffffffffffffffffffff1663a9059cbb33600860003373ffffffffffffffffffffffffffffffffffffffff1673ffffffffffffffffffffffffffffffffffffffff168152602001908152602001600020600301546040518363ffffffff1660e01b81526004016119639291906128d8565b602060405180830381600087803b15801561197d57600080fd5b505af1158015611991573d6000803e3d6000fd5b505050506040513d601f19601f820116820180604052508101906119b591906124b3565b506003600860003373ffffffffffffffffffffffffffffffffffffffff1673ffffffffffffffffffffffffffffffffffffffff16815260200190815260200160002060000160006101000a81548160ff02191690836003811115611a42577f4e487b7100000000000000000000000000000000000000000000000000000000600052602160045260246000fd5b02179055506000600860003373ffffffffffffffffffffffffffffffffffffffff1673ffffffffffffffffffffffffffffffffffffffff16815260200190815260200160002060030181905550611a9833610c61565b565b600560009054906101000a900473ffffffffffffffffffffffffffffffffffffffff1673ffffffffffffffffffffffffffffffffffffffff163373ffffffffffffffffffffffffffffffffffffffff161480611b445750600073ffffffffffffffffffffffffffffffffffffffff16600560009054906101000a900473ffffffffffffffffffffffffffffffffffffffff1673ffffffffffffffffffffffffffffffffffffffff16145b611b83576040517f08c379a0000000000000000000000000000000000000000000000000000000008152600401611b7a90612a26565b60405180910390fd5b81600860008573ffffffffffffffffffffffffffffffffffffffff1673ffffffffffffffffffffffffffffffffffffffff1681526020019081526020016000206003016000828254611bd59190612c97565b92505081905550600354600860008573ffffffffffffffffffffffffffffffffffffffff1673ffffffffffffffffffffffffffffffffffffffff168152602001908152602001600020600301541015611cba576001600860008573ffffffffffffffffffffffffffffffffffffffff1673ffffffffffffffffffffffffffffffffffffffff16815260200190815260200160002060000160006101000a81548160ff02191690836003811115611cb4577f4e487b7100000000000000000000000000000000000000000000000000000000600052602160045260246000fd5b02179055505b8015611cca57611cc983610c61565b5b505050565b611cd833611043565b611d17576040517f08c379a0000000000000000000000000000000000000000000000000000000008152600401611d0e906129a6565b60405180910390fd5b600660009054906101000a900473ffffffffffffffffffffffffffffffffffffffff1673ffffffffffffffffffffffffffffffffffffffff166323b872dd3330846040518463ffffffff1660e01b8152600401611d7693929190612863565b602060405180830381600087803b158015611d9057600080fd5b505af1158015611da4573d6000803e3d6000fd5b505050506040513d601f19601f82011682018060405250810190611dc891906124b3565b5080600860003373ffffffffffffffffffffffffffffffffffffffff1673ffffffffffffffffffffffffffffffffffffffff1681526020019081526020016000206003016000828254611e1b9190612bb6565b925050819055506004600860003373ffffffffffffffffffffffffffffffffffffffff1673ffffffffffffffffffffffffffffffffffffffff16815260200190815260200160002060000160009054906101000a900460ff166003811115611eac577f4e487b7100000000000000000000000000000000000000000000000000000000600052602160045260246000fd5b11611eec576040517f08c379a0000000000000000000000000000000000000000000000000000000008152600401611ee390612a66565b60405180910390fd5b600354600860003373ffffffffffffffffffffffffffffffffffffffff1673ffffffffffffffffffffffffffffffffffffffff168152602001908152602001600020600301541015611fca576000600860003373ffffffffffffffffffffffffffffffffffffffff1673ffffffffffffffffffffffffffffffffffffffff16815260200190815260200160002060000160006101000a81548160ff02191690836003811115611fc4577f4e487b7100000000000000000000000000000000000000000000000000000000600052602160045260246000fd5b02179055505b50565b60096020528060005260406000206000915090505481565b600560009054906101000a900473ffffffffffffffffffffffffffffffffffffffff1681565b61201433611043565b612053576040517f08c379a000000000000000000000000000000000000000000000000000000000815260040161204a906129a6565b60405180910390fd5b600660009054906101000a900473ffffffffffffffffffffffffffffffffffffffff1673ffffffffffffffffffffffffffffffffffffffff166323b872dd3330600860003373ffffffffffffffffffffffffffffffffffffffff1673ffffffffffffffffffffffffffffffffffffffff168152602001908152602001600020600401546040518463ffffffff1660e01b81526004016120f493929190612863565b602060405180830381600087803b15801561210e57600080fd5b505af1158015612122573d6000803e3d6000fd5b505050506040513d601f19601f8201168201806040525081019061214691906124b3565b50565b82805461215590612d84565b90600052602060002090601f01602090048101928261217757600085556121be565b82601f1061219057805160ff19168380011785556121be565b828001600101855582156121be579182015b828111156121bd5782518255916020019190600101906121a2565b5b5090506121cb9190612255565b5090565b8280546121db90612d84565b90600052602060002090601f0160209004810192826121fd5760008555612244565b82601f1061221657805160ff1916838001178555612244565b82800160010185558215612244579182015b82811115612243578251825591602001919060010190612228565b5b5090506122519190612255565b5090565b5b8082111561226e576000816000905550600101612256565b5090565b600061228561228084612b1e565b612aed565b90508281526020810184848401111561229d57600080fd5b6122a8848285612d42565b509392505050565b60006122c36122be84612b4e565b612aed565b9050828152602081018484840111156122db57600080fd5b6122e6848285612d42565b509392505050565b6000813590506122fd81612f0f565b92915050565b60008135905061231281612f26565b92915050565b60008151905061232781612f26565b92915050565b60008135905061233c81612f3d565b92915050565b600082601f83011261235357600080fd5b8135612363848260208601612272565b91505092915050565b600082601f83011261237d57600080fd5b813561238d8482602086016122b0565b91505092915050565b6000813590506123a581612f54565b92915050565b6000602082840312156123bd57600080fd5b60006123cb848285016122ee565b91505092915050565b600080604083850312156123e757600080fd5b60006123f5858286016122ee565b92505060206124068582860161232d565b9150509250929050565b6000806040838503121561242357600080fd5b6000612431858286016122ee565b925050602083013567ffffffffffffffff81111561244e57600080fd5b61245a8582860161236c565b9150509250929050565b60008060006060848603121561247957600080fd5b6000612487868287016122ee565b935050602061249886828701612396565b92505060406124a986828701612303565b9150509250925092565b6000602082840312156124c557600080fd5b60006124d384828501612318565b91505092915050565b600080604083850312156124ef57600080fd5b60006124fd8582860161232d565b925050602083013567ffffffffffffffff81111561251a57600080fd5b61252685828601612342565b9150509250929050565b60006020828403121561254257600080fd5b600061255084828501612396565b91505092915050565b61256281612ccb565b82525050565b61257181612cdd565b82525050565b61258081612ce9565b82525050565b600061259182612b7e565b61259b8185612b94565b93506125ab818560208601612d51565b6125b481612eea565b840191505092915050565b6125c881612d30565b82525050565b60006125d982612b89565b6125e38185612ba5565b93506125f3818560208601612d51565b6125fc81612eea565b840191505092915050565b6000612614602483612ba5565b91507f4f6e6c792077616c6b6572732063616e2063616c6c20746869732066756e637460008301527f696f6e2e000000000000000000000000000000000000000000000000000000006020830152604082019050919050565b600061267a601983612ba5565b91507f57616c6b65722063616e6e6f742062652062616e6973686564000000000000006000830152602082019050919050565b60006126ba601783612ba5565b91507f77616c6b6572206861732077726f6e67207374617475730000000000000000006000830152602082019050919050565b60006126fa601a83612ba5565b91507f46656c6c6f777368697020697320616c72656164792046756c6c0000000000006000830152602082019050919050565b600061273a602683612ba5565b91507f4f6e6c7920726976656e64616c652063616e2063616c6c20746869732066756e60008301527f6374696f6e2e00000000000000000000000000000000000000000000000000006020830152604082019050919050565b60006127a0602483612ba5565b91507f686173206e6f74206265656e206c6f6e6720656e6f75676820746f207769746860008301527f64726177000000000000000000000000000000000000000000000000000000006020830152604082019050919050565b6000612806601783612ba5565b91507f57616c6b6572206861732077726f6e67207374617475730000000000000000006000830152602082019050919050565b61284281612d26565b82525050565b600060208201905061285d6000830184612559565b92915050565b60006060820190506128786000830186612559565b6128856020830185612559565b6128926040830184612839565b949350505050565b60006060820190506128af6000830186612559565b6128bc6020830185612577565b81810360408301526128ce8184612586565b9050949350505050565b60006040820190506128ed6000830185612559565b6128fa6020830184612839565b9392505050565b60006020820190506129166000830184612568565b92915050565b600060208201905081810360008301526129368184612586565b905092915050565b600060c08201905061295360008301896125bf565b6129606020830188612839565b61296d6040830187612839565b61297a6060830186612839565b6129876080830185612839565b81810360a083015261299981846125ce565b9050979650505050505050565b600060208201905081810360008301526129bf81612607565b9050919050565b600060208201905081810360008301526129df8161266d565b9050919050565b600060208201905081810360008301526129ff816126ad565b9050919050565b60006020820190508181036000830152612a1f816126ed565b9050919050565b60006020820190508181036000830152612a3f8161272d565b9050919050565b60006020820190508181036000830152612a5f81612793565b9050919050565b60006020820190508181036000830152612a7f816127f9565b9050919050565b6000602082019050612a9b6000830184612839565b92915050565b6000608082019050612ab66000830187612839565b612ac36020830186612839565b612ad060408301856125bf565b8181036060830152612ae281846125ce565b905095945050505050565b6000604051905081810181811067ffffffffffffffff82111715612b1457612b13612ebb565b5b8060405250919050565b600067ffffffffffffffff821115612b3957612b38612ebb565b5b601f19601f8301169050602081019050919050565b600067ffffffffffffffff821115612b6957612b68612ebb565b5b601f19601f8301169050602081019050919050565b600081519050919050565b600081519050919050565b600082825260208201905092915050565b600082825260208201905092915050565b6000612bc182612d26565b9150612bcc83612d26565b9250827fffffffffffffffffffffffffffffffffffffffffffffffffffffffffffffffff03821115612c0157612c00612dff565b5b828201905092915050565b6000612c1782612d26565b9150612c2283612d26565b925082612c3257612c31612e2e565b5b828204905092915050565b6000612c4882612d26565b9150612c5383612d26565b9250817fffffffffffffffffffffffffffffffffffffffffffffffffffffffffffffffff0483118215151615612c8c57612c8b612dff565b5b828202905092915050565b6000612ca282612d26565b9150612cad83612d26565b925082821015612cc057612cbf612dff565b5b828203905092915050565b6000612cd682612d06565b9050919050565b60008115159050919050565b6000819050919050565b6000819050612d0182612efb565b919050565b600073ffffffffffffffffffffffffffffffffffffffff82169050919050565b6000819050919050565b6000612d3b82612cf3565b9050919050565b82818337600083830152505050565b60005b83811015612d6f578082015181840152602081019050612d54565b83811115612d7e576000848401525b50505050565b60006002820490506001821680612d9c57607f821691505b60208210811415612db057612daf612e8c565b5b50919050565b6000612dc182612d26565b91507fffffffffffffffffffffffffffffffffffffffffffffffffffffffffffffffff821415612df457612df3612dff565b5b600182019050919050565b7f4e487b7100000000000000000000000000000000000000000000000000000000600052601160045260246000fd5b7f4e487b7100000000000000000000000000000000000000000000000000000000600052601260045260246000fd5b7f4e487b7100000000000000000000000000000000000000000000000000000000600052602160045260246000fd5b7f4e487b7100000000000000000000000000000000000000000000000000000000600052602260045260246000fd5b7f4e487b7100000000000000000000000000000000000000000000000000000000600052604160045260246000fd5b6000601f19601f8301169050919050565b60048110612f0c57612f0b612e5d565b5b50565b612f1881612ccb565b8114612f2357600080fd5b50565b612f2f81612cdd565b8114612f3a57600080fd5b50565b612f4681612ce9565b8114612f5157600080fd5b50565b612f5d81612d26565b8114612f6857600080fd5b5056fea2646970667358221220d9904325d1f9db2bfd1f4ba2824df900c5e172423e73a9439a2b4f0791fb4ebd64736f6c63430008000033",
  "linkReferences": {},
  "deployedLinkReferences": {}
}