{
  "_format": "hh-sol-artifact-1",
  "contractName": "Fellowship",
  "sourceName": "contracts/Fellowship.sol",
  "abi": [
    {
      "inputs": [
        {
          "internalType": "address",
          "name": "_tellor",
          "type": "address"
        },
        {
          "internalType": "address[3]",
          "name": "_initialWalkers",
          "type": "address[3]"
        }
      ],
      "stateMutability": "nonpayable",
      "type": "constructor"
    },
    {
      "anonymous": false,
      "inputs": [
        {
          "indexed": false,
          "internalType": "address",
          "name": "walker",
          "type": "address"
        }
      ],
      "name": "NewWalker",
      "type": "event"
    },
    {
      "anonymous": false,
      "inputs": [
        {
          "indexed": false,
          "internalType": "address",
          "name": "walker",
          "type": "address"
        },
        {
          "indexed": false,
          "internalType": "bytes32",
          "name": "input",
          "type": "bytes32"
        },
        {
          "indexed": false,
          "internalType": "bytes",
          "name": "output",
          "type": "bytes"
        }
      ],
      "name": "NewWalkerInformation",
      "type": "event"
    },
    {
      "anonymous": false,
      "inputs": [
        {
          "indexed": false,
          "internalType": "address",
          "name": "walker",
          "type": "address"
        }
      ],
      "name": "WalkerBanished",
      "type": "event"
    },
    {
      "inputs": [
        {
          "internalType": "address",
          "name": "_oldWalker",
          "type": "address"
        }
      ],
      "name": "banishWalker",
      "outputs": [],
      "stateMutability": "nonpayable",
      "type": "function"
    },
    {
      "inputs": [],
      "name": "calculatereward",
      "outputs": [],
      "stateMutability": "nonpayable",
      "type": "function"
    },
    {
      "inputs": [
        {
          "internalType": "uint256",
          "name": "_amount",
          "type": "uint256"
        }
      ],
      "name": "depositPayment",
      "outputs": [],
      "stateMutability": "nonpayable",
      "type": "function"
    },
    {
      "inputs": [
        {
          "internalType": "uint256",
          "name": "_amount",
          "type": "uint256"
        }
      ],
      "name": "depositStake",
      "outputs": [],
      "stateMutability": "nonpayable",
      "type": "function"
    },
    {
      "inputs": [
        {
          "internalType": "uint256",
          "name": "",
          "type": "uint256"
        }
      ],
      "name": "fellowship",
      "outputs": [
        {
          "internalType": "address",
          "name": "",
          "type": "address"
        }
      ],
      "stateMutability": "view",
      "type": "function"
    },
    {
      "inputs": [],
      "name": "getFellowshipSize",
      "outputs": [
        {
          "internalType": "uint256",
          "name": "",
          "type": "uint256"
        }
      ],
      "stateMutability": "view",
      "type": "function"
    },
    {
      "inputs": [
        {
          "internalType": "address",
          "name": "_walker",
          "type": "address"
        }
      ],
      "name": "getWalkerDetails",
      "outputs": [
        {
          "internalType": "uint256",
          "name": "",
          "type": "uint256"
        },
        {
          "internalType": "uint256",
          "name": "",
          "type": "uint256"
        },
        {
          "internalType": "enum Fellowship.Status",
          "name": "",
          "type": "uint8"
        },
        {
          "internalType": "uint256",
          "name": "",
          "type": "uint256"
        },
        {
          "internalType": "uint256",
          "name": "",
          "type": "uint256"
        },
        {
          "internalType": "string",
          "name": "",
          "type": "string"
        }
      ],
      "stateMutability": "view",
      "type": "function"
    },
    {
      "inputs": [
        {
          "internalType": "address",
          "name": "_walker",
          "type": "address"
        },
        {
          "internalType": "bytes32",
          "name": "_input",
          "type": "bytes32"
        }
      ],
      "name": "getWalkerInformation",
      "outputs": [
        {
          "internalType": "bytes",
          "name": "_output",
          "type": "bytes"
        }
      ],
      "stateMutability": "view",
      "type": "function"
    },
    {
      "inputs": [
        {
          "internalType": "address",
          "name": "_a",
          "type": "address"
        }
      ],
      "name": "isWalker",
      "outputs": [
        {
          "internalType": "bool",
          "name": "_i",
          "type": "bool"
        }
      ],
      "stateMutability": "view",
      "type": "function"
    },
    {
      "inputs": [],
      "name": "lastPayDate",
      "outputs": [
        {
          "internalType": "uint256",
          "name": "",
          "type": "uint256"
        }
      ],
      "stateMutability": "view",
      "type": "function"
    },
    {
      "inputs": [
        {
          "internalType": "address",
          "name": "_newRivendale",
          "type": "address"
        }
      ],
      "name": "newRivendale",
      "outputs": [],
      "stateMutability": "nonpayable",
      "type": "function"
    },
    {
      "inputs": [
        {
          "internalType": "address",
          "name": "_walker",
          "type": "address"
        },
        {
          "internalType": "string",
          "name": "_name",
          "type": "string"
        }
      ],
      "name": "newWalker",
      "outputs": [],
      "stateMutability": "nonpayable",
      "type": "function"
    },
    {
      "inputs": [
        {
          "internalType": "address",
          "name": "",
          "type": "address"
        }
      ],
      "name": "payments",
      "outputs": [
        {
          "internalType": "uint256",
          "name": "",
          "type": "uint256"
        }
      ],
      "stateMutability": "view",
      "type": "function"
    },
    {
      "inputs": [],
      "name": "recieveReward",
      "outputs": [],
      "stateMutability": "nonpayable",
      "type": "function"
    },
    {
      "inputs": [],
      "name": "requestStakingWithdraw",
      "outputs": [],
      "stateMutability": "nonpayable",
      "type": "function"
    },
    {
      "inputs": [],
      "name": "reward",
      "outputs": [
        {
          "internalType": "uint256",
          "name": "",
          "type": "uint256"
        }
      ],
      "stateMutability": "view",
      "type": "function"
    },
    {
      "inputs": [],
      "name": "rewardPool",
      "outputs": [
        {
          "internalType": "uint256",
          "name": "",
          "type": "uint256"
        }
      ],
      "stateMutability": "view",
      "type": "function"
    },
    {
      "inputs": [],
      "name": "rivendale",
      "outputs": [
        {
          "internalType": "address",
          "name": "",
          "type": "address"
        }
      ],
      "stateMutability": "view",
      "type": "function"
    },
    {
      "inputs": [
        {
          "internalType": "uint256",
          "name": "_amount",
          "type": "uint256"
        }
      ],
      "name": "setStakeAmount",
      "outputs": [],
      "stateMutability": "nonpayable",
      "type": "function"
    },
    {
      "inputs": [
        {
          "internalType": "bytes32",
          "name": "_input",
          "type": "bytes32"
        },
        {
          "internalType": "bytes",
          "name": "_output",
          "type": "bytes"
        }
      ],
      "name": "setWalkerInformation",
      "outputs": [],
      "stateMutability": "nonpayable",
      "type": "function"
    },
    {
      "inputs": [
        {
          "internalType": "address",
          "name": "_walker",
          "type": "address"
        },
        {
          "internalType": "uint256",
          "name": "_amount",
          "type": "uint256"
        },
        {
          "internalType": "bool",
          "name": "_banish",
          "type": "bool"
        }
      ],
      "name": "slashWalker",
      "outputs": [],
      "stateMutability": "nonpayable",
      "type": "function"
    },
    {
      "inputs": [],
      "name": "stakeAmount",
      "outputs": [
        {
          "internalType": "uint256",
          "name": "",
          "type": "uint256"
        }
      ],
      "stateMutability": "view",
      "type": "function"
    },
    {
      "inputs": [],
      "name": "tellor",
      "outputs": [
        {
          "internalType": "address",
          "name": "",
          "type": "address"
        }
      ],
      "stateMutability": "view",
      "type": "function"
    },
    {
      "inputs": [
        {
          "internalType": "address",
          "name": "",
          "type": "address"
        }
      ],
      "name": "walkers",
      "outputs": [
        {
          "internalType": "enum Fellowship.Status",
          "name": "status",
          "type": "uint8"
        },
        {
          "internalType": "uint256",
          "name": "date",
          "type": "uint256"
        },
        {
          "internalType": "uint256",
          "name": "fellowshipIndex",
          "type": "uint256"
        },
        {
          "internalType": "uint256",
          "name": "balance",
          "type": "uint256"
        },
        {
          "internalType": "uint256",
          "name": "rewardBalance",
          "type": "uint256"
        },
        {
          "internalType": "string",
          "name": "name",
          "type": "string"
        }
      ],
      "stateMutability": "view",
      "type": "function"
    },
    {
      "inputs": [],
      "name": "withdrawStake",
      "outputs": [],
      "stateMutability": "nonpayable",
      "type": "function"
    }
  ],
  "bytecode": "0x60806040523480156200001157600080fd5b506040516200398138038062003981833981810160405281019062000037919062000579565b81600560006101000a81548173ffffffffffffffffffffffffffffffffffffffff021916908373ffffffffffffffffffffffffffffffffffffffff160217905550620000fe81600060038110620000b7577f4e487b7100000000000000000000000000000000000000000000000000000000600052603260045260246000fd5b60200201516040518060400160405280600781526020017f417261676f726e000000000000000000000000000000000000000000000000008152506200022160201b60201c565b62000184816001600381106200013d577f4e487b7100000000000000000000000000000000000000000000000000000000600052603260045260246000fd5b60200201516040518060400160405280600781526020017f4c65676f6c6173000000000000000000000000000000000000000000000000008152506200022160201b60201c565b6200020a81600260038110620001c3577f4e487b7100000000000000000000000000000000000000000000000000000000600052603260045260246000fd5b60200201516040518060400160405280600581526020017f47696d6c690000000000000000000000000000000000000000000000000000008152506200022160201b60201c565b678ac7230489e8000060038190555050506200079b565b6009829080600181540180825580915050600190039060005260206000200160009091909190916101000a81548173ffffffffffffffffffffffffffffffffffffffff021916908373ffffffffffffffffffffffffffffffffffffffff1602179055506040518060c00160405280600380811115620002c9577f4e487b7100000000000000000000000000000000000000000000000000000000600052602160045260246000fd5b81526020014281526020016001600980549050620002e8919062000645565b8152602001600081526020016000815260200182815250600760008473ffffffffffffffffffffffffffffffffffffffff1673ffffffffffffffffffffffffffffffffffffffff16815260200190815260200160002060008201518160000160006101000a81548160ff0219169083600381111562000390577f4e487b7100000000000000000000000000000000000000000000000000000000600052602160045260246000fd5b02179055506020820151816001015560408201518160020155606082015181600301556080820151816004015560a0820151816005019080519060200190620003db9291906200041c565b509050507fead7e53082360d92e83a064e3ece44b1e729404ce32d71befd18587c6c77727782604051620004109190620005cb565b60405180910390a15050565b8280546200042a90620006be565b90600052602060002090601f0160209004810192826200044e57600085556200049a565b82601f106200046957805160ff19168380011785556200049a565b828001600101855582156200049a579182015b82811115620004995782518255916020019190600101906200047c565b5b509050620004a99190620004ad565b5090565b5b80821115620004c8576000816000905550600101620004ae565b5090565b6000620004e3620004dd846200061c565b620005e8565b90508082856020860282011115620004fa57600080fd5b60005b858110156200052e578162000513888262000538565b845260208401935060208301925050600181019050620004fd565b5050509392505050565b600081519050620005498162000781565b92915050565b600082601f8301126200056157600080fd5b600362000570848285620004cc565b91505092915050565b600080608083850312156200058d57600080fd5b60006200059d8582860162000538565b9250506020620005b0858286016200054f565b9150509250929050565b620005c58162000680565b82525050565b6000602082019050620005e26000830184620005ba565b92915050565b6000604051905081810181811067ffffffffffffffff8211171562000612576200061162000752565b5b8060405250919050565b600067ffffffffffffffff8211156200063a576200063962000752565b5b602082029050919050565b60006200065282620006b4565b91506200065f83620006b4565b925082821015620006755762000674620006f4565b5b828203905092915050565b60006200068d8262000694565b9050919050565b600073ffffffffffffffffffffffffffffffffffffffff82169050919050565b6000819050919050565b60006002820490506001821680620006d757607f821691505b60208210811415620006ee57620006ed62000723565b5b50919050565b7f4e487b7100000000000000000000000000000000000000000000000000000000600052601160045260246000fd5b7f4e487b7100000000000000000000000000000000000000000000000000000000600052602260045260246000fd5b7f4e487b7100000000000000000000000000000000000000000000000000000000600052604160045260246000fd5b6200078c8162000680565b81146200079857600080fd5b50565b6131d680620007ab6000396000f3fe608060405234801561001057600080fd5b50600436106101735760003560e01c806366666aa9116100de578063bc49ee1d11610097578063cb82cc8f11610071578063cb82cc8f14610408578063e2982c2114610424578063e2a9cb6014610454578063f807c4681461047257610173565b8063bc49ee1d146103d8578063bed9d861146103e2578063c7e061bb146103ec57610173565b806366666aa9146102ff5780636b749c471461031d5780636c7575ae14610339578063751d03341461035757806379a4ab5114610387578063abf4f44a146103a357610173565b806328449c3a1161013057806328449c3a146102515780633bc3f5de1461025b5780633d9a7fdb1461027957806343808c50146102955780634df260d7146102b157806360c7dc47146102e157610173565b806311bd8100146101785780631959ad5b146101945780631bb6e2cd146101b25780631cc29e19146101e2578063217db0a4146101fe578063228cb73314610233575b600080fd5b610192600480360381019061018d91906126af565b61047c565b005b61019c61059f565b6040516101a99190612a81565b60405180910390f35b6101cc60048036038101906101c791906127cf565b6105c5565b6040516101d99190612a81565b60405180910390f35b6101fc60048036038101906101f7919061264a565b610604565b005b6102186004803603810190610213919061264a565b610731565b60405161022a96959493929190612b77565b60405180910390f35b61023b610802565b6040516102489190612c9f565b60405180910390f35b610259610808565b005b6102636109e5565b6040516102709190612c9f565b60405180910390f35b610293600480360381019061028e919061264a565b6109eb565b005b6102af60048036038101906102aa91906127cf565b610d6b565b005b6102cb60048036038101906102c6919061264a565b610fcf565b6040516102d89190612b3a565b60405180910390f35b6102e96110ab565b6040516102f69190612c9f565b60405180910390f35b6103076110b1565b6040516103149190612c9f565b60405180910390f35b610337600480360381019061033291906127cf565b6110b7565b005b610341611226565b60405161034e9190612c9f565b60405180910390f35b610371600480360381019061036c9190612673565b611233565b60405161037e9190612b55565b60405180910390f35b6103a1600480360381019061039c919061277b565b611316565b005b6103bd60048036038101906103b8919061264a565b6113ba565b6040516103cf96959493929190612cba565b60405180910390f35b6103e0611603565b005b6103ea611713565b005b61040660048036038101906104019190612703565b6119ec565b005b610422600480360381019061041d91906127cf565b611bcd565b005b61043e6004803603810190610439919061264a565b611fbe565b60405161044b9190612c9f565b60405180910390f35b61045c611fd6565b6040516104699190612a81565b60405180910390f35b61047a611ffc565b005b600460009054906101000a900473ffffffffffffffffffffffffffffffffffffffff1673ffffffffffffffffffffffffffffffffffffffff163373ffffffffffffffffffffffffffffffffffffffff161461050c576040517f08c379a000000000000000000000000000000000000000000000000000000000815260040161050390612c1f565b60405180910390fd5b6000600760008473ffffffffffffffffffffffffffffffffffffffff1673ffffffffffffffffffffffffffffffffffffffff1681526020019081526020016000206001015414610591576040517f08c379a000000000000000000000000000000000000000000000000000000000815260040161058890612c3f565b60405180910390fd5b61059b82826121f5565b5050565b600560009054906101000a900473ffffffffffffffffffffffffffffffffffffffff1681565b600981815481106105d557600080fd5b906000526020600020016000915054906101000a900473ffffffffffffffffffffffffffffffffffffffff1681565b600460009054906101000a900473ffffffffffffffffffffffffffffffffffffffff1673ffffffffffffffffffffffffffffffffffffffff163373ffffffffffffffffffffffffffffffffffffffff1614806106ae5750600073ffffffffffffffffffffffffffffffffffffffff16600460009054906101000a900473ffffffffffffffffffffffffffffffffffffffff1673ffffffffffffffffffffffffffffffffffffffff16145b6106ed576040517f08c379a00000000000000000000000000000000000000000000000000000000081526004016106e490612c1f565b60405180910390fd5b80600460006101000a81548173ffffffffffffffffffffffffffffffffffffffff021916908373ffffffffffffffffffffffffffffffffffffffff16021790555050565b60076020528060005260406000206000915090508060000160009054906101000a900460ff169080600101549080600201549080600301549080600401549080600501805461077f90612fb9565b80601f01602080910402602001604051908101604052809291908181526020018280546107ab90612fb9565b80156107f85780601f106107cd576101008083540402835291602001916107f8565b820191906000526020600020905b8154815290600101906020018083116107db57829003601f168201915b5050505050905086565b60025481565b60016003811115610842577f4e487b7100000000000000000000000000000000000000000000000000000000600052602160045260246000fd5b600760003373ffffffffffffffffffffffffffffffffffffffff1673ffffffffffffffffffffffffffffffffffffffff16815260200190815260200160002060000160009054906101000a900460ff1660038111156108ca577f4e487b7100000000000000000000000000000000000000000000000000000000600052602160045260246000fd5b141561090b576040517f08c379a000000000000000000000000000000000000000000000000000000000815260040161090290612c7f565b60405180910390fd5b6002600760003373ffffffffffffffffffffffffffffffffffffffff1673ffffffffffffffffffffffffffffffffffffffff16815260200190815260200160002060000160006101000a81548160ff02191690836003811115610997577f4e487b7100000000000000000000000000000000000000000000000000000000600052602160045260246000fd5b021790555042600760003373ffffffffffffffffffffffffffffffffffffffff1673ffffffffffffffffffffffffffffffffffffffff16815260200190815260200160002060010181905550565b60005481565b3073ffffffffffffffffffffffffffffffffffffffff163373ffffffffffffffffffffffffffffffffffffffff161480610a725750600460009054906101000a900473ffffffffffffffffffffffffffffffffffffffff1673ffffffffffffffffffffffffffffffffffffffff163373ffffffffffffffffffffffffffffffffffffffff16145b610ab1576040517f08c379a0000000000000000000000000000000000000000000000000000000008152600401610aa890612bdf565b60405180910390fd5b60096001600980549050610ac59190612ecc565b81548110610afc577f4e487b7100000000000000000000000000000000000000000000000000000000600052603260045260246000fd5b9060005260206000200160009054906101000a900473ffffffffffffffffffffffffffffffffffffffff166009600760008473ffffffffffffffffffffffffffffffffffffffff1673ffffffffffffffffffffffffffffffffffffffff1681526020019081526020016000206002015481548110610ba3577f4e487b7100000000000000000000000000000000000000000000000000000000600052603260045260246000fd5b9060005260206000200160006101000a81548173ffffffffffffffffffffffffffffffffffffffff021916908373ffffffffffffffffffffffffffffffffffffffff1602179055506009805480610c23577f4e487b7100000000000000000000000000000000000000000000000000000000600052603160045260246000fd5b6001900381819060005260206000200160006101000a81549073ffffffffffffffffffffffffffffffffffffffff021916905590556000600760008373ffffffffffffffffffffffffffffffffffffffff1673ffffffffffffffffffffffffffffffffffffffff168152602001908152602001600020600201819055506001600760008373ffffffffffffffffffffffffffffffffffffffff1673ffffffffffffffffffffffffffffffffffffffff16815260200190815260200160002060000160006101000a81548160ff02191690836003811115610d2c577f4e487b7100000000000000000000000000000000000000000000000000000000600052602160045260246000fd5b02179055507fac76dcc3aa3f5c914cd11efd9783db7b9f5522ad811eca79bbe2d719bb74788a81604051610d609190612a81565b60405180910390a150565b600460009054906101000a900473ffffffffffffffffffffffffffffffffffffffff1673ffffffffffffffffffffffffffffffffffffffff163373ffffffffffffffffffffffffffffffffffffffff1614610dfb576040517f08c379a0000000000000000000000000000000000000000000000000000000008152600401610df290612c1f565b60405180910390fd5b8060038190555060005b600980549050811015610fcb576003546007600060098481548110610e53577f4e487b7100000000000000000000000000000000000000000000000000000000600052603260045260246000fd5b9060005260206000200160009054906101000a900473ffffffffffffffffffffffffffffffffffffffff1673ffffffffffffffffffffffffffffffffffffffff1673ffffffffffffffffffffffffffffffffffffffff168152602001908152602001600020600301541015610fb85760036007600060098481548110610f02577f4e487b7100000000000000000000000000000000000000000000000000000000600052603260045260246000fd5b9060005260206000200160009054906101000a900473ffffffffffffffffffffffffffffffffffffffff1673ffffffffffffffffffffffffffffffffffffffff1673ffffffffffffffffffffffffffffffffffffffff16815260200190815260200160002060000160006101000a81548160ff02191690836003811115610fb2577f4e487b7100000000000000000000000000000000000000000000000000000000600052602160045260246000fd5b02179055505b8080610fc390612feb565b915050610e05565b5050565b600080600381111561100a577f4e487b7100000000000000000000000000000000000000000000000000000000600052602160045260246000fd5b600760008473ffffffffffffffffffffffffffffffffffffffff1673ffffffffffffffffffffffffffffffffffffffff16815260200190815260200160002060000160009054906101000a900460ff166003811115611092577f4e487b7100000000000000000000000000000000000000000000000000000000600052602160045260246000fd5b14156110a157600190506110a6565b600090505b919050565b60035481565b60015481565b600560009054906101000a900473ffffffffffffffffffffffffffffffffffffffff1673ffffffffffffffffffffffffffffffffffffffff166323b872dd3330846040518463ffffffff1660e01b815260040161111693929190612a9c565b602060405180830381600087803b15801561113057600080fd5b505af1158015611144573d6000803e3d6000fd5b505050506040513d601f19601f820116820180604052508101906111689190612752565b5080600860003373ffffffffffffffffffffffffffffffffffffffff1673ffffffffffffffffffffffffffffffffffffffff16815260200190815260200160002060008282546111b89190612deb565b9250508190555080600160008282546111d19190612deb565b9250508190555060098054905062278d006006600054426111f29190612ecc565b6001546111ff9190612e72565b6112099190612e41565b6112139190612e72565b61121d9190612e41565b60028190555050565b6000600980549050905090565b6060600660008473ffffffffffffffffffffffffffffffffffffffff1673ffffffffffffffffffffffffffffffffffffffff1681526020019081526020016000206000838152602001908152602001600020805461129090612fb9565b80601f01602080910402602001604051908101604052809291908181526020018280546112bc90612fb9565b80156113095780601f106112de57610100808354040283529160200191611309565b820191906000526020600020905b8154815290600101906020018083116112ec57829003601f168201915b5050505050905092915050565b80600660003373ffffffffffffffffffffffffffffffffffffffff1673ffffffffffffffffffffffffffffffffffffffff1681526020019081526020016000206000848152602001908152602001600020908051906020019061137a9291906123e8565b507f3c4a87d301ea6075e9b1efeee0b9d746feffe2294183c22a12e845df3e3a8edf3383836040516113ae93929190612ad3565b60405180910390a15050565b60008060008060006060600760008873ffffffffffffffffffffffffffffffffffffffff1673ffffffffffffffffffffffffffffffffffffffff16815260200190815260200160002060010154600760008973ffffffffffffffffffffffffffffffffffffffff1673ffffffffffffffffffffffffffffffffffffffff16815260200190815260200160002060020154600760008a73ffffffffffffffffffffffffffffffffffffffff1673ffffffffffffffffffffffffffffffffffffffff16815260200190815260200160002060000160009054906101000a900460ff16600760008b73ffffffffffffffffffffffffffffffffffffffff1673ffffffffffffffffffffffffffffffffffffffff16815260200190815260200160002060030154600760008c73ffffffffffffffffffffffffffffffffffffffff1673ffffffffffffffffffffffffffffffffffffffff16815260200190815260200160002060040154600760008d73ffffffffffffffffffffffffffffffffffffffff1673ffffffffffffffffffffffffffffffffffffffff16815260200190815260200160002060050180805461156e90612fb9565b80601f016020809104026020016040519081016040528092919081815260200182805461159a90612fb9565b80156115e75780601f106115bc576101008083540402835291602001916115e7565b820191906000526020600020905b8154815290600101906020018083116115ca57829003601f168201915b5050505050905095509550955095509550955091939550919395565b60005b6009805490508110156116e5576002546007600060098481548110611654577f4e487b7100000000000000000000000000000000000000000000000000000000600052603260045260246000fd5b9060005260206000200160009054906101000a900473ffffffffffffffffffffffffffffffffffffffff1673ffffffffffffffffffffffffffffffffffffffff1673ffffffffffffffffffffffffffffffffffffffff16815260200190815260200160002060040160008282546116cb9190612deb565b9250508190555080806116dd90612feb565b915050611606565b506009805490506002546116f99190612e72565b6001600082825461170a9190612ecc565b92505081905550565b6002600381111561174d577f4e487b7100000000000000000000000000000000000000000000000000000000600052602160045260246000fd5b600760003373ffffffffffffffffffffffffffffffffffffffff1673ffffffffffffffffffffffffffffffffffffffff16815260200190815260200160002060000160009054906101000a900460ff1660038111156117d5577f4e487b7100000000000000000000000000000000000000000000000000000000600052602160045260246000fd5b14611815576040517f08c379a000000000000000000000000000000000000000000000000000000000815260040161180c90612bff565b60405180910390fd5b62127500600760003373ffffffffffffffffffffffffffffffffffffffff1673ffffffffffffffffffffffffffffffffffffffff16815260200190815260200160002060010154426118679190612ecc565b116118a7576040517f08c379a000000000000000000000000000000000000000000000000000000000815260040161189e90612c5f565b60405180910390fd5b600560009054906101000a900473ffffffffffffffffffffffffffffffffffffffff1673ffffffffffffffffffffffffffffffffffffffff1663a9059cbb33600760003373ffffffffffffffffffffffffffffffffffffffff1673ffffffffffffffffffffffffffffffffffffffff168152602001908152602001600020600301546040518363ffffffff1660e01b8152600401611946929190612b11565b602060405180830381600087803b15801561196057600080fd5b505af1158015611974573d6000803e3d6000fd5b505050506040513d601f19601f820116820180604052508101906119989190612752565b506000600760003373ffffffffffffffffffffffffffffffffffffffff1673ffffffffffffffffffffffffffffffffffffffff168152602001908152602001600020600301819055506119ea336109eb565b565b600460009054906101000a900473ffffffffffffffffffffffffffffffffffffffff1673ffffffffffffffffffffffffffffffffffffffff163373ffffffffffffffffffffffffffffffffffffffff1614611a7c576040517f08c379a0000000000000000000000000000000000000000000000000000000008152600401611a7390612c1f565b60405180910390fd5b81600760008573ffffffffffffffffffffffffffffffffffffffff1673ffffffffffffffffffffffffffffffffffffffff1681526020019081526020016000206003016000828254611ace9190612ecc565b925050819055508015611ae957611ae4836109eb565b611bc8565b600354600760008573ffffffffffffffffffffffffffffffffffffffff1673ffffffffffffffffffffffffffffffffffffffff168152602001908152602001600020600301541015611bc7576003600760008573ffffffffffffffffffffffffffffffffffffffff1673ffffffffffffffffffffffffffffffffffffffff16815260200190815260200160002060000160006101000a81548160ff02191690836003811115611bc1577f4e487b7100000000000000000000000000000000000000000000000000000000600052602160045260246000fd5b02179055505b5b505050565b600560009054906101000a900473ffffffffffffffffffffffffffffffffffffffff1673ffffffffffffffffffffffffffffffffffffffff166323b872dd3330846040518463ffffffff1660e01b8152600401611c2c93929190612a9c565b602060405180830381600087803b158015611c4657600080fd5b505af1158015611c5a573d6000803e3d6000fd5b505050506040513d601f19601f82011682018060405250810190611c7e9190612752565b5080600760003373ffffffffffffffffffffffffffffffffffffffff1673ffffffffffffffffffffffffffffffffffffffff1681526020019081526020016000206003016000828254611cd19190612deb565b9250508190555060016003811115611d12577f4e487b7100000000000000000000000000000000000000000000000000000000600052602160045260246000fd5b600760003373ffffffffffffffffffffffffffffffffffffffff1673ffffffffffffffffffffffffffffffffffffffff16815260200190815260200160002060000160009054906101000a900460ff166003811115611d9a577f4e487b7100000000000000000000000000000000000000000000000000000000600052602160045260246000fd5b1415611ddb576040517f08c379a0000000000000000000000000000000000000000000000000000000008152600401611dd290612c7f565b60405180910390fd5b60026003811115611e15577f4e487b7100000000000000000000000000000000000000000000000000000000600052602160045260246000fd5b600760003373ffffffffffffffffffffffffffffffffffffffff1673ffffffffffffffffffffffffffffffffffffffff16815260200190815260200160002060000160009054906101000a900460ff166003811115611e9d577f4e487b7100000000000000000000000000000000000000000000000000000000600052602160045260246000fd5b1415611ede576040517f08c379a0000000000000000000000000000000000000000000000000000000008152600401611ed590612c7f565b60405180910390fd5b600354600760003373ffffffffffffffffffffffffffffffffffffffff1673ffffffffffffffffffffffffffffffffffffffff1681526020019081526020016000206003015410611fbb576000600760003373ffffffffffffffffffffffffffffffffffffffff1673ffffffffffffffffffffffffffffffffffffffff16815260200190815260200160002060000160006101000a81548160ff02191690836003811115611fb5577f4e487b7100000000000000000000000000000000000000000000000000000000600052602160045260246000fd5b02179055505b50565b60086020528060005260406000206000915090505481565b600460009054906101000a900473ffffffffffffffffffffffffffffffffffffffff1681565b60006003811115612036577f4e487b7100000000000000000000000000000000000000000000000000000000600052602160045260246000fd5b600760003373ffffffffffffffffffffffffffffffffffffffff1673ffffffffffffffffffffffffffffffffffffffff16815260200190815260200160002060000160009054906101000a900460ff1660038111156120be577f4e487b7100000000000000000000000000000000000000000000000000000000600052602160045260246000fd5b14156120ff576040517f08c379a00000000000000000000000000000000000000000000000000000000081526004016120f690612c7f565b60405180910390fd5b600560009054906101000a900473ffffffffffffffffffffffffffffffffffffffff1673ffffffffffffffffffffffffffffffffffffffff166323b872dd3330600760003373ffffffffffffffffffffffffffffffffffffffff1673ffffffffffffffffffffffffffffffffffffffff168152602001908152602001600020600401546040518463ffffffff1660e01b81526004016121a093929190612a9c565b602060405180830381600087803b1580156121ba57600080fd5b505af11580156121ce573d6000803e3d6000fd5b505050506040513d601f19601f820116820180604052508101906121f29190612752565b50565b6009829080600181540180825580915050600190039060005260206000200160009091909190916101000a81548173ffffffffffffffffffffffffffffffffffffffff021916908373ffffffffffffffffffffffffffffffffffffffff1602179055506040518060c0016040528060038081111561229c577f4e487b7100000000000000000000000000000000000000000000000000000000600052602160045260246000fd5b815260200142815260200160016009805490506122b99190612ecc565b8152602001600081526020016000815260200182815250600760008473ffffffffffffffffffffffffffffffffffffffff1673ffffffffffffffffffffffffffffffffffffffff16815260200190815260200160002060008201518160000160006101000a81548160ff02191690836003811115612360577f4e487b7100000000000000000000000000000000000000000000000000000000600052602160045260246000fd5b02179055506020820151816001015560408201518160020155606082015181600301556080820151816004015560a08201518160050190805190602001906123a992919061246e565b509050507fead7e53082360d92e83a064e3ece44b1e729404ce32d71befd18587c6c777277826040516123dc9190612a81565b60405180910390a15050565b8280546123f490612fb9565b90600052602060002090601f016020900481019282612416576000855561245d565b82601f1061242f57805160ff191683800117855561245d565b8280016001018555821561245d579182015b8281111561245c578251825591602001919060010190612441565b5b50905061246a91906124f4565b5090565b82805461247a90612fb9565b90600052602060002090601f01602090048101928261249c57600085556124e3565b82601f106124b557805160ff19168380011785556124e3565b828001600101855582156124e3579182015b828111156124e25782518255916020019190600101906124c7565b5b5090506124f091906124f4565b5090565b5b8082111561250d5760008160009055506001016124f5565b5090565b600061252461251f84612d53565b612d22565b90508281526020810184848401111561253c57600080fd5b612547848285612f77565b509392505050565b600061256261255d84612d83565b612d22565b90508281526020810184848401111561257a57600080fd5b612585848285612f77565b509392505050565b60008135905061259c81613144565b92915050565b6000813590506125b18161315b565b92915050565b6000815190506125c68161315b565b92915050565b6000813590506125db81613172565b92915050565b600082601f8301126125f257600080fd5b8135612602848260208601612511565b91505092915050565b600082601f83011261261c57600080fd5b813561262c84826020860161254f565b91505092915050565b60008135905061264481613189565b92915050565b60006020828403121561265c57600080fd5b600061266a8482850161258d565b91505092915050565b6000806040838503121561268657600080fd5b60006126948582860161258d565b92505060206126a5858286016125cc565b9150509250929050565b600080604083850312156126c257600080fd5b60006126d08582860161258d565b925050602083013567ffffffffffffffff8111156126ed57600080fd5b6126f98582860161260b565b9150509250929050565b60008060006060848603121561271857600080fd5b60006127268682870161258d565b935050602061273786828701612635565b9250506040612748868287016125a2565b9150509250925092565b60006020828403121561276457600080fd5b6000612772848285016125b7565b91505092915050565b6000806040838503121561278e57600080fd5b600061279c858286016125cc565b925050602083013567ffffffffffffffff8111156127b957600080fd5b6127c5858286016125e1565b9150509250929050565b6000602082840312156127e157600080fd5b60006127ef84828501612635565b91505092915050565b61280181612f00565b82525050565b61281081612f12565b82525050565b61281f81612f1e565b82525050565b600061283082612db3565b61283a8185612dc9565b935061284a818560208601612f86565b6128538161311f565b840191505092915050565b61286781612f65565b82525050565b600061287882612dbe565b6128828185612dda565b9350612892818560208601612f86565b61289b8161311f565b840191505092915050565b60006128b3601983612dda565b91507f57616c6b65722063616e6e6f742062652062616e6973686564000000000000006000830152602082019050919050565b60006128f3601783612dda565b91507f77616c6b6572206861732077726f6e67207374617475730000000000000000006000830152602082019050919050565b6000612933602683612dda565b91507f4f6e6c7920726976656e64616c652063616e2063616c6c20746869732066756e60008301527f6374696f6e2e00000000000000000000000000000000000000000000000000006020830152604082019050919050565b6000612999601a83612dda565b91507f63616e6e6f7420616c726561647920626520612077616c6b65720000000000006000830152602082019050919050565b60006129d9602483612dda565b91507f686173206e6f74206265656e206c6f6e6720656e6f75676820746f207769746860008301527f64726177000000000000000000000000000000000000000000000000000000006020830152604082019050919050565b6000612a3f601783612dda565b91507f57616c6b6572206861732077726f6e67207374617475730000000000000000006000830152602082019050919050565b612a7b81612f5b565b82525050565b6000602082019050612a9660008301846127f8565b92915050565b6000606082019050612ab160008301866127f8565b612abe60208301856127f8565b612acb6040830184612a72565b949350505050565b6000606082019050612ae860008301866127f8565b612af56020830185612816565b8181036040830152612b078184612825565b9050949350505050565b6000604082019050612b2660008301856127f8565b612b336020830184612a72565b9392505050565b6000602082019050612b4f6000830184612807565b92915050565b60006020820190508181036000830152612b6f8184612825565b905092915050565b600060c082019050612b8c600083018961285e565b612b996020830188612a72565b612ba66040830187612a72565b612bb36060830186612a72565b612bc06080830185612a72565b81810360a0830152612bd2818461286d565b9050979650505050505050565b60006020820190508181036000830152612bf8816128a6565b9050919050565b60006020820190508181036000830152612c18816128e6565b9050919050565b60006020820190508181036000830152612c3881612926565b9050919050565b60006020820190508181036000830152612c588161298c565b9050919050565b60006020820190508181036000830152612c78816129cc565b9050919050565b60006020820190508181036000830152612c9881612a32565b9050919050565b6000602082019050612cb46000830184612a72565b92915050565b600060c082019050612ccf6000830189612a72565b612cdc6020830188612a72565b612ce9604083018761285e565b612cf66060830186612a72565b612d036080830185612a72565b81810360a0830152612d15818461286d565b9050979650505050505050565b6000604051905081810181811067ffffffffffffffff82111715612d4957612d486130f0565b5b8060405250919050565b600067ffffffffffffffff821115612d6e57612d6d6130f0565b5b601f19601f8301169050602081019050919050565b600067ffffffffffffffff821115612d9e57612d9d6130f0565b5b601f19601f8301169050602081019050919050565b600081519050919050565b600081519050919050565b600082825260208201905092915050565b600082825260208201905092915050565b6000612df682612f5b565b9150612e0183612f5b565b9250827fffffffffffffffffffffffffffffffffffffffffffffffffffffffffffffffff03821115612e3657612e35613034565b5b828201905092915050565b6000612e4c82612f5b565b9150612e5783612f5b565b925082612e6757612e66613063565b5b828204905092915050565b6000612e7d82612f5b565b9150612e8883612f5b565b9250817fffffffffffffffffffffffffffffffffffffffffffffffffffffffffffffffff0483118215151615612ec157612ec0613034565b5b828202905092915050565b6000612ed782612f5b565b9150612ee283612f5b565b925082821015612ef557612ef4613034565b5b828203905092915050565b6000612f0b82612f3b565b9050919050565b60008115159050919050565b6000819050919050565b6000819050612f3682613130565b919050565b600073ffffffffffffffffffffffffffffffffffffffff82169050919050565b6000819050919050565b6000612f7082612f28565b9050919050565b82818337600083830152505050565b60005b83811015612fa4578082015181840152602081019050612f89565b83811115612fb3576000848401525b50505050565b60006002820490506001821680612fd157607f821691505b60208210811415612fe557612fe46130c1565b5b50919050565b6000612ff682612f5b565b91507fffffffffffffffffffffffffffffffffffffffffffffffffffffffffffffffff82141561302957613028613034565b5b600182019050919050565b7f4e487b7100000000000000000000000000000000000000000000000000000000600052601160045260246000fd5b7f4e487b7100000000000000000000000000000000000000000000000000000000600052601260045260246000fd5b7f4e487b7100000000000000000000000000000000000000000000000000000000600052602160045260246000fd5b7f4e487b7100000000000000000000000000000000000000000000000000000000600052602260045260246000fd5b7f4e487b7100000000000000000000000000000000000000000000000000000000600052604160045260246000fd5b6000601f19601f8301169050919050565b6004811061314157613140613092565b5b50565b61314d81612f00565b811461315857600080fd5b50565b61316481612f12565b811461316f57600080fd5b50565b61317b81612f1e565b811461318657600080fd5b50565b61319281612f5b565b811461319d57600080fd5b5056fea2646970667358221220b7f9f4b6cf74ed1e785cbef53900a0f2823c9d2461c3447c8ac9cdca543c786f64736f6c63430008000033",
  "linkReferences": {},
  "deployedLinkReferences": {}
}