{
  "_format": "hh-sol-artifact-1",
  "contractName": "Rivendale",
  "sourceName": "contracts/Rivendale.sol",
  "abi": [
    {
      "inputs": [
        {
          "internalType": "address",
          "name": "_fellowship",
          "type": "address"
        }
      ],
      "stateMutability": "nonpayable",
      "type": "constructor"
    },
    {
      "anonymous": false,
      "inputs": [
        {
          "indexed": false,
          "internalType": "uint256",
          "name": "_voteID",
          "type": "uint256"
        },
        {
          "indexed": false,
          "internalType": "address",
          "name": "destination",
          "type": "address"
        },
        {
          "indexed": false,
          "internalType": "bytes",
          "name": "_data",
          "type": "bytes"
        }
      ],
      "name": "NewVote",
      "type": "event"
    },
    {
      "anonymous": false,
      "inputs": [
        {
          "indexed": false,
          "internalType": "uint256",
          "name": "_voteID",
          "type": "uint256"
        },
        {
          "indexed": false,
          "internalType": "bool",
          "name": "_passed",
          "type": "bool"
        }
      ],
      "name": "VoteSettled",
      "type": "event"
    },
    {
      "anonymous": false,
      "inputs": [
        {
          "indexed": false,
          "internalType": "uint256",
          "name": "_tally",
          "type": "uint256"
        },
        {
          "indexed": false,
          "internalType": "address",
          "name": "_user",
          "type": "address"
        }
      ],
      "name": "Voted",
      "type": "event"
    },
    {
      "inputs": [
        {
          "internalType": "uint256",
          "name": "_id",
          "type": "uint256"
        }
      ],
      "name": "getVoteInfo",
      "outputs": [
        {
          "internalType": "uint256[9]",
          "name": "",
          "type": "uint256[9]"
        },
        {
          "internalType": "bool",
          "name": "",
          "type": "bool"
        },
        {
          "internalType": "bytes32",
          "name": "",
          "type": "bytes32"
        }
      ],
      "stateMutability": "view",
      "type": "function"
    },
    {
      "inputs": [],
      "name": "getWeights",
      "outputs": [
        {
          "internalType": "uint256",
          "name": "",
          "type": "uint256"
        },
        {
          "internalType": "uint256",
          "name": "",
          "type": "uint256"
        },
        {
          "internalType": "uint256",
          "name": "",
          "type": "uint256"
        }
      ],
      "stateMutability": "view",
      "type": "function"
    },
    {
      "inputs": [
        {
          "internalType": "address",
          "name": "destination",
          "type": "address"
        },
        {
          "internalType": "bytes",
          "name": "_function",
          "type": "bytes"
        }
      ],
      "name": "openVote",
      "outputs": [],
      "stateMutability": "nonpayable",
      "type": "function"
    },
    {
      "inputs": [
        {
          "internalType": "uint256",
          "name": "_id",
          "type": "uint256"
        },
        {
          "internalType": "address",
          "name": "destination",
          "type": "address"
        },
        {
          "internalType": "bytes",
          "name": "data",
          "type": "bytes"
        }
      ],
      "name": "settleVote",
      "outputs": [
        {
          "internalType": "bool",
          "name": "succ",
          "type": "bool"
        },
        {
          "internalType": "bytes",
          "name": "res",
          "type": "bytes"
        }
      ],
      "stateMutability": "nonpayable",
      "type": "function"
    },
    {
      "inputs": [
        {
          "internalType": "uint256",
          "name": "_id",
          "type": "uint256"
        },
        {
          "internalType": "bool",
          "name": "_supports",
          "type": "bool"
        }
      ],
      "name": "vote",
      "outputs": [],
      "stateMutability": "nonpayable",
      "type": "function"
    },
    {
      "inputs": [],
      "name": "voteCount",
      "outputs": [
        {
          "internalType": "uint256",
          "name": "",
          "type": "uint256"
        }
      ],
      "stateMutability": "view",
      "type": "function"
    }
  ],
  "bytecode": "0x60806040523480156200001157600080fd5b5060405162001cf938038062001cf98339818101604052810190620000379190620000ce565b80600660006101000a81548173ffffffffffffffffffffffffffffffffffffffff021916908373ffffffffffffffffffffffffffffffffffffffff1602179055506200008e60c8610190806200009560201b60201c565b5062000148565b8260008001819055508060006002018190555081600060010181905550505050565b600081519050620000c8816200012e565b92915050565b600060208284031215620000e157600080fd5b6000620000f184828501620000b7565b91505092915050565b600062000107826200010e565b9050919050565b600073ffffffffffffffffffffffffffffffffffffffff82169050919050565b6200013981620000fa565b81146200014557600080fd5b50565b611ba180620001586000396000f3fe608060405234801561001057600080fd5b50600436106100625760003560e01c806322acb8671461006757806347c4e3291461008757806360217a26146100a35780638d824273146100d4578063c638407114610106578063c9d27afe14610124575b600080fd5b61006f610140565b60405161007e93929190611756565b60405180910390f35b6100a1600480360381019061009c919061100f565b610161565b005b6100bd60048036038101906100b891906110de565b6103a2565b6040516100cb9291906115bb565b60405180910390f35b6100ee60048036038101906100e9919061108c565b610676565b6040516100fd93929190611581565b60405180910390f35b61010e6107cf565b60405161011b91906116ab565b60405180910390f35b61013e6004803603810190610139919061114a565b6107d5565b005b60008060008060000154600060020154600060010154925092509250909192565b600660009054906101000a900473ffffffffffffffffffffffffffffffffffffffff1673ffffffffffffffffffffffffffffffffffffffff16631959ad5b6040518163ffffffff1660e01b815260040160206040518083038186803b1580156101c957600080fd5b505afa1580156101dd573d6000803e3d6000fd5b505050506040513d601f19601f820116820180604052508101906102019190610fe6565b73ffffffffffffffffffffffffffffffffffffffff166323b872dd33600660009054906101000a900473ffffffffffffffffffffffffffffffffffffffff16670de0b6b3a76400006040518463ffffffff1660e01b815260040161026793929190611521565b602060405180830381600087803b15801561028157600080fd5b505af1158015610295573d6000803e3d6000fd5b505050506040513d601f19601f820116820180604052508101906102b99190611063565b6102c257600080fd5b6001600560008282546102d59190611853565b92505081905550436004600060055481526020019081526020016000206008018190555042600460006005548152602001908152602001600020600701819055506000828260405160200161032b9291906114c5565b60405160208183030381529060405280519060200120905080600460006005548152602001908152602001600020600a01819055507fcbfd2960ac6eb812856269c25634d4a2649ed13dae779f046818665e861b5c316005548484604051610395939291906116ef565b60405180910390a1505050565b6000606062093a806004600088815260200190815260200160002060070154426103cc9190611934565b1161040c576040517f08c379a00000000000000000000000000000000000000000000000000000000081526004016104039061164b565b60405180910390fd5b621275006004600088815260200190815260200160002060070154426104329190611934565b10610472576040517f08c379a00000000000000000000000000000000000000000000000000000000081526004016104699061166b565b60405180910390fd5b8484846040516020016104879392919061149b565b6040516020818303038152906040528051906020012060046000888152602001908152602001600020600a0154146104f4576040517f08c379a00000000000000000000000000000000000000000000000000000000081526004016104eb9061162b565b60405180910390fd5b6004600087815260200190815260200160002060090160009054906101000a900460ff1615610558576040517f08c379a000000000000000000000000000000000000000000000000000000000815260040161054f9061160b565b60405180910390fd5b6101f4600460008881526020019081526020016000206006015411156105eb578473ffffffffffffffffffffffffffffffffffffffff16848460405161059f9291906114ed565b6000604051808303816000865af19150503d80600081146105dc576040519150601f19603f3d011682016040523d82523d6000602084013e6105e1565b606091505b5080925081935050505b60016004600088815260200190815260200160002060090160006101000a81548160ff0219169083151502179055507f1487edd25828cfcc76c6eb234dd7ac1484f9b353681490024bb09889669dd5c4866101f4600460008a8152602001908152602001600020600601541160405161066592919061172d565b60405180910390a194509492505050565b61067e610e93565b600080604051806101200160405280600460008781526020019081526020016000206000015481526020016004600087815260200190815260200160002060010154815260200160046000878152602001908152602001600020600201548152602001600460008781526020019081526020016000206003015481526020016004600087815260200190815260200160002060040154815260200160046000878152602001908152602001600020600501548152602001600460008781526020019081526020016000206006015481526020016004600087815260200190815260200160002060070154815260200160046000878152602001908152602001600020600801548152506004600086815260200190815260200160002060090160009054906101000a900460ff1660046000878152602001908152602001600020600a01549250925092509193909250565b60055481565b600360003373ffffffffffffffffffffffffffffffffffffffff1673ffffffffffffffffffffffffffffffffffffffff168152602001908152602001600020600083815260200190815260200160002060009054906101000a900460ff1615610873576040517f08c379a000000000000000000000000000000000000000000000000000000000815260040161086a9061168b565b60405180910390fd5b60006004600084815260200190815260200160002060070154116108cc576040517f08c379a00000000000000000000000000000000000000000000000000000000081526004016108c3906115eb565b60405180910390fd5b6000600660009054906101000a900473ffffffffffffffffffffffffffffffffffffffff1690508073ffffffffffffffffffffffffffffffffffffffff16634df260d7336040518263ffffffff1660e01b815260040161092c9190611506565b60206040518083038186803b15801561094457600080fd5b505afa158015610958573d6000803e3d6000fd5b505050506040513d601f19601f8201168201806040525081019061097c9190611063565b156109e1576004600084815260200190815260200160002060000160008154809291906109a890611a0e565b919050555081156109e0576004600084815260200190815260200160002060030160008154809291906109da90611a0e565b91905055505b5b8073ffffffffffffffffffffffffffffffffffffffff1663e2982c21336040518263ffffffff1660e01b8152600401610a1a9190611506565b60206040518083038186803b158015610a3257600080fd5b505afa158015610a46573d6000803e3d6000fd5b505050506040513d601f19601f82011682018060405250810190610a6a91906110b5565b600460008581526020019081526020016000206001016000828254610a8f9190611853565b9250508190555060008173ffffffffffffffffffffffffffffffffffffffff16631959ad5b6040518163ffffffff1660e01b815260040160206040518083038186803b158015610ade57600080fd5b505afa158015610af2573d6000803e3d6000fd5b505050506040513d601f19601f82011682018060405250810190610b169190610fe6565b73ffffffffffffffffffffffffffffffffffffffff16634ee2cd7e3360046000888152602001908152602001600020600801546040518363ffffffff1660e01b8152600401610b66929190611558565b602060405180830381600087803b158015610b8057600080fd5b505af1158015610b94573d6000803e3d6000fd5b505050506040513d601f19601f82011682018060405250810190610bb891906110b5565b905080600460008681526020019081526020016000206002016000828254610be09190611853565b925050819055508215610cd0578173ffffffffffffffffffffffffffffffffffffffff1663e2982c21336040518263ffffffff1660e01b8152600401610c269190611506565b60206040518083038186803b158015610c3e57600080fd5b505afa158015610c52573d6000803e3d6000fd5b505050506040513d601f19601f82011682018060405250810190610c7691906110b5565b600460008681526020019081526020016000206004016000828254610c9b9190611853565b9250508190555080600460008681526020019081526020016000206005016000828254610cc89190611853565b925050819055505b60046000858152602001908152602001600020600201546004600086815260200190815260200160002060050154610d0891906118a9565b6000800154610d1791906118da565b60046000868152602001908152602001600020600001546004600087815260200190815260200160002060030154610d4f91906118a9565b600060010154610d5f91906118da565b60046000878152602001908152602001600020600101546004600088815260200190815260200160002060040154610d9791906118a9565b600060020154610da791906118da565b610db19190611853565b610dbb9190611853565b60046000868152602001908152602001600020600601819055506001600360003373ffffffffffffffffffffffffffffffffffffffff1673ffffffffffffffffffffffffffffffffffffffff168152602001908152602001600020600086815260200190815260200160002060006101000a81548160ff0219169083151502179055507f030b0f8dcd86a031eddb071f91882edeac8173663ba775713b677b42b51be44b600460008681526020019081526020016000206006015433604051610e859291906116c6565b60405180910390a150505050565b604051806101200160405280600990602082028036833780820191505090505090565b6000610ec9610ec4846117be565b61178d565b905082815260208101848484011115610ee157600080fd5b610eec8482856119cc565b509392505050565b600081359050610f0381611b26565b92915050565b600081519050610f1881611b26565b92915050565b600081359050610f2d81611b3d565b92915050565b600081519050610f4281611b3d565b92915050565b60008083601f840112610f5a57600080fd5b8235905067ffffffffffffffff811115610f7357600080fd5b602083019150836001820283011115610f8b57600080fd5b9250929050565b600082601f830112610fa357600080fd5b8135610fb3848260208601610eb6565b91505092915050565b600081359050610fcb81611b54565b92915050565b600081519050610fe081611b54565b92915050565b600060208284031215610ff857600080fd5b600061100684828501610f09565b91505092915050565b6000806040838503121561102257600080fd5b600061103085828601610ef4565b925050602083013567ffffffffffffffff81111561104d57600080fd5b61105985828601610f92565b9150509250929050565b60006020828403121561107557600080fd5b600061108384828501610f33565b91505092915050565b60006020828403121561109e57600080fd5b60006110ac84828501610fbc565b91505092915050565b6000602082840312156110c757600080fd5b60006110d584828501610fd1565b91505092915050565b600080600080606085870312156110f457600080fd5b600061110287828801610fbc565b945050602061111387828801610ef4565b935050604085013567ffffffffffffffff81111561113057600080fd5b61113c87828801610f48565b925092505092959194509250565b6000806040838503121561115d57600080fd5b600061116b85828601610fbc565b925050602061117c85828601610f1e565b9150509250929050565b6000611192838361147d565b60208301905092915050565b6111a781611968565b82525050565b6111be6111b982611968565b611a57565b82525050565b6111cd816117f8565b6111d7818461181b565b92506111e2826117ee565b8060005b838110156112135781516111fa8782611186565b96506112058361180e565b9250506001810190506111e6565b505050505050565b6112248161197a565b82525050565b61123381611986565b82525050565b60006112458385611837565b93506112528385846119cc565b82840190509392505050565b600061126982611803565b6112738185611826565b93506112838185602086016119db565b61128c81611b08565b840191505092915050565b60006112a282611803565b6112ac8185611837565b93506112bc8185602086016119db565b80840191505092915050565b6112d1816119ba565b82525050565b60006112e4601483611842565b91507f766f7465206d75737420626520737461727465640000000000000000000000006000830152602082019050919050565b6000611324601d83611842565b91507f766f74652068617320616c7265616479206265656e20736574746c65640000006000830152602082019050919050565b6000611364601583611842565b91507f57726f6e6720616374696f6e2070726f766964656400000000000000000000006000830152602082019050919050565b60006113a4602283611842565b91507f766f746520686173206e6f74206265656e206f70656e206c6f6e6720656e6f7560008301527f67680000000000000000000000000000000000000000000000000000000000006020830152604082019050919050565b600061140a601f83611842565b91507f766f746520686173206661696c6564202f206265656e20746f6f206c6f6e67006000830152602082019050919050565b600061144a601983611842565b91507f616464726573732068617320616c726561647920766f746564000000000000006000830152602082019050919050565b611486816119b0565b82525050565b611495816119b0565b82525050565b60006114a782866111ad565b6014820191506114b8828486611239565b9150819050949350505050565b60006114d182856111ad565b6014820191506114e18284611297565b91508190509392505050565b60006114fa828486611239565b91508190509392505050565b600060208201905061151b600083018461119e565b92915050565b6000606082019050611536600083018661119e565b611543602083018561119e565b61155060408301846112c8565b949350505050565b600060408201905061156d600083018561119e565b61157a602083018461148c565b9392505050565b60006101608201905061159760008301866111c4565b6115a561012083018561121b565b6115b361014083018461122a565b949350505050565b60006040820190506115d0600083018561121b565b81810360208301526115e2818461125e565b90509392505050565b60006020820190508181036000830152611604816112d7565b9050919050565b6000602082019050818103600083015261162481611317565b9050919050565b6000602082019050818103600083015261164481611357565b9050919050565b6000602082019050818103600083015261166481611397565b9050919050565b60006020820190508181036000830152611684816113fd565b9050919050565b600060208201905081810360008301526116a48161143d565b9050919050565b60006020820190506116c0600083018461148c565b92915050565b60006040820190506116db600083018561148c565b6116e8602083018461119e565b9392505050565b6000606082019050611704600083018661148c565b611711602083018561119e565b8181036040830152611723818461125e565b9050949350505050565b6000604082019050611742600083018561148c565b61174f602083018461121b565b9392505050565b600060608201905061176b600083018661148c565b611778602083018561148c565b611785604083018461148c565b949350505050565b6000604051905081810181811067ffffffffffffffff821117156117b4576117b3611ad9565b5b8060405250919050565b600067ffffffffffffffff8211156117d9576117d8611ad9565b5b601f19601f8301169050602081019050919050565b6000819050919050565b600060099050919050565b600081519050919050565b6000602082019050919050565b600081905092915050565b600082825260208201905092915050565b600081905092915050565b600082825260208201905092915050565b600061185e826119b0565b9150611869836119b0565b9250827fffffffffffffffffffffffffffffffffffffffffffffffffffffffffffffffff0382111561189e5761189d611a7b565b5b828201905092915050565b60006118b4826119b0565b91506118bf836119b0565b9250826118cf576118ce611aaa565b5b828204905092915050565b60006118e5826119b0565b91506118f0836119b0565b9250817fffffffffffffffffffffffffffffffffffffffffffffffffffffffffffffffff048311821515161561192957611928611a7b565b5b828202905092915050565b600061193f826119b0565b915061194a836119b0565b92508282101561195d5761195c611a7b565b5b828203905092915050565b600061197382611990565b9050919050565b60008115159050919050565b6000819050919050565b600073ffffffffffffffffffffffffffffffffffffffff82169050919050565b6000819050919050565b60006119c5826119b0565b9050919050565b82818337600083830152505050565b60005b838110156119f95780820151818401526020810190506119de565b83811115611a08576000848401525b50505050565b6000611a19826119b0565b91507fffffffffffffffffffffffffffffffffffffffffffffffffffffffffffffffff821415611a4c57611a4b611a7b565b5b600182019050919050565b6000611a6282611a69565b9050919050565b6000611a7482611b19565b9050919050565b7f4e487b7100000000000000000000000000000000000000000000000000000000600052601160045260246000fd5b7f4e487b7100000000000000000000000000000000000000000000000000000000600052601260045260246000fd5b7f4e487b7100000000000000000000000000000000000000000000000000000000600052604160045260246000fd5b6000601f19601f8301169050919050565b60008160601b9050919050565b611b2f81611968565b8114611b3a57600080fd5b50565b611b468161197a565b8114611b5157600080fd5b50565b611b5d816119b0565b8114611b6857600080fd5b5056fea26469706673582212204c6d5798614e42d3abc0911fed9ecbdd691782e63baace8bd3af5c9b5330493264736f6c63430008000033",
  "linkReferences": {},
  "deployedLinkReferences": {}
}