{
  "_format": "hh-sol-artifact-1",
  "contractName": "Rivendale",
  "sourceName": "contracts/Rivendale.sol",
  "abi": [
    {
      "inputs": [
        {
          "internalType": "address",
          "name": "_fellowship",
          "type": "address"
        }
      ],
      "stateMutability": "nonpayable",
      "type": "constructor"
    },
    {
      "anonymous": false,
      "inputs": [
        {
          "indexed": false,
          "internalType": "uint256",
          "name": "voteID",
          "type": "uint256"
        },
        {
          "indexed": false,
          "internalType": "address",
          "name": "destination",
          "type": "address"
        },
        {
          "indexed": false,
          "internalType": "bytes",
          "name": "data",
          "type": "bytes"
        }
      ],
      "name": "NewVote",
      "type": "event"
    },
    {
      "anonymous": false,
      "inputs": [
        {
          "indexed": false,
          "internalType": "uint256",
          "name": "voteID",
          "type": "uint256"
        },
        {
          "indexed": false,
          "internalType": "bool",
          "name": "passed",
          "type": "bool"
        }
      ],
      "name": "VoteSettled",
      "type": "event"
    },
    {
      "anonymous": false,
      "inputs": [
        {
          "indexed": false,
          "internalType": "uint256",
          "name": "tally",
          "type": "uint256"
        },
        {
          "indexed": false,
          "internalType": "address",
          "name": "user",
          "type": "address"
        }
      ],
      "name": "Voted",
      "type": "event"
    },
    {
      "inputs": [],
      "name": "fellowship",
      "outputs": [
        {
          "internalType": "address",
          "name": "",
          "type": "address"
        }
      ],
      "stateMutability": "view",
      "type": "function"
    },
    {
      "inputs": [
        {
          "internalType": "uint256",
          "name": "_id",
          "type": "uint256"
        }
      ],
      "name": "getVoteInfo",
      "outputs": [
        {
          "internalType": "uint256[9]",
          "name": "",
          "type": "uint256[9]"
        },
        {
          "internalType": "bool",
          "name": "",
          "type": "bool"
        },
        {
          "internalType": "bytes32",
          "name": "",
          "type": "bytes32"
        }
      ],
      "stateMutability": "view",
      "type": "function"
    },
    {
      "inputs": [],
      "name": "getWeights",
      "outputs": [
        {
          "internalType": "uint256",
          "name": "",
          "type": "uint256"
        },
        {
          "internalType": "uint256",
          "name": "",
          "type": "uint256"
        },
        {
          "internalType": "uint256",
          "name": "",
          "type": "uint256"
        }
      ],
      "stateMutability": "view",
      "type": "function"
    },
    {
      "inputs": [
        {
          "internalType": "address",
          "name": "_destination",
          "type": "address"
        },
        {
          "internalType": "bytes",
          "name": "_function",
          "type": "bytes"
        }
      ],
      "name": "openVote",
      "outputs": [],
      "stateMutability": "nonpayable",
      "type": "function"
    },
    {
      "inputs": [
        {
          "internalType": "uint256",
          "name": "_id",
          "type": "uint256"
        },
        {
          "internalType": "address",
          "name": "_destination",
          "type": "address"
        },
        {
          "internalType": "bytes",
          "name": "_data",
          "type": "bytes"
        }
      ],
      "name": "settleVote",
      "outputs": [
        {
          "internalType": "bool",
          "name": "_succ",
          "type": "bool"
        },
        {
          "internalType": "bytes",
          "name": "_res",
          "type": "bytes"
        }
      ],
      "stateMutability": "nonpayable",
      "type": "function"
    },
    {
      "inputs": [
        {
          "internalType": "uint256",
          "name": "_id",
          "type": "uint256"
        },
        {
          "internalType": "bool",
          "name": "_supports",
          "type": "bool"
        }
      ],
      "name": "vote",
      "outputs": [],
      "stateMutability": "nonpayable",
      "type": "function"
    },
    {
      "inputs": [],
      "name": "voteCount",
      "outputs": [
        {
          "internalType": "uint256",
          "name": "",
          "type": "uint256"
        }
      ],
      "stateMutability": "view",
      "type": "function"
    }
  ],
  "bytecode": "0x60806040523480156200001157600080fd5b50604051620021893803806200218983398181016040528101906200003791906200012f565b80600660006101000a81548173ffffffffffffffffffffffffffffffffffffffff021916908373ffffffffffffffffffffffffffffffffffffffff1602179055506200008e60c8610190806200009560201b60201c565b50620002b4565b6103e8828285620000a79190620001d0565b620000b39190620001d0565b14620000f6576040517f08c379a0000000000000000000000000000000000000000000000000000000008152600401620000ed906200019d565b60405180910390fd5b8260008001819055508060006002018190555081600060010181905550505050565b60008151905062000129816200029a565b92915050565b6000602082840312156200014257600080fd5b6000620001528482850162000118565b91505092915050565b60006200016a601883620001bf565b91507f77656967687473206d7573742073756d20746f203130303000000000000000006000830152602082019050919050565b60006020820190508181036000830152620001b8816200015b565b9050919050565b600082825260208201905092915050565b6000620001dd8262000261565b9150620001ea8362000261565b9250827fffffffffffffffffffffffffffffffffffffffffffffffffffffffffffffffff038211156200022257620002216200026b565b5b828201905092915050565b60006200023a8262000241565b9050919050565b600073ffffffffffffffffffffffffffffffffffffffff82169050919050565b6000819050919050565b7f4e487b7100000000000000000000000000000000000000000000000000000000600052601160045260246000fd5b620002a5816200022d565b8114620002b157600080fd5b50565b611ec580620002c46000396000f3fe608060405234801561001057600080fd5b506004361061007d5760003560e01c80638d8242731161005b5780638d824273146100ef578063a69bfaf514610121578063c63840711461013f578063c9d27afe1461015d5761007d565b806322acb8671461008257806347c4e329146100a257806360217a26146100be575b600080fd5b61008a610179565b60405161009993929190611a7a565b60405180910390f35b6100bc60048036038101906100b79190611333565b61019a565b005b6100d860048036038101906100d39190611402565b6103db565b6040516100e69291906118df565b60405180910390f35b610109600480360381019061010491906113b0565b610763565b604051610118939291906118a5565b60405180910390f35b6101296108bc565b604051610136919061182a565b60405180910390f35b6101476108e2565b60405161015491906119cf565b60405180910390f35b6101776004803603810190610172919061146e565b6108e8565b005b60008060008060000154600060020154600060010154925092509250909192565b600660009054906101000a900473ffffffffffffffffffffffffffffffffffffffff1673ffffffffffffffffffffffffffffffffffffffff16631959ad5b6040518163ffffffff1660e01b815260040160206040518083038186803b15801561020257600080fd5b505afa158015610216573d6000803e3d6000fd5b505050506040513d601f19601f8201168201806040525081019061023a919061130a565b73ffffffffffffffffffffffffffffffffffffffff166323b872dd33600660009054906101000a900473ffffffffffffffffffffffffffffffffffffffff16670de0b6b3a76400006040518463ffffffff1660e01b81526004016102a093929190611845565b602060405180830381600087803b1580156102ba57600080fd5b505af11580156102ce573d6000803e3d6000fd5b505050506040513d601f19601f820116820180604052508101906102f29190611387565b6102fb57600080fd5b60016005600082825461030e9190611b77565b9250508190555043600460006005548152602001908152602001600020600801819055504260046000600554815260200190815260200160002060070181905550600082826040516020016103649291906117e9565b60405160208183030381529060405280519060200120905080600460006005548152602001908152602001600020600a01819055507fcbfd2960ac6eb812856269c25634d4a2649ed13dae779f046818665e861b5c3160055484846040516103ce93929190611a13565b60405180910390a1505050565b6000606062093a806004600088815260200190815260200160002060070154426104059190611c58565b11610445576040517f08c379a000000000000000000000000000000000000000000000000000000000815260040161043c9061196f565b60405180910390fd5b6212750060046000888152602001908152602001600020600701544261046b9190611c58565b106104ab576040517f08c379a00000000000000000000000000000000000000000000000000000000081526004016104a29061198f565b60405180910390fd5b8484846040516020016104c0939291906117bf565b6040516020818303038152906040528051906020012060046000888152602001908152602001600020600a01541461052d576040517f08c379a00000000000000000000000000000000000000000000000000000000081526004016105249061194f565b60405180910390fd5b6004600087815260200190815260200160002060090160009054906101000a900460ff1615610591576040517f08c379a00000000000000000000000000000000000000000000000000000000081526004016105889061192f565b60405180910390fd5b60006103e890506000600460008981526020019081526020016000206002015414156105ca576000800154816105c79190611c58565b90505b6000600460008981526020019081526020016000206000015414156105fd57600060010154816105fa9190611c58565b90505b600060046000898152602001908152602001600020600101541415610630576000600201548161062d9190611c58565b90505b60028161063d9190611bcd565b600460008981526020019081526020016000206006015411156106cd578573ffffffffffffffffffffffffffffffffffffffff168585604051610681929190611811565b6000604051808303816000865af19150503d80600081146106be576040519150601f19603f3d011682016040523d82523d6000602084013e6106c3565b606091505b5080935081945050505b60016004600089815260200190815260200160002060090160006101000a81548160ff0219169083151502179055507f1487edd25828cfcc76c6eb234dd7ac1484f9b353681490024bb09889669dd5c48760028361072b9190611bcd565b600460008b81526020019081526020016000206006015411604051610751929190611a51565b60405180910390a15094509492505050565b61076b611195565b600080604051806101200160405280600460008781526020019081526020016000206000015481526020016004600087815260200190815260200160002060010154815260200160046000878152602001908152602001600020600201548152602001600460008781526020019081526020016000206003015481526020016004600087815260200190815260200160002060040154815260200160046000878152602001908152602001600020600501548152602001600460008781526020019081526020016000206006015481526020016004600087815260200190815260200160002060070154815260200160046000878152602001908152602001600020600801548152506004600086815260200190815260200160002060090160009054906101000a900460ff1660046000878152602001908152602001600020600a01549250925092509193909250565b600660009054906101000a900473ffffffffffffffffffffffffffffffffffffffff1681565b60055481565b600360003373ffffffffffffffffffffffffffffffffffffffff1673ffffffffffffffffffffffffffffffffffffffff168152602001908152602001600020600083815260200190815260200160002060009054906101000a900460ff1615610986576040517f08c379a000000000000000000000000000000000000000000000000000000000815260040161097d906119af565b60405180910390fd5b60006004600084815260200190815260200160002060070154116109df576040517f08c379a00000000000000000000000000000000000000000000000000000000081526004016109d69061190f565b60405180910390fd5b6000600660009054906101000a900473ffffffffffffffffffffffffffffffffffffffff169050610a0e6111b8565b8173ffffffffffffffffffffffffffffffffffffffff16634df260d7336040518263ffffffff1660e01b8152600401610a47919061182a565b60206040518083038186803b158015610a5f57600080fd5b505afa158015610a73573d6000803e3d6000fd5b505050506040513d601f19601f82011682018060405250810190610a979190611387565b15610afc57600460008581526020019081526020016000206000016000815480929190610ac390611d32565b91905055508215610afb57600460008581526020019081526020016000206003016000815480929190610af590611d32565b91905055505b5b600060046000868152602001908152602001600020600001541115610ba75760046000858152602001908152602001600020600001546004600086815260200190815260200160002060030154610b539190611bcd565b600060010154610b639190611bfe565b81600060038110610b9d577f4e487b7100000000000000000000000000000000000000000000000000000000600052603260045260246000fd5b6020020181815250505b8173ffffffffffffffffffffffffffffffffffffffff1663e2982c21336040518263ffffffff1660e01b8152600401610be0919061182a565b60206040518083038186803b158015610bf857600080fd5b505afa158015610c0c573d6000803e3d6000fd5b505050506040513d601f19601f82011682018060405250810190610c3091906113d9565b600460008681526020019081526020016000206001016000828254610c559190611b77565b9250508190555060008273ffffffffffffffffffffffffffffffffffffffff16631959ad5b6040518163ffffffff1660e01b815260040160206040518083038186803b158015610ca457600080fd5b505afa158015610cb8573d6000803e3d6000fd5b505050506040513d601f19601f82011682018060405250810190610cdc919061130a565b73ffffffffffffffffffffffffffffffffffffffff16634ee2cd7e3360046000898152602001908152602001600020600801546040518363ffffffff1660e01b8152600401610d2c92919061187c565b602060405180830381600087803b158015610d4657600080fd5b505af1158015610d5a573d6000803e3d6000fd5b505050506040513d601f19601f82011682018060405250810190610d7e91906113d9565b905080600460008781526020019081526020016000206002016000828254610da69190611b77565b925050819055508315610e96578273ffffffffffffffffffffffffffffffffffffffff1663e2982c21336040518263ffffffff1660e01b8152600401610dec919061182a565b60206040518083038186803b158015610e0457600080fd5b505afa158015610e18573d6000803e3d6000fd5b505050506040513d601f19601f82011682018060405250810190610e3c91906113d9565b600460008781526020019081526020016000206004016000828254610e619190611b77565b9250508190555080600460008781526020019081526020016000206005016000828254610e8e9190611b77565b925050819055505b600060046000878152602001908152602001600020600101541115610f415760046000868152602001908152602001600020600101546004600087815260200190815260200160002060040154610eed9190611bcd565b600060020154610efd9190611bfe565b82600160038110610f37577f4e487b7100000000000000000000000000000000000000000000000000000000600052603260045260246000fd5b6020020181815250505b600060046000878152602001908152602001600020600201541115610feb5760046000868152602001908152602001600020600201546004600087815260200190815260200160002060050154610f989190611bcd565b6000800154610fa79190611bfe565b82600260038110610fe1577f4e487b7100000000000000000000000000000000000000000000000000000000600052603260045260246000fd5b6020020181815250505b81600260038110611025577f4e487b7100000000000000000000000000000000000000000000000000000000600052603260045260246000fd5b602002015182600160038110611064577f4e487b7100000000000000000000000000000000000000000000000000000000600052603260045260246000fd5b6020020151836000600381106110a3577f4e487b7100000000000000000000000000000000000000000000000000000000600052603260045260246000fd5b60200201516110b29190611b77565b6110bc9190611b77565b60046000878152602001908152602001600020600601819055506001600360003373ffffffffffffffffffffffffffffffffffffffff1673ffffffffffffffffffffffffffffffffffffffff168152602001908152602001600020600087815260200190815260200160002060006101000a81548160ff0219169083151502179055507f030b0f8dcd86a031eddb071f91882edeac8173663ba775713b677b42b51be44b6004600087815260200190815260200160002060060154336040516111869291906119ea565b60405180910390a15050505050565b604051806101200160405280600990602082028036833780820191505090505090565b6040518060600160405280600390602082028036833780820191505090505090565b60006111ed6111e884611ae2565b611ab1565b90508281526020810184848401111561120557600080fd5b611210848285611cf0565b509392505050565b60008135905061122781611e4a565b92915050565b60008151905061123c81611e4a565b92915050565b60008135905061125181611e61565b92915050565b60008151905061126681611e61565b92915050565b60008083601f84011261127e57600080fd5b8235905067ffffffffffffffff81111561129757600080fd5b6020830191508360018202830111156112af57600080fd5b9250929050565b600082601f8301126112c757600080fd5b81356112d78482602086016111da565b91505092915050565b6000813590506112ef81611e78565b92915050565b60008151905061130481611e78565b92915050565b60006020828403121561131c57600080fd5b600061132a8482850161122d565b91505092915050565b6000806040838503121561134657600080fd5b600061135485828601611218565b925050602083013567ffffffffffffffff81111561137157600080fd5b61137d858286016112b6565b9150509250929050565b60006020828403121561139957600080fd5b60006113a784828501611257565b91505092915050565b6000602082840312156113c257600080fd5b60006113d0848285016112e0565b91505092915050565b6000602082840312156113eb57600080fd5b60006113f9848285016112f5565b91505092915050565b6000806000806060858703121561141857600080fd5b6000611426878288016112e0565b945050602061143787828801611218565b935050604085013567ffffffffffffffff81111561145457600080fd5b6114608782880161126c565b925092505092959194509250565b6000806040838503121561148157600080fd5b600061148f858286016112e0565b92505060206114a085828601611242565b9150509250929050565b60006114b683836117a1565b60208301905092915050565b6114cb81611c8c565b82525050565b6114e26114dd82611c8c565b611d7b565b82525050565b6114f181611b1c565b6114fb8184611b3f565b925061150682611b12565b8060005b8381101561153757815161151e87826114aa565b965061152983611b32565b92505060018101905061150a565b505050505050565b61154881611c9e565b82525050565b61155781611caa565b82525050565b60006115698385611b5b565b9350611576838584611cf0565b82840190509392505050565b600061158d82611b27565b6115978185611b4a565b93506115a7818560208601611cff565b6115b081611e2c565b840191505092915050565b60006115c682611b27565b6115d08185611b5b565b93506115e0818560208601611cff565b80840191505092915050565b6115f581611cde565b82525050565b6000611608601483611b66565b91507f766f7465206d75737420626520737461727465640000000000000000000000006000830152602082019050919050565b6000611648601d83611b66565b91507f766f74652068617320616c7265616479206265656e20736574746c65640000006000830152602082019050919050565b6000611688601583611b66565b91507f57726f6e6720616374696f6e2070726f766964656400000000000000000000006000830152602082019050919050565b60006116c8602283611b66565b91507f766f746520686173206e6f74206265656e206f70656e206c6f6e6720656e6f7560008301527f67680000000000000000000000000000000000000000000000000000000000006020830152604082019050919050565b600061172e601f83611b66565b91507f766f746520686173206661696c6564202f206265656e20746f6f206c6f6e67006000830152602082019050919050565b600061176e601983611b66565b91507f616464726573732068617320616c726561647920766f746564000000000000006000830152602082019050919050565b6117aa81611cd4565b82525050565b6117b981611cd4565b82525050565b60006117cb82866114d1565b6014820191506117dc82848661155d565b9150819050949350505050565b60006117f582856114d1565b60148201915061180582846115bb565b91508190509392505050565b600061181e82848661155d565b91508190509392505050565b600060208201905061183f60008301846114c2565b92915050565b600060608201905061185a60008301866114c2565b61186760208301856114c2565b61187460408301846115ec565b949350505050565b600060408201905061189160008301856114c2565b61189e60208301846117b0565b9392505050565b6000610160820190506118bb60008301866114e8565b6118c961012083018561153f565b6118d761014083018461154e565b949350505050565b60006040820190506118f4600083018561153f565b81810360208301526119068184611582565b90509392505050565b60006020820190508181036000830152611928816115fb565b9050919050565b600060208201905081810360008301526119488161163b565b9050919050565b600060208201905081810360008301526119688161167b565b9050919050565b60006020820190508181036000830152611988816116bb565b9050919050565b600060208201905081810360008301526119a881611721565b9050919050565b600060208201905081810360008301526119c881611761565b9050919050565b60006020820190506119e460008301846117b0565b92915050565b60006040820190506119ff60008301856117b0565b611a0c60208301846114c2565b9392505050565b6000606082019050611a2860008301866117b0565b611a3560208301856114c2565b8181036040830152611a478184611582565b9050949350505050565b6000604082019050611a6660008301856117b0565b611a73602083018461153f565b9392505050565b6000606082019050611a8f60008301866117b0565b611a9c60208301856117b0565b611aa960408301846117b0565b949350505050565b6000604051905081810181811067ffffffffffffffff82111715611ad857611ad7611dfd565b5b8060405250919050565b600067ffffffffffffffff821115611afd57611afc611dfd565b5b601f19601f8301169050602081019050919050565b6000819050919050565b600060099050919050565b600081519050919050565b6000602082019050919050565b600081905092915050565b600082825260208201905092915050565b600081905092915050565b600082825260208201905092915050565b6000611b8282611cd4565b9150611b8d83611cd4565b9250827fffffffffffffffffffffffffffffffffffffffffffffffffffffffffffffffff03821115611bc257611bc1611d9f565b5b828201905092915050565b6000611bd882611cd4565b9150611be383611cd4565b925082611bf357611bf2611dce565b5b828204905092915050565b6000611c0982611cd4565b9150611c1483611cd4565b9250817fffffffffffffffffffffffffffffffffffffffffffffffffffffffffffffffff0483118215151615611c4d57611c4c611d9f565b5b828202905092915050565b6000611c6382611cd4565b9150611c6e83611cd4565b925082821015611c8157611c80611d9f565b5b828203905092915050565b6000611c9782611cb4565b9050919050565b60008115159050919050565b6000819050919050565b600073ffffffffffffffffffffffffffffffffffffffff82169050919050565b6000819050919050565b6000611ce982611cd4565b9050919050565b82818337600083830152505050565b60005b83811015611d1d578082015181840152602081019050611d02565b83811115611d2c576000848401525b50505050565b6000611d3d82611cd4565b91507fffffffffffffffffffffffffffffffffffffffffffffffffffffffffffffffff821415611d7057611d6f611d9f565b5b600182019050919050565b6000611d8682611d8d565b9050919050565b6000611d9882611e3d565b9050919050565b7f4e487b7100000000000000000000000000000000000000000000000000000000600052601160045260246000fd5b7f4e487b7100000000000000000000000000000000000000000000000000000000600052601260045260246000fd5b7f4e487b7100000000000000000000000000000000000000000000000000000000600052604160045260246000fd5b6000601f19601f8301169050919050565b60008160601b9050919050565b611e5381611c8c565b8114611e5e57600080fd5b50565b611e6a81611c9e565b8114611e7557600080fd5b50565b611e8181611cd4565b8114611e8c57600080fd5b5056fea26469706673582212203b0d0c6bf4c202a5ddc0c1f5d7790e2eed548e2b7ecd0f9cac95866fe5760d3964736f6c63430008000033",
  "linkReferences": {},
  "deployedLinkReferences": {}
}