{
  "_format": "hh-sol-artifact-1",
  "contractName": "Rivendale",
  "sourceName": "contracts/Rivendale.sol",
  "abi": [
    {
      "inputs": [
        {
          "internalType": "address",
          "name": "_fellowship",
          "type": "address"
        }
      ],
      "stateMutability": "nonpayable",
      "type": "constructor"
    },
    {
      "anonymous": false,
      "inputs": [
        {
          "indexed": false,
          "internalType": "uint256",
          "name": "_voteID",
          "type": "uint256"
        },
        {
          "indexed": false,
          "internalType": "address",
          "name": "destination",
          "type": "address"
        },
        {
          "indexed": false,
          "internalType": "bytes",
          "name": "_data",
          "type": "bytes"
        }
      ],
      "name": "NewVote",
      "type": "event"
    },
    {
      "anonymous": false,
      "inputs": [
        {
          "indexed": false,
          "internalType": "uint256",
          "name": "_voteID",
          "type": "uint256"
        },
        {
          "indexed": false,
          "internalType": "bool",
          "name": "_passed",
          "type": "bool"
        }
      ],
      "name": "VoteSettled",
      "type": "event"
    },
    {
      "anonymous": false,
      "inputs": [
        {
          "indexed": false,
          "internalType": "uint256",
          "name": "_tally",
          "type": "uint256"
        },
        {
          "indexed": false,
          "internalType": "address",
          "name": "_user",
          "type": "address"
        }
      ],
      "name": "Voted",
      "type": "event"
    },
    {
      "inputs": [
        {
          "internalType": "uint256",
          "name": "_id",
          "type": "uint256"
        }
      ],
      "name": "getVoteInfo",
      "outputs": [
        {
          "internalType": "uint256[9]",
          "name": "",
          "type": "uint256[9]"
        },
        {
          "internalType": "bool",
          "name": "",
          "type": "bool"
        },
        {
          "internalType": "bytes32",
          "name": "",
          "type": "bytes32"
        }
      ],
      "stateMutability": "view",
      "type": "function"
    },
    {
      "inputs": [],
      "name": "getWeights",
      "outputs": [
        {
          "internalType": "uint256",
          "name": "",
          "type": "uint256"
        },
        {
          "internalType": "uint256",
          "name": "",
          "type": "uint256"
        },
        {
          "internalType": "uint256",
          "name": "",
          "type": "uint256"
        }
      ],
      "stateMutability": "view",
      "type": "function"
    },
    {
      "inputs": [
        {
          "internalType": "address",
          "name": "destination",
          "type": "address"
        },
        {
          "internalType": "bytes",
          "name": "_function",
          "type": "bytes"
        }
      ],
      "name": "openVote",
      "outputs": [],
      "stateMutability": "nonpayable",
      "type": "function"
    },
    {
      "inputs": [
        {
          "internalType": "uint256",
          "name": "_id",
          "type": "uint256"
        },
        {
          "internalType": "address",
          "name": "destination",
          "type": "address"
        },
        {
          "internalType": "bytes",
          "name": "data",
          "type": "bytes"
        }
      ],
      "name": "settleVote",
      "outputs": [
        {
          "internalType": "bool",
          "name": "succ",
          "type": "bool"
        },
        {
          "internalType": "bytes",
          "name": "res",
          "type": "bytes"
        }
      ],
      "stateMutability": "nonpayable",
      "type": "function"
    },
    {
      "inputs": [
        {
          "internalType": "uint256",
          "name": "_id",
          "type": "uint256"
        },
        {
          "internalType": "bool",
          "name": "_supports",
          "type": "bool"
        }
      ],
      "name": "vote",
      "outputs": [],
      "stateMutability": "nonpayable",
      "type": "function"
    },
    {
      "inputs": [],
      "name": "voteCount",
      "outputs": [
        {
          "internalType": "uint256",
          "name": "",
          "type": "uint256"
        }
      ],
      "stateMutability": "view",
      "type": "function"
    }
  ],
  "bytecode": "0x60806040523480156200001157600080fd5b5060405162001b7a38038062001b7a8339818101604052810190620000379190620000ce565b80600660006101000a81548173ffffffffffffffffffffffffffffffffffffffff021916908373ffffffffffffffffffffffffffffffffffffffff1602179055506200008e60c8610190806200009560201b60201c565b5062000148565b8260008001819055508060006002018190555081600060010181905550505050565b600081519050620000c8816200012e565b92915050565b600060208284031215620000e157600080fd5b6000620000f184828501620000b7565b91505092915050565b600062000107826200010e565b9050919050565b600073ffffffffffffffffffffffffffffffffffffffff82169050919050565b6200013981620000fa565b81146200014557600080fd5b50565b611a2280620001586000396000f3fe608060405234801561001057600080fd5b50600436106100625760003560e01c806322acb8671461006757806347c4e3291461008757806360217a26146100a35780638d824273146100d4578063c638407114610106578063c9d27afe14610124575b600080fd5b61006f610140565b60405161007e939291906115d7565b60405180910390f35b6100a1600480360381019061009c9190610f50565b610161565b005b6100bd60048036038101906100b8919061101f565b6103a2565b6040516100cb92919061147c565b60405180910390f35b6100ee60048036038101906100e99190610fcd565b610610565b6040516100fd93929190611442565b60405180910390f35b61010e610769565b60405161011b919061152c565b60405180910390f35b61013e6004803603810190610139919061108b565b61076f565b005b60008060008060000154600060020154600060010154925092509250909192565b600660009054906101000a900473ffffffffffffffffffffffffffffffffffffffff1673ffffffffffffffffffffffffffffffffffffffff16631959ad5b6040518163ffffffff1660e01b815260040160206040518083038186803b1580156101c957600080fd5b505afa1580156101dd573d6000803e3d6000fd5b505050506040513d601f19601f820116820180604052508101906102019190610f27565b73ffffffffffffffffffffffffffffffffffffffff166323b872dd33600660009054906101000a900473ffffffffffffffffffffffffffffffffffffffff16670de0b6b3a76400006040518463ffffffff1660e01b8152600401610267939291906113e2565b602060405180830381600087803b15801561028157600080fd5b505af1158015610295573d6000803e3d6000fd5b505050506040513d601f19601f820116820180604052508101906102b99190610fa4565b6102c257600080fd5b6001600560008282546102d591906116d4565b92505081905550436004600060055481526020019081526020016000206008018190555042600460006005548152602001908152602001600020600701819055506000828260405160200161032b929190611386565b60405160208183030381529060405280519060200120905080600460006005548152602001908152602001600020600a01819055507fcbfd2960ac6eb812856269c25634d4a2649ed13dae779f046818665e861b5c31600554848460405161039593929190611570565b60405180910390a1505050565b6000606062093a806004600088815260200190815260200160002060070154426103cc91906117b5565b1161040c576040517f08c379a0000000000000000000000000000000000000000000000000000000008152600401610403906114ec565b60405180910390fd5b8484846040516020016104219392919061135c565b6040516020818303038152906040528051906020012060046000888152602001908152602001600020600a01541461048e576040517f08c379a0000000000000000000000000000000000000000000000000000000008152600401610485906114cc565b60405180910390fd5b6004600087815260200190815260200160002060090160009054906101000a900460ff16156104f2576040517f08c379a00000000000000000000000000000000000000000000000000000000081526004016104e9906114ac565b60405180910390fd5b6101f460046000888152602001908152602001600020600601541115610585578473ffffffffffffffffffffffffffffffffffffffff1684846040516105399291906113ae565b6000604051808303816000865af19150503d8060008114610576576040519150601f19603f3d011682016040523d82523d6000602084013e61057b565b606091505b5080925081935050505b60016004600088815260200190815260200160002060090160006101000a81548160ff0219169083151502179055507f1487edd25828cfcc76c6eb234dd7ac1484f9b353681490024bb09889669dd5c4866101f4600460008a815260200190815260200160002060060154116040516105ff9291906115ae565b60405180910390a194509492505050565b610618610dd4565b600080604051806101200160405280600460008781526020019081526020016000206000015481526020016004600087815260200190815260200160002060010154815260200160046000878152602001908152602001600020600201548152602001600460008781526020019081526020016000206003015481526020016004600087815260200190815260200160002060040154815260200160046000878152602001908152602001600020600501548152602001600460008781526020019081526020016000206006015481526020016004600087815260200190815260200160002060070154815260200160046000878152602001908152602001600020600801548152506004600086815260200190815260200160002060090160009054906101000a900460ff1660046000878152602001908152602001600020600a01549250925092509193909250565b60055481565b600360003373ffffffffffffffffffffffffffffffffffffffff1673ffffffffffffffffffffffffffffffffffffffff168152602001908152602001600020600083815260200190815260200160002060009054906101000a900460ff161561080d576040517f08c379a00000000000000000000000000000000000000000000000000000000081526004016108049061150c565b60405180910390fd5b6000600660009054906101000a900473ffffffffffffffffffffffffffffffffffffffff1690508073ffffffffffffffffffffffffffffffffffffffff16634df260d7336040518263ffffffff1660e01b815260040161086d91906113c7565b60206040518083038186803b15801561088557600080fd5b505afa158015610899573d6000803e3d6000fd5b505050506040513d601f19601f820116820180604052508101906108bd9190610fa4565b15610922576004600084815260200190815260200160002060000160008154809291906108e99061188f565b919050555081156109215760046000848152602001908152602001600020600301600081548092919061091b9061188f565b91905055505b5b8073ffffffffffffffffffffffffffffffffffffffff1663e2982c21336040518263ffffffff1660e01b815260040161095b91906113c7565b60206040518083038186803b15801561097357600080fd5b505afa158015610987573d6000803e3d6000fd5b505050506040513d601f19601f820116820180604052508101906109ab9190610ff6565b6004600085815260200190815260200160002060010160008282546109d091906116d4565b9250508190555060008173ffffffffffffffffffffffffffffffffffffffff16631959ad5b6040518163ffffffff1660e01b815260040160206040518083038186803b158015610a1f57600080fd5b505afa158015610a33573d6000803e3d6000fd5b505050506040513d601f19601f82011682018060405250810190610a579190610f27565b73ffffffffffffffffffffffffffffffffffffffff16634ee2cd7e3360046000888152602001908152602001600020600801546040518363ffffffff1660e01b8152600401610aa7929190611419565b602060405180830381600087803b158015610ac157600080fd5b505af1158015610ad5573d6000803e3d6000fd5b505050506040513d601f19601f82011682018060405250810190610af99190610ff6565b905080600460008681526020019081526020016000206002016000828254610b2191906116d4565b925050819055508215610c11578173ffffffffffffffffffffffffffffffffffffffff1663e2982c21336040518263ffffffff1660e01b8152600401610b6791906113c7565b60206040518083038186803b158015610b7f57600080fd5b505afa158015610b93573d6000803e3d6000fd5b505050506040513d601f19601f82011682018060405250810190610bb79190610ff6565b600460008681526020019081526020016000206004016000828254610bdc91906116d4565b9250508190555080600460008681526020019081526020016000206005016000828254610c0991906116d4565b925050819055505b60046000858152602001908152602001600020600201546004600086815260200190815260200160002060050154610c49919061172a565b6000800154610c58919061175b565b60046000868152602001908152602001600020600001546004600087815260200190815260200160002060030154610c90919061172a565b600060010154610ca0919061175b565b60046000878152602001908152602001600020600101546004600088815260200190815260200160002060040154610cd8919061172a565b600060020154610ce8919061175b565b610cf291906116d4565b610cfc91906116d4565b60046000868152602001908152602001600020600601819055506001600360003373ffffffffffffffffffffffffffffffffffffffff1673ffffffffffffffffffffffffffffffffffffffff168152602001908152602001600020600086815260200190815260200160002060006101000a81548160ff0219169083151502179055507f030b0f8dcd86a031eddb071f91882edeac8173663ba775713b677b42b51be44b600460008681526020019081526020016000206006015433604051610dc6929190611547565b60405180910390a150505050565b604051806101200160405280600990602082028036833780820191505090505090565b6000610e0a610e058461163f565b61160e565b905082815260208101848484011115610e2257600080fd5b610e2d84828561184d565b509392505050565b600081359050610e44816119a7565b92915050565b600081519050610e59816119a7565b92915050565b600081359050610e6e816119be565b92915050565b600081519050610e83816119be565b92915050565b60008083601f840112610e9b57600080fd5b8235905067ffffffffffffffff811115610eb457600080fd5b602083019150836001820283011115610ecc57600080fd5b9250929050565b600082601f830112610ee457600080fd5b8135610ef4848260208601610df7565b91505092915050565b600081359050610f0c816119d5565b92915050565b600081519050610f21816119d5565b92915050565b600060208284031215610f3957600080fd5b6000610f4784828501610e4a565b91505092915050565b60008060408385031215610f6357600080fd5b6000610f7185828601610e35565b925050602083013567ffffffffffffffff811115610f8e57600080fd5b610f9a85828601610ed3565b9150509250929050565b600060208284031215610fb657600080fd5b6000610fc484828501610e74565b91505092915050565b600060208284031215610fdf57600080fd5b6000610fed84828501610efd565b91505092915050565b60006020828403121561100857600080fd5b600061101684828501610f12565b91505092915050565b6000806000806060858703121561103557600080fd5b600061104387828801610efd565b945050602061105487828801610e35565b935050604085013567ffffffffffffffff81111561107157600080fd5b61107d87828801610e89565b925092505092959194509250565b6000806040838503121561109e57600080fd5b60006110ac85828601610efd565b92505060206110bd85828601610e5f565b9150509250929050565b60006110d3838361133e565b60208301905092915050565b6110e8816117e9565b82525050565b6110ff6110fa826117e9565b6118d8565b82525050565b61110e81611679565b611118818461169c565b92506111238261166f565b8060005b8381101561115457815161113b87826110c7565b96506111468361168f565b925050600181019050611127565b505050505050565b611165816117fb565b82525050565b61117481611807565b82525050565b600061118683856116b8565b935061119383858461184d565b82840190509392505050565b60006111aa82611684565b6111b481856116a7565b93506111c481856020860161185c565b6111cd81611989565b840191505092915050565b60006111e382611684565b6111ed81856116b8565b93506111fd81856020860161185c565b80840191505092915050565b6112128161183b565b82525050565b6000611225601d836116c3565b91507f766f74652068617320616c7265616479206265656e20736574746c65640000006000830152602082019050919050565b60006112656015836116c3565b91507f57726f6e6720616374696f6e2070726f766964656400000000000000000000006000830152602082019050919050565b60006112a56022836116c3565b91507f766f746520686173206e6f74206265656e206f70656e206c6f6e6720656e6f7560008301527f67680000000000000000000000000000000000000000000000000000000000006020830152604082019050919050565b600061130b6019836116c3565b91507f616464726573732068617320616c726561647920766f746564000000000000006000830152602082019050919050565b61134781611831565b82525050565b61135681611831565b82525050565b600061136882866110ee565b60148201915061137982848661117a565b9150819050949350505050565b600061139282856110ee565b6014820191506113a282846111d8565b91508190509392505050565b60006113bb82848661117a565b91508190509392505050565b60006020820190506113dc60008301846110df565b92915050565b60006060820190506113f760008301866110df565b61140460208301856110df565b6114116040830184611209565b949350505050565b600060408201905061142e60008301856110df565b61143b602083018461134d565b9392505050565b6000610160820190506114586000830186611105565b61146661012083018561115c565b61147461014083018461116b565b949350505050565b6000604082019050611491600083018561115c565b81810360208301526114a3818461119f565b90509392505050565b600060208201905081810360008301526114c581611218565b9050919050565b600060208201905081810360008301526114e581611258565b9050919050565b6000602082019050818103600083015261150581611298565b9050919050565b60006020820190508181036000830152611525816112fe565b9050919050565b6000602082019050611541600083018461134d565b92915050565b600060408201905061155c600083018561134d565b61156960208301846110df565b9392505050565b6000606082019050611585600083018661134d565b61159260208301856110df565b81810360408301526115a4818461119f565b9050949350505050565b60006040820190506115c3600083018561134d565b6115d0602083018461115c565b9392505050565b60006060820190506115ec600083018661134d565b6115f9602083018561134d565b611606604083018461134d565b949350505050565b6000604051905081810181811067ffffffffffffffff821117156116355761163461195a565b5b8060405250919050565b600067ffffffffffffffff82111561165a5761165961195a565b5b601f19601f8301169050602081019050919050565b6000819050919050565b600060099050919050565b600081519050919050565b6000602082019050919050565b600081905092915050565b600082825260208201905092915050565b600081905092915050565b600082825260208201905092915050565b60006116df82611831565b91506116ea83611831565b9250827fffffffffffffffffffffffffffffffffffffffffffffffffffffffffffffffff0382111561171f5761171e6118fc565b5b828201905092915050565b600061173582611831565b915061174083611831565b9250826117505761174f61192b565b5b828204905092915050565b600061176682611831565b915061177183611831565b9250817fffffffffffffffffffffffffffffffffffffffffffffffffffffffffffffffff04831182151516156117aa576117a96118fc565b5b828202905092915050565b60006117c082611831565b91506117cb83611831565b9250828210156117de576117dd6118fc565b5b828203905092915050565b60006117f482611811565b9050919050565b60008115159050919050565b6000819050919050565b600073ffffffffffffffffffffffffffffffffffffffff82169050919050565b6000819050919050565b600061184682611831565b9050919050565b82818337600083830152505050565b60005b8381101561187a57808201518184015260208101905061185f565b83811115611889576000848401525b50505050565b600061189a82611831565b91507fffffffffffffffffffffffffffffffffffffffffffffffffffffffffffffffff8214156118cd576118cc6118fc565b5b600182019050919050565b60006118e3826118ea565b9050919050565b60006118f58261199a565b9050919050565b7f4e487b7100000000000000000000000000000000000000000000000000000000600052601160045260246000fd5b7f4e487b7100000000000000000000000000000000000000000000000000000000600052601260045260246000fd5b7f4e487b7100000000000000000000000000000000000000000000000000000000600052604160045260246000fd5b6000601f19601f8301169050919050565b60008160601b9050919050565b6119b0816117e9565b81146119bb57600080fd5b50565b6119c7816117fb565b81146119d257600080fd5b50565b6119de81611831565b81146119e957600080fd5b5056fea264697066735822122026d55f734476c5e8f82f53456c52e8f7e8345d2cecaa4fb7765d4aa804b8fdc764736f6c63430008000033",
  "linkReferences": {},
  "deployedLinkReferences": {}
}