{
  "_format": "hh-sol-artifact-1",
  "contractName": "Rivendale",
  "sourceName": "contracts/Rivendale.sol",
  "abi": [
    {
      "inputs": [
        {
          "internalType": "address",
          "name": "_fellowship",
          "type": "address"
        }
      ],
      "stateMutability": "nonpayable",
      "type": "constructor"
    },
    {
      "anonymous": false,
      "inputs": [
        {
          "indexed": false,
          "internalType": "uint256",
          "name": "_voteID",
          "type": "uint256"
        },
        {
          "indexed": false,
          "internalType": "bytes",
          "name": "_data",
          "type": "bytes"
        }
      ],
      "name": "NewVote",
      "type": "event"
    },
    {
      "anonymous": false,
      "inputs": [
        {
          "indexed": false,
          "internalType": "uint256",
          "name": "_voteID",
          "type": "uint256"
        },
        {
          "indexed": false,
          "internalType": "bool",
          "name": "_passed",
          "type": "bool"
        }
      ],
      "name": "VoteSettled",
      "type": "event"
    },
    {
      "anonymous": false,
      "inputs": [
        {
          "indexed": false,
          "internalType": "uint256",
          "name": "_tally",
          "type": "uint256"
        },
        {
          "indexed": false,
          "internalType": "address",
          "name": "_user",
          "type": "address"
        }
      ],
      "name": "Voted",
      "type": "event"
    },
    {
      "inputs": [
        {
          "internalType": "bytes",
          "name": "_function",
          "type": "bytes"
        }
      ],
      "name": "openVote",
      "outputs": [],
      "stateMutability": "nonpayable",
      "type": "function"
    },
    {
      "inputs": [
        {
          "internalType": "uint256",
          "name": "_id",
          "type": "uint256"
        }
      ],
      "name": "settleVote",
      "outputs": [
        {
          "internalType": "bool",
          "name": "succ",
          "type": "bool"
        },
        {
          "internalType": "bytes",
          "name": "res",
          "type": "bytes"
        }
      ],
      "stateMutability": "nonpayable",
      "type": "function"
    },
    {
      "inputs": [
        {
          "internalType": "uint256",
          "name": "_id",
          "type": "uint256"
        },
        {
          "internalType": "bool",
          "name": "_supports",
          "type": "bool"
        }
      ],
      "name": "vote",
      "outputs": [],
      "stateMutability": "nonpayable",
      "type": "function"
    },
    {
      "inputs": [],
      "name": "voteCount",
      "outputs": [
        {
          "internalType": "uint256",
          "name": "",
          "type": "uint256"
        }
      ],
      "stateMutability": "view",
      "type": "function"
    }
  ],
  "bytecode": "0x608060405234801561001057600080fd5b5060405161108b38038061108b8339818101604052602081101561003357600080fd5b810190808051906020019092919050505080600660006101000a81548173ffffffffffffffffffffffffffffffffffffffff021916908373ffffffffffffffffffffffffffffffffffffffff16021790555061009960c86101908061009f60201b60201c565b506100c1565b8260008001819055508060006002018190555081600060010181905550505050565b610fbb806100d06000396000f3fe608060405234801561001057600080fd5b506004361061004c5760003560e01c80637d78b78a14610051578063b76821c51461010c578063c6384071146101bc578063c9d27afe146101da575b600080fd5b61010a6004803603602081101561006757600080fd5b810190808035906020019064010000000081111561008457600080fd5b82018360208201111561009657600080fd5b803590602001918460018302840111640100000000831117156100b857600080fd5b91908080601f016020809104026020016040519081016040528093929190818152602001838380828437600081840152601f19601f820116905080830192505050505050509192919290505050610214565b005b6101386004803603602081101561012257600080fd5b81019080803590602001909291905050506104b3565b60405180831515815260200180602001828103825283818151815260200191508051906020019080838360005b83811015610180578082015181840152602081019050610165565b50505050905090810190601f1680156101ad5780820380516001836020036101000a031916815260200191505b50935050505060405180910390f35b6101c4610802565b6040518082815260200191505060405180910390f35b610212600480360360408110156101f057600080fd5b8101908080359060200190929190803515159060200190929190505050610808565b005b600660009054906101000a900473ffffffffffffffffffffffffffffffffffffffff1673ffffffffffffffffffffffffffffffffffffffff16631959ad5b6040518163ffffffff1660e01b815260040160206040518083038186803b15801561027c57600080fd5b505afa158015610290573d6000803e3d6000fd5b505050506040513d60208110156102a657600080fd5b810190808051906020019092919050505073ffffffffffffffffffffffffffffffffffffffff166323b872dd336000670de0b6b3a76400006040518463ffffffff1660e01b8152600401808473ffffffffffffffffffffffffffffffffffffffff1681526020018373ffffffffffffffffffffffffffffffffffffffff1681526020018281526020019350505050602060405180830381600087803b15801561034e57600080fd5b505af1158015610362573d6000803e3d6000fd5b505050506040513d602081101561037857600080fd5b810190808051906020019092919050505061039257600080fd5b600160056000828254019250508190555043600460006005548152602001908152602001600020600a01819055504260046000600554815260200190815260200160002060090181905550806004600060055481526020019081526020016000206006019080519060200190610409929190610ec6565b507f3ee0dff556edc40f582a79e9a50b4cfd77e3b43bffee03d63f6d529b1f0b392b600554826040518083815260200180602001828103825283818151815260200191508051906020019080838360005b8381101561047557808201518184015260208101905061045a565b50505050905090810190601f1680156104a25780820380516001836020036101000a031916815260200191505b50935050505060405180910390a150565b6000606062093a80600460008581526020019081526020016000206009015442031161052a576040517f08c379a0000000000000000000000000000000000000000000000000000000008152600401808060200182810382526022815260200180610f646022913960400191505060405180910390fd5b6004600084815260200190815260200160002060080160009054906101000a900460ff16156105c1576040517f08c379a000000000000000000000000000000000000000000000000000000000815260040180806020018281038252601d8152602001807f766f74652068617320616c7265616479206265656e20736574746c656400000081525060200191505060405180910390fd5b6101f460046000858152602001908152602001600020600701541115610773576060600460008581526020019081526020016000206006018054600181600116156101000203166002900480601f01602080910402602001604051908101604052809291908181526020018280546001816001161561010002031660029004801561068d5780601f106106625761010080835404028352916020019161068d565b820191906000526020600020905b81548152906001019060200180831161067057829003601f168201915b50505050509050600660009054906101000a900473ffffffffffffffffffffffffffffffffffffffff1673ffffffffffffffffffffffffffffffffffffffff16816040518082805190602001908083835b6020831061070157805182526020820191506020810190506020830392506106de565b6001836020036101000a0380198251168184511680821785525050505050509050019150506000604051808303816000865af19150503d8060008114610763576040519150601f19603f3d011682016040523d82523d6000602084013e610768565b606091505b508093508194505050505b60016004600085815260200190815260200160002060080160006101000a81548160ff0219169083151502179055507f1487edd25828cfcc76c6eb234dd7ac1484f9b353681490024bb09889669dd5c4836101f46004600087815260200190815260200160002060070154116040518083815260200182151581526020019250505060405180910390a1915091565b60055481565b600360003373ffffffffffffffffffffffffffffffffffffffff1673ffffffffffffffffffffffffffffffffffffffff168152602001908152602001600020600083815260200190815260200160002060009054906101000a900460ff16156108d9576040517f08c379a00000000000000000000000000000000000000000000000000000000081526004018080602001828103825260198152602001807f616464726573732068617320616c726561647920766f7465640000000000000081525060200191505060405180910390fd5b6000600660009054906101000a900473ffffffffffffffffffffffffffffffffffffffff1690508073ffffffffffffffffffffffffffffffffffffffff16634df260d7336040518263ffffffff1660e01b8152600401808273ffffffffffffffffffffffffffffffffffffffff16815260200191505060206040518083038186803b15801561096757600080fd5b505afa15801561097b573d6000803e3d6000fd5b505050506040513d602081101561099157600080fd5b8101908080519060200190929190505050156109fb57600460008481526020019081526020016000206000016000815480929190600101919050555081156109fa5760046000848152602001908152602001600020600301600081548092919060010191905055505b5b8073ffffffffffffffffffffffffffffffffffffffff1663e2982c21336040518263ffffffff1660e01b8152600401808273ffffffffffffffffffffffffffffffffffffffff16815260200191505060206040518083038186803b158015610a6257600080fd5b505afa158015610a76573d6000803e3d6000fd5b505050506040513d6020811015610a8c57600080fd5b8101908080519060200190929190505050600460008581526020019081526020016000206001016000828254019250508190555060008173ffffffffffffffffffffffffffffffffffffffff16631959ad5b6040518163ffffffff1660e01b815260040160206040518083038186803b158015610b0857600080fd5b505afa158015610b1c573d6000803e3d6000fd5b505050506040513d6020811015610b3257600080fd5b810190808051906020019092919050505073ffffffffffffffffffffffffffffffffffffffff16634ee2cd7e3360046000888152602001908152602001600020600a01546040518363ffffffff1660e01b8152600401808373ffffffffffffffffffffffffffffffffffffffff16815260200182815260200192505050602060405180830381600087803b158015610bc957600080fd5b505af1158015610bdd573d6000803e3d6000fd5b505050506040513d6020811015610bf357600080fd5b810190808051906020019092919050505090508060046000868152602001908152602001600020600201600082825401925050819055508215610d1a578173ffffffffffffffffffffffffffffffffffffffff1663e2982c21336040518263ffffffff1660e01b8152600401808273ffffffffffffffffffffffffffffffffffffffff16815260200191505060206040518083038186803b158015610c9757600080fd5b505afa158015610cab573d6000803e3d6000fd5b505050506040513d6020811015610cc157600080fd5b810190808051906020019092919050505060046000868152602001908152602001600020600401600082825401925050819055508060046000868152602001908152602001600020600501600082825401925050819055505b6004600085815260200190815260200160002060020154600460008681526020019081526020016000206005015481610d4f57fe5b046000800154026004600086815260200190815260200160002060000154600460008781526020019081526020016000206003015481610d8b57fe5b04600060010154026004600087815260200190815260200160002060010154600460008881526020019081526020016000206004015481610dc857fe5b0460006002015402010160046000868152602001908152602001600020600701819055506001600360003373ffffffffffffffffffffffffffffffffffffffff1673ffffffffffffffffffffffffffffffffffffffff168152602001908152602001600020600086815260200190815260200160002060006101000a81548160ff0219169083151502179055507f030b0f8dcd86a031eddb071f91882edeac8173663ba775713b677b42b51be44b600460008681526020019081526020016000206007015433604051808381526020018273ffffffffffffffffffffffffffffffffffffffff1681526020019250505060405180910390a150505050565b828054600181600116156101000203166002900490600052602060002090601f016020900481019282601f10610f0757805160ff1916838001178555610f35565b82800160010185558215610f35579182015b82811115610f34578251825591602001919060010190610f19565b5b509050610f429190610f46565b5090565b5b80821115610f5f576000816000905550600101610f47565b509056fe766f746520686173206e6f74206265656e206f70656e206c6f6e6720656e6f756768a26469706673582212201d04b0f3a80d2de153ddb482bcefb9d71b57e32b97cdef0554884e6eb0e63b3664736f6c63430007030033",
  "linkReferences": {},
  "deployedLinkReferences": {}
}