{
  "_format": "hh-sol-artifact-1",
  "contractName": "Rivendale",
  "sourceName": "contracts/Rivendale.sol",
  "abi": [
    {
      "inputs": [
        {
          "internalType": "address",
          "name": "_fellowship",
          "type": "address"
        }
      ],
      "stateMutability": "nonpayable",
      "type": "constructor"
    },
    {
      "inputs": [
        {
          "internalType": "bytes",
          "name": "_function",
          "type": "bytes"
        }
      ],
      "name": "openVote",
      "outputs": [],
      "stateMutability": "nonpayable",
      "type": "function"
    },
    {
      "inputs": [
        {
          "internalType": "uint256",
          "name": "_id",
          "type": "uint256"
        }
      ],
      "name": "settleVote",
      "outputs": [
        {
          "internalType": "bool",
          "name": "succ",
          "type": "bool"
        },
        {
          "internalType": "bytes",
          "name": "res",
          "type": "bytes"
        }
      ],
      "stateMutability": "nonpayable",
      "type": "function"
    },
    {
      "inputs": [
        {
          "internalType": "uint256",
          "name": "_id",
          "type": "uint256"
        },
        {
          "internalType": "bool",
          "name": "_supports",
          "type": "bool"
        }
      ],
      "name": "vote",
      "outputs": [],
      "stateMutability": "nonpayable",
      "type": "function"
    },
    {
      "inputs": [],
      "name": "voteCount",
      "outputs": [
        {
          "internalType": "uint256",
          "name": "",
          "type": "uint256"
        }
      ],
      "stateMutability": "view",
      "type": "function"
    }
  ],
  "bytecode": "0x608060405234801561001057600080fd5b50604051610b50380380610b508339818101604052602081101561003357600080fd5b810190808051906020019092919050505080600360006101000a81548173ffffffffffffffffffffffffffffffffffffffff021916908373ffffffffffffffffffffffffffffffffffffffff16021790555050610abb806100956000396000f3fe608060405234801561001057600080fd5b506004361061004c5760003560e01c80637d78b78a14610051578063b76821c51461010c578063c6384071146101bc578063c9d27afe146101da575b600080fd5b61010a6004803603602081101561006757600080fd5b810190808035906020019064010000000081111561008457600080fd5b82018360208201111561009657600080fd5b803590602001918460018302840111640100000000831117156100b857600080fd5b91908080601f016020809104026020016040519081016040528093929190818152602001838380828437600081840152601f19601f820116905080830192505050505050509192919290505050610214565b005b6101386004803603602081101561012257600080fd5b8101908080359060200190929190505050610262565b60405180831515815260200180602001828103825283818151815260200191508051906020019080838360005b83811015610180578082015181840152602081019050610165565b50505050905090810190601f1680156101ad5780820380516001836020036101000a031916815260200191505b50935050505060405180910390f35b6101c46104a0565b6040518082815260200191505060405180910390f35b610212600480360360408110156101f057600080fd5b81019080803590602001909291908035151590602001909291905050506104a6565b005b600160026000828254019250508190555043600160006002548152602001908152602001600020600a0181905550426001600060025481526020019081526020016000206009018190555050565b6000606062093a80600160008581526020019081526020016000206009015442031161028d57600080fd5b6001600084815260200190815260200160002060080160009054906101000a900460ff16156102bb57600080fd5b6101f46001600085815260200190815260200160002060070154111561046d576060600160008581526020019081526020016000206006018054600181600116156101000203166002900480601f0160208091040260200160405190810160405280929190818152602001828054600181600116156101000203166002900480156103875780601f1061035c57610100808354040283529160200191610387565b820191906000526020600020905b81548152906001019060200180831161036a57829003601f168201915b50505050509050600360009054906101000a900473ffffffffffffffffffffffffffffffffffffffff1673ffffffffffffffffffffffffffffffffffffffff16816040518082805190602001908083835b602083106103fb57805182526020820191506020810190506020830392506103d8565b6001836020036101000a0380198251168184511680821785525050505050509050019150506000604051808303816000865af19150503d806000811461045d576040519150601f19603f3d011682016040523d82523d6000602084013e610462565b606091505b508093508194505050505b600180600085815260200190815260200160002060080160006101000a81548160ff021916908315150217905550915091565b60025481565b6000803373ffffffffffffffffffffffffffffffffffffffff1673ffffffffffffffffffffffffffffffffffffffff168152602001908152602001600020600083815260200190815260200160002060009054906101000a900460ff161561050d57600080fd5b6000600360009054906101000a900473ffffffffffffffffffffffffffffffffffffffff1690508073ffffffffffffffffffffffffffffffffffffffff16634df260d7336040518263ffffffff1660e01b8152600401808273ffffffffffffffffffffffffffffffffffffffff16815260200191505060206040518083038186803b15801561059b57600080fd5b505afa1580156105af573d6000803e3d6000fd5b505050506040513d60208110156105c557600080fd5b81019080805190602001909291905050501561062f576001600084815260200190815260200160002060000160008154809291906001019190505550811561062e5760016000848152602001908152602001600020600301600081548092919060010191905055505b5b8073ffffffffffffffffffffffffffffffffffffffff1663e2982c21336040518263ffffffff1660e01b8152600401808273ffffffffffffffffffffffffffffffffffffffff16815260200191505060206040518083038186803b15801561069657600080fd5b505afa1580156106aa573d6000803e3d6000fd5b505050506040513d60208110156106c057600080fd5b8101908080519060200190929190505050600160008581526020019081526020016000206001016000828254019250508190555060008173ffffffffffffffffffffffffffffffffffffffff16631959ad5b6040518163ffffffff1660e01b815260040160206040518083038186803b15801561073c57600080fd5b505afa158015610750573d6000803e3d6000fd5b505050506040513d602081101561076657600080fd5b810190808051906020019092919050505073ffffffffffffffffffffffffffffffffffffffff16634ee2cd7e3360016000888152602001908152602001600020600a01546040518363ffffffff1660e01b8152600401808373ffffffffffffffffffffffffffffffffffffffff16815260200182815260200192505050602060405180830381600087803b1580156107fd57600080fd5b505af1158015610811573d6000803e3d6000fd5b505050506040513d602081101561082757600080fd5b81019080805190602001909291905050509050806001600086815260200190815260200160002060020160008282540192505081905550821561094e578173ffffffffffffffffffffffffffffffffffffffff1663e2982c21336040518263ffffffff1660e01b8152600401808273ffffffffffffffffffffffffffffffffffffffff16815260200191505060206040518083038186803b1580156108cb57600080fd5b505afa1580156108df573d6000803e3d6000fd5b505050506040513d60208110156108f557600080fd5b810190808051906020019092919050505060016000868152602001908152602001600020600401600082825401925050819055508060016000868152602001908152602001600020600501600082825401925050819055505b600160008581526020019081526020016000206002015460016000868152602001908152602001600020600501548161098357fe5b0460c80260016000868152602001908152602001600020600001546001600087815260200190815260200160002060030154816109bc57fe5b046101900260016000878152602001908152602001600020600101546001600088815260200190815260200160002060040154816109f657fe5b04610190020101600160008681526020019081526020016000206007018190555060016000803373ffffffffffffffffffffffffffffffffffffffff1673ffffffffffffffffffffffffffffffffffffffff168152602001908152602001600020600086815260200190815260200160002060006101000a81548160ff0219169083151502179055505050505056fea2646970667358221220151cc64b7393809abd00398ed8aba5882b937b4ee6805795568a44271186217b64736f6c63430007030033",
  "linkReferences": {},
  "deployedLinkReferences": {}
}