{
  "_format": "hh-sol-artifact-1",
  "contractName": "Rivendale",
  "sourceName": "contracts/Rivendale.sol",
  "abi": [
    {
      "inputs": [
        {
          "internalType": "address",
          "name": "_fellowship",
          "type": "address"
        }
      ],
      "stateMutability": "nonpayable",
      "type": "constructor"
    },
    {
      "anonymous": false,
      "inputs": [
        {
          "indexed": false,
          "internalType": "uint256",
          "name": "_voteID",
          "type": "uint256"
        },
        {
          "indexed": false,
          "internalType": "address",
          "name": "destination",
          "type": "address"
        },
        {
          "indexed": false,
          "internalType": "bytes",
          "name": "_data",
          "type": "bytes"
        }
      ],
      "name": "NewVote",
      "type": "event"
    },
    {
      "anonymous": false,
      "inputs": [
        {
          "indexed": false,
          "internalType": "uint256",
          "name": "_voteID",
          "type": "uint256"
        },
        {
          "indexed": false,
          "internalType": "bool",
          "name": "_passed",
          "type": "bool"
        }
      ],
      "name": "VoteSettled",
      "type": "event"
    },
    {
      "anonymous": false,
      "inputs": [
        {
          "indexed": false,
          "internalType": "uint256",
          "name": "_tally",
          "type": "uint256"
        },
        {
          "indexed": false,
          "internalType": "address",
          "name": "_user",
          "type": "address"
        }
      ],
      "name": "Voted",
      "type": "event"
    },
    {
      "inputs": [],
      "name": "getWeights",
      "outputs": [
        {
          "internalType": "uint256",
          "name": "",
          "type": "uint256"
        },
        {
          "internalType": "uint256",
          "name": "",
          "type": "uint256"
        },
        {
          "internalType": "uint256",
          "name": "",
          "type": "uint256"
        }
      ],
      "stateMutability": "view",
      "type": "function"
    },
    {
      "inputs": [
        {
          "internalType": "address",
          "name": "destination",
          "type": "address"
        },
        {
          "internalType": "bytes",
          "name": "_function",
          "type": "bytes"
        }
      ],
      "name": "openVote",
      "outputs": [],
      "stateMutability": "nonpayable",
      "type": "function"
    },
    {
      "inputs": [
        {
          "internalType": "uint256",
          "name": "_id",
          "type": "uint256"
        },
        {
          "internalType": "address",
          "name": "destination",
          "type": "address"
        },
        {
          "internalType": "bytes",
          "name": "data",
          "type": "bytes"
        }
      ],
      "name": "settleVote",
      "outputs": [
        {
          "internalType": "bool",
          "name": "succ",
          "type": "bool"
        },
        {
          "internalType": "bytes",
          "name": "res",
          "type": "bytes"
        }
      ],
      "stateMutability": "nonpayable",
      "type": "function"
    },
    {
      "inputs": [
        {
          "internalType": "uint256",
          "name": "_id",
          "type": "uint256"
        },
        {
          "internalType": "bool",
          "name": "_supports",
          "type": "bool"
        }
      ],
      "name": "vote",
      "outputs": [],
      "stateMutability": "nonpayable",
      "type": "function"
    },
    {
      "inputs": [],
      "name": "voteCount",
      "outputs": [
        {
          "internalType": "uint256",
          "name": "",
          "type": "uint256"
        }
      ],
      "stateMutability": "view",
      "type": "function"
    }
  ],
  "bytecode": "0x60806040523480156200001157600080fd5b5060405162001879380380620018798339818101604052810190620000379190620000ce565b80600660006101000a81548173ffffffffffffffffffffffffffffffffffffffff021916908373ffffffffffffffffffffffffffffffffffffffff1602179055506200008e60c8610190806200009560201b60201c565b5062000148565b8260008001819055508060006002018190555081600060010181905550505050565b600081519050620000c8816200012e565b92915050565b600060208284031215620000e157600080fd5b6000620000f184828501620000b7565b91505092915050565b600062000107826200010e565b9050919050565b600073ffffffffffffffffffffffffffffffffffffffff82169050919050565b6200013981620000fa565b81146200014557600080fd5b50565b61172180620001586000396000f3fe608060405234801561001057600080fd5b50600436106100575760003560e01c806322acb8671461005c57806347c4e3291461007c57806360217a2614610098578063c6384071146100c9578063c9d27afe146100e7575b600080fd5b610064610103565b6040516100739392919061130d565b60405180910390f35b61009660048036038101906100919190610d76565b610124565b005b6100b260048036038101906100ad9190610e1c565b610344565b6040516100c09291906111b2565b60405180910390f35b6100d16105b2565b6040516100de9190611262565b60405180910390f35b61010160048036038101906100fc9190610e88565b6105b8565b005b60008060008060000154600060020154600060010154925092509250909192565b600660009054906101000a900473ffffffffffffffffffffffffffffffffffffffff1673ffffffffffffffffffffffffffffffffffffffff16631959ad5b6040518163ffffffff1660e01b815260040160206040518083038186803b15801561018c57600080fd5b505afa1580156101a0573d6000803e3d6000fd5b505050506040513d601f19601f820116820180604052508101906101c49190610d4d565b73ffffffffffffffffffffffffffffffffffffffff166323b872dd336000670de0b6b3a76400006040518463ffffffff1660e01b815260040161020993929190611152565b602060405180830381600087803b15801561022357600080fd5b505af1158015610237573d6000803e3d6000fd5b505050506040513d601f19601f8201168201806040525081019061025b9190610dca565b61026457600080fd5b60016005600082825461027791906113dd565b9250508190555043600460006005548152602001908152602001600020600801819055504260046000600554815260200190815260200160002060070181905550600082826040516020016102cd9291906110f6565b60405160208183030381529060405280519060200120905080600460006005548152602001908152602001600020600a01819055507fcbfd2960ac6eb812856269c25634d4a2649ed13dae779f046818665e861b5c316005548484604051610337939291906112a6565b60405180910390a1505050565b6000606062093a8060046000888152602001908152602001600020600701544261036e91906114be565b116103ae576040517f08c379a00000000000000000000000000000000000000000000000000000000081526004016103a590611222565b60405180910390fd5b8484846040516020016103c3939291906110cc565b6040516020818303038152906040528051906020012060046000888152602001908152602001600020600a015414610430576040517f08c379a000000000000000000000000000000000000000000000000000000000815260040161042790611202565b60405180910390fd5b6004600087815260200190815260200160002060090160009054906101000a900460ff1615610494576040517f08c379a000000000000000000000000000000000000000000000000000000000815260040161048b906111e2565b60405180910390fd5b6101f460046000888152602001908152602001600020600601541115610527578473ffffffffffffffffffffffffffffffffffffffff1684846040516104db92919061111e565b6000604051808303816000865af19150503d8060008114610518576040519150601f19603f3d011682016040523d82523d6000602084013e61051d565b606091505b5080925081935050505b60016004600088815260200190815260200160002060090160006101000a81548160ff0219169083151502179055507f1487edd25828cfcc76c6eb234dd7ac1484f9b353681490024bb09889669dd5c4866101f4600460008a815260200190815260200160002060060154116040516105a19291906112e4565b60405180910390a194509492505050565b60055481565b600360003373ffffffffffffffffffffffffffffffffffffffff1673ffffffffffffffffffffffffffffffffffffffff168152602001908152602001600020600083815260200190815260200160002060009054906101000a900460ff1615610656576040517f08c379a000000000000000000000000000000000000000000000000000000000815260040161064d90611242565b60405180910390fd5b6000600660009054906101000a900473ffffffffffffffffffffffffffffffffffffffff1690508073ffffffffffffffffffffffffffffffffffffffff16634df260d7336040518263ffffffff1660e01b81526004016106b69190611137565b60206040518083038186803b1580156106ce57600080fd5b505afa1580156106e2573d6000803e3d6000fd5b505050506040513d601f19601f820116820180604052508101906107069190610dca565b1561076b576004600084815260200190815260200160002060000160008154809291906107329061158e565b9190505550811561076a576004600084815260200190815260200160002060030160008154809291906107649061158e565b91905055505b5b8073ffffffffffffffffffffffffffffffffffffffff1663e2982c21336040518263ffffffff1660e01b81526004016107a49190611137565b60206040518083038186803b1580156107bc57600080fd5b505afa1580156107d0573d6000803e3d6000fd5b505050506040513d601f19601f820116820180604052508101906107f49190610df3565b60046000858152602001908152602001600020600101600082825461081991906113dd565b9250508190555060008173ffffffffffffffffffffffffffffffffffffffff16631959ad5b6040518163ffffffff1660e01b815260040160206040518083038186803b15801561086857600080fd5b505afa15801561087c573d6000803e3d6000fd5b505050506040513d601f19601f820116820180604052508101906108a09190610d4d565b73ffffffffffffffffffffffffffffffffffffffff16634ee2cd7e3360046000888152602001908152602001600020600801546040518363ffffffff1660e01b81526004016108f0929190611189565b602060405180830381600087803b15801561090a57600080fd5b505af115801561091e573d6000803e3d6000fd5b505050506040513d601f19601f820116820180604052508101906109429190610df3565b90508060046000868152602001908152602001600020600201600082825461096a91906113dd565b925050819055508215610a5a578173ffffffffffffffffffffffffffffffffffffffff1663e2982c21336040518263ffffffff1660e01b81526004016109b09190611137565b60206040518083038186803b1580156109c857600080fd5b505afa1580156109dc573d6000803e3d6000fd5b505050506040513d601f19601f82011682018060405250810190610a009190610df3565b600460008681526020019081526020016000206004016000828254610a2591906113dd565b9250508190555080600460008681526020019081526020016000206005016000828254610a5291906113dd565b925050819055505b60046000858152602001908152602001600020600201546004600086815260200190815260200160002060050154610a929190611433565b6000800154610aa19190611464565b60046000868152602001908152602001600020600001546004600087815260200190815260200160002060030154610ad99190611433565b600060010154610ae99190611464565b60046000878152602001908152602001600020600101546004600088815260200190815260200160002060040154610b219190611433565b600060020154610b319190611464565b610b3b91906113dd565b610b4591906113dd565b60046000868152602001908152602001600020600601819055506001600360003373ffffffffffffffffffffffffffffffffffffffff1673ffffffffffffffffffffffffffffffffffffffff168152602001908152602001600020600086815260200190815260200160002060006101000a81548160ff0219169083151502179055507f030b0f8dcd86a031eddb071f91882edeac8173663ba775713b677b42b51be44b600460008681526020019081526020016000206006015433604051610c0f92919061127d565b60405180910390a150505050565b6000610c30610c2b84611375565b611344565b905082815260208101848484011115610c4857600080fd5b610c5384828561154c565b509392505050565b600081359050610c6a816116a6565b92915050565b600081519050610c7f816116a6565b92915050565b600081359050610c94816116bd565b92915050565b600081519050610ca9816116bd565b92915050565b60008083601f840112610cc157600080fd5b8235905067ffffffffffffffff811115610cda57600080fd5b602083019150836001820283011115610cf257600080fd5b9250929050565b600082601f830112610d0a57600080fd5b8135610d1a848260208601610c1d565b91505092915050565b600081359050610d32816116d4565b92915050565b600081519050610d47816116d4565b92915050565b600060208284031215610d5f57600080fd5b6000610d6d84828501610c70565b91505092915050565b60008060408385031215610d8957600080fd5b6000610d9785828601610c5b565b925050602083013567ffffffffffffffff811115610db457600080fd5b610dc085828601610cf9565b9150509250929050565b600060208284031215610ddc57600080fd5b6000610dea84828501610c9a565b91505092915050565b600060208284031215610e0557600080fd5b6000610e1384828501610d38565b91505092915050565b60008060008060608587031215610e3257600080fd5b6000610e4087828801610d23565b9450506020610e5187828801610c5b565b935050604085013567ffffffffffffffff811115610e6e57600080fd5b610e7a87828801610caf565b925092505092959194509250565b60008060408385031215610e9b57600080fd5b6000610ea985828601610d23565b9250506020610eba85828601610c85565b9150509250929050565b610ecd816114f2565b82525050565b610ee4610edf826114f2565b6115d7565b82525050565b610ef381611504565b82525050565b6000610f0583856113c1565b9350610f1283858461154c565b82840190509392505050565b6000610f29826113a5565b610f3381856113b0565b9350610f4381856020860161155b565b610f4c81611688565b840191505092915050565b6000610f62826113a5565b610f6c81856113c1565b9350610f7c81856020860161155b565b80840191505092915050565b610f918161153a565b82525050565b6000610fa4601d836113cc565b91507f766f74652068617320616c7265616479206265656e20736574746c65640000006000830152602082019050919050565b6000610fe46015836113cc565b91507f57726f6e6720616374696f6e2070726f766964656400000000000000000000006000830152602082019050919050565b60006110246022836113cc565b91507f766f746520686173206e6f74206265656e206f70656e206c6f6e6720656e6f7560008301527f67680000000000000000000000000000000000000000000000000000000000006020830152604082019050919050565b600061108a6019836113cc565b91507f616464726573732068617320616c726561647920766f746564000000000000006000830152602082019050919050565b6110c681611530565b82525050565b60006110d88286610ed3565b6014820191506110e9828486610ef9565b9150819050949350505050565b60006111028285610ed3565b6014820191506111128284610f57565b91508190509392505050565b600061112b828486610ef9565b91508190509392505050565b600060208201905061114c6000830184610ec4565b92915050565b60006060820190506111676000830186610ec4565b6111746020830185610ec4565b6111816040830184610f88565b949350505050565b600060408201905061119e6000830185610ec4565b6111ab60208301846110bd565b9392505050565b60006040820190506111c76000830185610eea565b81810360208301526111d98184610f1e565b90509392505050565b600060208201905081810360008301526111fb81610f97565b9050919050565b6000602082019050818103600083015261121b81610fd7565b9050919050565b6000602082019050818103600083015261123b81611017565b9050919050565b6000602082019050818103600083015261125b8161107d565b9050919050565b600060208201905061127760008301846110bd565b92915050565b600060408201905061129260008301856110bd565b61129f6020830184610ec4565b9392505050565b60006060820190506112bb60008301866110bd565b6112c86020830185610ec4565b81810360408301526112da8184610f1e565b9050949350505050565b60006040820190506112f960008301856110bd565b6113066020830184610eea565b9392505050565b600060608201905061132260008301866110bd565b61132f60208301856110bd565b61133c60408301846110bd565b949350505050565b6000604051905081810181811067ffffffffffffffff8211171561136b5761136a611659565b5b8060405250919050565b600067ffffffffffffffff8211156113905761138f611659565b5b601f19601f8301169050602081019050919050565b600081519050919050565b600082825260208201905092915050565b600081905092915050565b600082825260208201905092915050565b60006113e882611530565b91506113f383611530565b9250827fffffffffffffffffffffffffffffffffffffffffffffffffffffffffffffffff03821115611428576114276115fb565b5b828201905092915050565b600061143e82611530565b915061144983611530565b9250826114595761145861162a565b5b828204905092915050565b600061146f82611530565b915061147a83611530565b9250817fffffffffffffffffffffffffffffffffffffffffffffffffffffffffffffffff04831182151516156114b3576114b26115fb565b5b828202905092915050565b60006114c982611530565b91506114d483611530565b9250828210156114e7576114e66115fb565b5b828203905092915050565b60006114fd82611510565b9050919050565b60008115159050919050565b600073ffffffffffffffffffffffffffffffffffffffff82169050919050565b6000819050919050565b600061154582611530565b9050919050565b82818337600083830152505050565b60005b8381101561157957808201518184015260208101905061155e565b83811115611588576000848401525b50505050565b600061159982611530565b91507fffffffffffffffffffffffffffffffffffffffffffffffffffffffffffffffff8214156115cc576115cb6115fb565b5b600182019050919050565b60006115e2826115e9565b9050919050565b60006115f482611699565b9050919050565b7f4e487b7100000000000000000000000000000000000000000000000000000000600052601160045260246000fd5b7f4e487b7100000000000000000000000000000000000000000000000000000000600052601260045260246000fd5b7f4e487b7100000000000000000000000000000000000000000000000000000000600052604160045260246000fd5b6000601f19601f8301169050919050565b60008160601b9050919050565b6116af816114f2565b81146116ba57600080fd5b50565b6116c681611504565b81146116d157600080fd5b50565b6116dd81611530565b81146116e857600080fd5b5056fea2646970667358221220351c0e262a3dc77137768609f2ee13b16bfb112ace3e7ffd5241e318843cbdb964736f6c63430008000033",
  "linkReferences": {},
  "deployedLinkReferences": {}
}