{
  "_format": "hh-sol-artifact-1",
  "contractName": "Rivendale",
  "sourceName": "contracts/Rivendale.sol",
  "abi": [
    {
      "inputs": [
        {
          "internalType": "address",
          "name": "_fellowship",
          "type": "address"
        }
      ],
      "stateMutability": "nonpayable",
      "type": "constructor"
    },
    {
      "anonymous": false,
      "inputs": [
        {
          "indexed": false,
          "internalType": "uint256",
          "name": "_voteID",
          "type": "uint256"
        },
        {
          "indexed": false,
          "internalType": "address",
          "name": "destination",
          "type": "address"
        },
        {
          "indexed": false,
          "internalType": "bytes",
          "name": "_data",
          "type": "bytes"
        }
      ],
      "name": "NewVote",
      "type": "event"
    },
    {
      "anonymous": false,
      "inputs": [
        {
          "indexed": false,
          "internalType": "uint256",
          "name": "_voteID",
          "type": "uint256"
        },
        {
          "indexed": false,
          "internalType": "bool",
          "name": "_passed",
          "type": "bool"
        }
      ],
      "name": "VoteSettled",
      "type": "event"
    },
    {
      "anonymous": false,
      "inputs": [
        {
          "indexed": false,
          "internalType": "uint256",
          "name": "_tally",
          "type": "uint256"
        },
        {
          "indexed": false,
          "internalType": "address",
          "name": "_user",
          "type": "address"
        }
      ],
      "name": "Voted",
      "type": "event"
    },
    {
      "inputs": [
        {
          "internalType": "address",
          "name": "destination",
          "type": "address"
        },
        {
          "internalType": "bytes",
          "name": "_function",
          "type": "bytes"
        }
      ],
      "name": "openVote",
      "outputs": [],
      "stateMutability": "nonpayable",
      "type": "function"
    },
    {
      "inputs": [
        {
          "internalType": "uint256",
          "name": "_id",
          "type": "uint256"
        },
        {
          "internalType": "address",
          "name": "destination",
          "type": "address"
        },
        {
          "internalType": "bytes",
          "name": "data",
          "type": "bytes"
        }
      ],
      "name": "settleVote",
      "outputs": [
        {
          "internalType": "bool",
          "name": "succ",
          "type": "bool"
        },
        {
          "internalType": "bytes",
          "name": "res",
          "type": "bytes"
        }
      ],
      "stateMutability": "nonpayable",
      "type": "function"
    },
    {
      "inputs": [
        {
          "internalType": "uint256",
          "name": "_id",
          "type": "uint256"
        },
        {
          "internalType": "bool",
          "name": "_supports",
          "type": "bool"
        }
      ],
      "name": "vote",
      "outputs": [],
      "stateMutability": "nonpayable",
      "type": "function"
    },
    {
      "inputs": [],
      "name": "voteCount",
      "outputs": [
        {
          "internalType": "uint256",
          "name": "",
          "type": "uint256"
        }
      ],
      "stateMutability": "view",
      "type": "function"
    }
  ],
  "bytecode": "0x60806040523480156200001157600080fd5b50604051620017f6380380620017f68339818101604052810190620000379190620000ce565b80600660006101000a81548173ffffffffffffffffffffffffffffffffffffffff021916908373ffffffffffffffffffffffffffffffffffffffff1602179055506200008e60c8610190806200009560201b60201c565b5062000148565b8260008001819055508060006002018190555081600060010181905550505050565b600081519050620000c8816200012e565b92915050565b600060208284031215620000e157600080fd5b6000620000f184828501620000b7565b91505092915050565b600062000107826200010e565b9050919050565b600073ffffffffffffffffffffffffffffffffffffffff82169050919050565b6200013981620000fa565b81146200014557600080fd5b50565b61169e80620001586000396000f3fe608060405234801561001057600080fd5b506004361061004c5760003560e01c806347c4e3291461005157806360217a261461006d578063c63840711461009e578063c9d27afe146100bc575b600080fd5b61006b60048036038101906100669190610d2a565b6100d8565b005b61008760048036038101906100829190610dd0565b6102f8565b604051610095929190611166565b60405180910390f35b6100a6610566565b6040516100b39190611216565b60405180910390f35b6100d660048036038101906100d19190610e3c565b61056c565b005b600660009054906101000a900473ffffffffffffffffffffffffffffffffffffffff1673ffffffffffffffffffffffffffffffffffffffff16631959ad5b6040518163ffffffff1660e01b815260040160206040518083038186803b15801561014057600080fd5b505afa158015610154573d6000803e3d6000fd5b505050506040513d601f19601f820116820180604052508101906101789190610d01565b73ffffffffffffffffffffffffffffffffffffffff166323b872dd336000670de0b6b3a76400006040518463ffffffff1660e01b81526004016101bd93929190611106565b602060405180830381600087803b1580156101d757600080fd5b505af11580156101eb573d6000803e3d6000fd5b505050506040513d601f19601f8201168201806040525081019061020f9190610d7e565b61021857600080fd5b60016005600082825461022b919061135a565b9250508190555043600460006005548152602001908152602001600020600801819055504260046000600554815260200190815260200160002060070181905550600082826040516020016102819291906110aa565b60405160208183030381529060405280519060200120905080600460006005548152602001908152602001600020600a01819055507fcbfd2960ac6eb812856269c25634d4a2649ed13dae779f046818665e861b5c3160055484846040516102eb9392919061125a565b60405180910390a1505050565b6000606062093a80600460008881526020019081526020016000206007015442610322919061143b565b11610362576040517f08c379a0000000000000000000000000000000000000000000000000000000008152600401610359906111d6565b60405180910390fd5b84848460405160200161037793929190611080565b6040516020818303038152906040528051906020012060046000888152602001908152602001600020600a0154146103e4576040517f08c379a00000000000000000000000000000000000000000000000000000000081526004016103db906111b6565b60405180910390fd5b6004600087815260200190815260200160002060090160009054906101000a900460ff1615610448576040517f08c379a000000000000000000000000000000000000000000000000000000000815260040161043f90611196565b60405180910390fd5b6101f4600460008881526020019081526020016000206006015411156104db578473ffffffffffffffffffffffffffffffffffffffff16848460405161048f9291906110d2565b6000604051808303816000865af19150503d80600081146104cc576040519150601f19603f3d011682016040523d82523d6000602084013e6104d1565b606091505b5080925081935050505b60016004600088815260200190815260200160002060090160006101000a81548160ff0219169083151502179055507f1487edd25828cfcc76c6eb234dd7ac1484f9b353681490024bb09889669dd5c4866101f4600460008a81526020019081526020016000206006015411604051610555929190611298565b60405180910390a194509492505050565b60055481565b600360003373ffffffffffffffffffffffffffffffffffffffff1673ffffffffffffffffffffffffffffffffffffffff168152602001908152602001600020600083815260200190815260200160002060009054906101000a900460ff161561060a576040517f08c379a0000000000000000000000000000000000000000000000000000000008152600401610601906111f6565b60405180910390fd5b6000600660009054906101000a900473ffffffffffffffffffffffffffffffffffffffff1690508073ffffffffffffffffffffffffffffffffffffffff16634df260d7336040518263ffffffff1660e01b815260040161066a91906110eb565b60206040518083038186803b15801561068257600080fd5b505afa158015610696573d6000803e3d6000fd5b505050506040513d601f19601f820116820180604052508101906106ba9190610d7e565b1561071f576004600084815260200190815260200160002060000160008154809291906106e69061150b565b9190505550811561071e576004600084815260200190815260200160002060030160008154809291906107189061150b565b91905055505b5b8073ffffffffffffffffffffffffffffffffffffffff1663e2982c21336040518263ffffffff1660e01b815260040161075891906110eb565b60206040518083038186803b15801561077057600080fd5b505afa158015610784573d6000803e3d6000fd5b505050506040513d601f19601f820116820180604052508101906107a89190610da7565b6004600085815260200190815260200160002060010160008282546107cd919061135a565b9250508190555060008173ffffffffffffffffffffffffffffffffffffffff16631959ad5b6040518163ffffffff1660e01b815260040160206040518083038186803b15801561081c57600080fd5b505afa158015610830573d6000803e3d6000fd5b505050506040513d601f19601f820116820180604052508101906108549190610d01565b73ffffffffffffffffffffffffffffffffffffffff16634ee2cd7e3360046000888152602001908152602001600020600801546040518363ffffffff1660e01b81526004016108a492919061113d565b602060405180830381600087803b1580156108be57600080fd5b505af11580156108d2573d6000803e3d6000fd5b505050506040513d601f19601f820116820180604052508101906108f69190610da7565b90508060046000868152602001908152602001600020600201600082825461091e919061135a565b925050819055508215610a0e578173ffffffffffffffffffffffffffffffffffffffff1663e2982c21336040518263ffffffff1660e01b815260040161096491906110eb565b60206040518083038186803b15801561097c57600080fd5b505afa158015610990573d6000803e3d6000fd5b505050506040513d601f19601f820116820180604052508101906109b49190610da7565b6004600086815260200190815260200160002060040160008282546109d9919061135a565b9250508190555080600460008681526020019081526020016000206005016000828254610a06919061135a565b925050819055505b60046000858152602001908152602001600020600201546004600086815260200190815260200160002060050154610a4691906113b0565b6000800154610a5591906113e1565b60046000868152602001908152602001600020600001546004600087815260200190815260200160002060030154610a8d91906113b0565b600060010154610a9d91906113e1565b60046000878152602001908152602001600020600101546004600088815260200190815260200160002060040154610ad591906113b0565b600060020154610ae591906113e1565b610aef919061135a565b610af9919061135a565b60046000868152602001908152602001600020600601819055506001600360003373ffffffffffffffffffffffffffffffffffffffff1673ffffffffffffffffffffffffffffffffffffffff168152602001908152602001600020600086815260200190815260200160002060006101000a81548160ff0219169083151502179055507f030b0f8dcd86a031eddb071f91882edeac8173663ba775713b677b42b51be44b600460008681526020019081526020016000206006015433604051610bc3929190611231565b60405180910390a150505050565b6000610be4610bdf846112f2565b6112c1565b905082815260208101848484011115610bfc57600080fd5b610c078482856114c9565b509392505050565b600081359050610c1e81611623565b92915050565b600081519050610c3381611623565b92915050565b600081359050610c488161163a565b92915050565b600081519050610c5d8161163a565b92915050565b60008083601f840112610c7557600080fd5b8235905067ffffffffffffffff811115610c8e57600080fd5b602083019150836001820283011115610ca657600080fd5b9250929050565b600082601f830112610cbe57600080fd5b8135610cce848260208601610bd1565b91505092915050565b600081359050610ce681611651565b92915050565b600081519050610cfb81611651565b92915050565b600060208284031215610d1357600080fd5b6000610d2184828501610c24565b91505092915050565b60008060408385031215610d3d57600080fd5b6000610d4b85828601610c0f565b925050602083013567ffffffffffffffff811115610d6857600080fd5b610d7485828601610cad565b9150509250929050565b600060208284031215610d9057600080fd5b6000610d9e84828501610c4e565b91505092915050565b600060208284031215610db957600080fd5b6000610dc784828501610cec565b91505092915050565b60008060008060608587031215610de657600080fd5b6000610df487828801610cd7565b9450506020610e0587828801610c0f565b935050604085013567ffffffffffffffff811115610e2257600080fd5b610e2e87828801610c63565b925092505092959194509250565b60008060408385031215610e4f57600080fd5b6000610e5d85828601610cd7565b9250506020610e6e85828601610c39565b9150509250929050565b610e818161146f565b82525050565b610e98610e938261146f565b611554565b82525050565b610ea781611481565b82525050565b6000610eb9838561133e565b9350610ec68385846114c9565b82840190509392505050565b6000610edd82611322565b610ee7818561132d565b9350610ef78185602086016114d8565b610f0081611605565b840191505092915050565b6000610f1682611322565b610f20818561133e565b9350610f308185602086016114d8565b80840191505092915050565b610f45816114b7565b82525050565b6000610f58601d83611349565b91507f766f74652068617320616c7265616479206265656e20736574746c65640000006000830152602082019050919050565b6000610f98601583611349565b91507f57726f6e6720616374696f6e2070726f766964656400000000000000000000006000830152602082019050919050565b6000610fd8602283611349565b91507f766f746520686173206e6f74206265656e206f70656e206c6f6e6720656e6f7560008301527f67680000000000000000000000000000000000000000000000000000000000006020830152604082019050919050565b600061103e601983611349565b91507f616464726573732068617320616c726561647920766f746564000000000000006000830152602082019050919050565b61107a816114ad565b82525050565b600061108c8286610e87565b60148201915061109d828486610ead565b9150819050949350505050565b60006110b68285610e87565b6014820191506110c68284610f0b565b91508190509392505050565b60006110df828486610ead565b91508190509392505050565b60006020820190506111006000830184610e78565b92915050565b600060608201905061111b6000830186610e78565b6111286020830185610e78565b6111356040830184610f3c565b949350505050565b60006040820190506111526000830185610e78565b61115f6020830184611071565b9392505050565b600060408201905061117b6000830185610e9e565b818103602083015261118d8184610ed2565b90509392505050565b600060208201905081810360008301526111af81610f4b565b9050919050565b600060208201905081810360008301526111cf81610f8b565b9050919050565b600060208201905081810360008301526111ef81610fcb565b9050919050565b6000602082019050818103600083015261120f81611031565b9050919050565b600060208201905061122b6000830184611071565b92915050565b60006040820190506112466000830185611071565b6112536020830184610e78565b9392505050565b600060608201905061126f6000830186611071565b61127c6020830185610e78565b818103604083015261128e8184610ed2565b9050949350505050565b60006040820190506112ad6000830185611071565b6112ba6020830184610e9e565b9392505050565b6000604051905081810181811067ffffffffffffffff821117156112e8576112e76115d6565b5b8060405250919050565b600067ffffffffffffffff82111561130d5761130c6115d6565b5b601f19601f8301169050602081019050919050565b600081519050919050565b600082825260208201905092915050565b600081905092915050565b600082825260208201905092915050565b6000611365826114ad565b9150611370836114ad565b9250827fffffffffffffffffffffffffffffffffffffffffffffffffffffffffffffffff038211156113a5576113a4611578565b5b828201905092915050565b60006113bb826114ad565b91506113c6836114ad565b9250826113d6576113d56115a7565b5b828204905092915050565b60006113ec826114ad565b91506113f7836114ad565b9250817fffffffffffffffffffffffffffffffffffffffffffffffffffffffffffffffff04831182151516156114305761142f611578565b5b828202905092915050565b6000611446826114ad565b9150611451836114ad565b92508282101561146457611463611578565b5b828203905092915050565b600061147a8261148d565b9050919050565b60008115159050919050565b600073ffffffffffffffffffffffffffffffffffffffff82169050919050565b6000819050919050565b60006114c2826114ad565b9050919050565b82818337600083830152505050565b60005b838110156114f65780820151818401526020810190506114db565b83811115611505576000848401525b50505050565b6000611516826114ad565b91507fffffffffffffffffffffffffffffffffffffffffffffffffffffffffffffffff82141561154957611548611578565b5b600182019050919050565b600061155f82611566565b9050919050565b600061157182611616565b9050919050565b7f4e487b7100000000000000000000000000000000000000000000000000000000600052601160045260246000fd5b7f4e487b7100000000000000000000000000000000000000000000000000000000600052601260045260246000fd5b7f4e487b7100000000000000000000000000000000000000000000000000000000600052604160045260246000fd5b6000601f19601f8301169050919050565b60008160601b9050919050565b61162c8161146f565b811461163757600080fd5b50565b61164381611481565b811461164e57600080fd5b50565b61165a816114ad565b811461166557600080fd5b5056fea2646970667358221220bb3ea87eaee58ecd7d4d30e4b02e7a2f65b3240e795e3c5c06e82880bba1e00964736f6c63430008000033",
  "linkReferences": {},
  "deployedLinkReferences": {}
}